{
  "address": "0x1aE8272CfB105A3ec14b2cDff85521C205D9dd35",
  "abi": [
    {
      "inputs": [
        {
          "internalType": "address",
          "name": "initialOwner",
          "type": "address"
        }
      ],
      "stateMutability": "nonpayable",
      "type": "constructor"
    },
    {
      "inputs": [],
      "name": "AlreadyListed",
      "type": "error"
    },
    {
      "inputs": [],
      "name": "NotContract",
      "type": "error"
    },
    {
      "inputs": [],
      "name": "NotListed",
      "type": "error"
    },
    {
      "inputs": [
        {
          "internalType": "address",
          "name": "owner",
          "type": "address"
        }
      ],
      "name": "OwnableInvalidOwner",
      "type": "error"
    },
    {
      "inputs": [
        {
          "internalType": "address",
          "name": "account",
          "type": "address"
        }
      ],
      "name": "OwnableUnauthorizedAccount",
      "type": "error"
    },
    {
      "inputs": [],
      "name": "ZeroAddress",
      "type": "error"
    },
    {
      "anonymous": false,
      "inputs": [
        {
          "indexed": true,
          "internalType": "address",
          "name": "signer",
          "type": "address"
        },
        {
          "indexed": false,
          "internalType": "bool",
          "name": "allowed",
          "type": "bool"
        }
      ],
      "name": "AivmContractSignerUpdated",
      "type": "event"
    },
    {
      "anonymous": false,
      "inputs": [
        {
          "indexed": true,
          "internalType": "address",
          "name": "signer",
          "type": "address"
        },
        {
          "indexed": false,
          "internalType": "bool",
          "name": "allowed",
          "type": "bool"
        }
      ],
      "name": "AivmSignerUpdated",
      "type": "event"
    },
    {
      "anonymous": false,
      "inputs": [
        {
          "indexed": false,
          "internalType": "bool",
          "name": "enabled",
          "type": "bool"
        }
      ],
      "name": "EnableERC1271",
      "type": "event"
    },
    {
      "anonymous": false,
      "inputs": [
        {
          "indexed": false,
          "internalType": "bool",
          "name": "enabled",
          "type": "bool"
        }
      ],
      "name": "EnforceMinVersion",
      "type": "event"
    },
    {
      "anonymous": false,
      "inputs": [
        {
          "indexed": false,
          "internalType": "bool",
          "name": "enabled",
          "type": "bool"
        }
      ],
      "name": "EnforceModelAllowlist",
      "type": "event"
    },
    {
      "anonymous": false,
      "inputs": [
        {
          "indexed": true,
          "internalType": "bytes32",
          "name": "modelId",
          "type": "bytes32"
        },
        {
          "indexed": false,
          "internalType": "uint256",
          "name": "minVersion",
          "type": "uint256"
        }
      ],
      "name": "MinModelVersionSet",
      "type": "event"
    },
    {
      "anonymous": false,
      "inputs": [
        {
          "indexed": true,
          "internalType": "bytes32",
          "name": "modelId",
          "type": "bytes32"
        },
        {
          "indexed": false,
          "internalType": "bool",
          "name": "allowed",
          "type": "bool"
        }
      ],
      "name": "ModelAllowlistSet",
      "type": "event"
    },
    {
      "anonymous": false,
      "inputs": [
        {
          "indexed": true,
          "internalType": "address",
          "name": "previousOwner",
          "type": "address"
        },
        {
          "indexed": true,
          "internalType": "address",
          "name": "newOwner",
          "type": "address"
        }
      ],
      "name": "OwnershipTransferred",
      "type": "event"
    },
    {
      "inputs": [],
      "name": "NAME",
      "outputs": [
        {
          "internalType": "string",
          "name": "",
          "type": "string"
        }
      ],
      "stateMutability": "view",
      "type": "function"
    },
    {
      "inputs": [],
      "name": "VERSION",
      "outputs": [
        {
          "internalType": "string",
          "name": "",
          "type": "string"
        }
      ],
      "stateMutability": "view",
      "type": "function"
    },
    {
      "inputs": [
        {
          "internalType": "uint256",
          "name": "",
          "type": "uint256"
        }
      ],
      "name": "aivmContractSigners",
      "outputs": [
        {
          "internalType": "address",
          "name": "",
          "type": "address"
        }
      ],
      "stateMutability": "view",
      "type": "function"
    },
    {
      "inputs": [
        {
          "internalType": "bytes32",
          "name": "",
          "type": "bytes32"
        }
      ],
      "name": "allowedModelId",
      "outputs": [
        {
          "internalType": "bool",
          "name": "",
          "type": "bool"
        }
      ],
      "stateMutability": "view",
      "type": "function"
    },
    {
      "inputs": [],
      "name": "domainSeparator",
      "outputs": [
        {
          "internalType": "bytes32",
          "name": "",
          "type": "bytes32"
        }
      ],
      "stateMutability": "view",
      "type": "function"
    },
    {
      "inputs": [],
      "name": "enableERC1271Signers",
      "outputs": [
        {
          "internalType": "bool",
          "name": "",
          "type": "bool"
        }
      ],
      "stateMutability": "view",
      "type": "function"
    },
    {
      "inputs": [],
      "name": "enforceMinVersion",
      "outputs": [
        {
          "internalType": "bool",
          "name": "",
          "type": "bool"
        }
      ],
      "stateMutability": "view",
      "type": "function"
    },
    {
      "inputs": [],
      "name": "enforceModelAllowlist",
      "outputs": [
        {
          "internalType": "bool",
          "name": "",
          "type": "bool"
        }
      ],
      "stateMutability": "view",
      "type": "function"
    },
    {
      "inputs": [],
      "name": "getContractSigners",
      "outputs": [
        {
          "internalType": "address[]",
          "name": "",
          "type": "address[]"
        }
      ],
      "stateMutability": "view",
      "type": "function"
    },
    {
      "inputs": [
        {
          "internalType": "address",
          "name": "user",
          "type": "address"
        },
        {
          "internalType": "uint256",
          "name": "challengeId",
          "type": "uint256"
        },
        {
          "internalType": "bytes32",
          "name": "modelId",
          "type": "bytes32"
        },
        {
          "internalType": "uint256",
          "name": "modelVersion",
          "type": "uint256"
        },
        {
          "internalType": "bytes",
          "name": "payload",
          "type": "bytes"
        }
      ],
      "name": "hashTypedData",
      "outputs": [
        {
          "internalType": "bytes32",
          "name": "",
          "type": "bytes32"
        }
      ],
      "stateMutability": "view",
      "type": "function"
    },
    {
      "inputs": [],
      "name": "inferenceTypehash",
      "outputs": [
        {
          "internalType": "bytes32",
          "name": "",
          "type": "bytes32"
        }
      ],
      "stateMutability": "pure",
      "type": "function"
    },
    {
      "inputs": [
        {
          "internalType": "address",
          "name": "",
          "type": "address"
        }
      ],
      "name": "isAivmContractSigner",
      "outputs": [
        {
          "internalType": "bool",
          "name": "",
          "type": "bool"
        }
      ],
      "stateMutability": "view",
      "type": "function"
    },
    {
      "inputs": [
        {
          "internalType": "address",
          "name": "",
          "type": "address"
        }
      ],
      "name": "isAivmSigner",
      "outputs": [
        {
          "internalType": "bool",
          "name": "",
          "type": "bool"
        }
      ],
      "stateMutability": "view",
      "type": "function"
    },
    {
      "inputs": [
        {
          "internalType": "bytes32",
          "name": "",
          "type": "bytes32"
        }
      ],
      "name": "minModelVersion",
      "outputs": [
        {
          "internalType": "uint256",
          "name": "",
          "type": "uint256"
        }
      ],
      "stateMutability": "view",
      "type": "function"
    },
    {
      "inputs": [],
      "name": "owner",
      "outputs": [
        {
          "internalType": "address",
          "name": "",
          "type": "address"
        }
      ],
      "stateMutability": "view",
      "type": "function"
    },
    {
      "inputs": [],
      "name": "renounceOwnership",
      "outputs": [],
      "stateMutability": "nonpayable",
      "type": "function"
    },
    {
      "inputs": [
        {
          "internalType": "address",
          "name": "signer",
          "type": "address"
        },
        {
          "internalType": "bool",
          "name": "allowed",
          "type": "bool"
        }
      ],
      "name": "setAivmContractSigner",
      "outputs": [],
      "stateMutability": "nonpayable",
      "type": "function"
    },
    {
      "inputs": [
        {
          "internalType": "address",
          "name": "signer",
          "type": "address"
        },
        {
          "internalType": "bool",
          "name": "allowed",
          "type": "bool"
        }
      ],
      "name": "setAivmSigner",
      "outputs": [],
      "stateMutability": "nonpayable",
      "type": "function"
    },
    {
      "inputs": [
        {
          "internalType": "address[]",
          "name": "signers",
          "type": "address[]"
        },
        {
          "internalType": "bool",
          "name": "allowed",
          "type": "bool"
        }
      ],
      "name": "setAivmSigners",
      "outputs": [],
      "stateMutability": "nonpayable",
      "type": "function"
    },
    {
      "inputs": [
        {
          "internalType": "bool",
          "name": "enabled",
          "type": "bool"
        }
      ],
      "name": "setEnableERC1271",
      "outputs": [],
      "stateMutability": "nonpayable",
      "type": "function"
    },
    {
      "inputs": [
        {
          "internalType": "bool",
          "name": "enabled",
          "type": "bool"
        }
      ],
      "name": "setEnforceMinVersion",
      "outputs": [],
      "stateMutability": "nonpayable",
      "type": "function"
    },
    {
      "inputs": [
        {
          "internalType": "bool",
          "name": "enabled",
          "type": "bool"
        }
      ],
      "name": "setEnforceModelAllowlist",
      "outputs": [],
      "stateMutability": "nonpayable",
      "type": "function"
    },
    {
      "inputs": [
        {
          "internalType": "bytes32",
          "name": "modelId",
          "type": "bytes32"
        },
        {
          "internalType": "uint256",
          "name": "minVersion_",
          "type": "uint256"
        }
      ],
      "name": "setMinModelVersion",
      "outputs": [],
      "stateMutability": "nonpayable",
      "type": "function"
    },
    {
      "inputs": [
        {
          "internalType": "bytes32",
          "name": "modelId",
          "type": "bytes32"
        },
        {
          "internalType": "bool",
          "name": "allowed",
          "type": "bool"
        }
      ],
      "name": "setModelAllowed",
      "outputs": [],
      "stateMutability": "nonpayable",
      "type": "function"
    },
    {
      "inputs": [],
      "name": "structTypehash",
      "outputs": [
        {
          "internalType": "bytes32",
          "name": "",
          "type": "bytes32"
        }
      ],
      "stateMutability": "pure",
      "type": "function"
    },
    {
      "inputs": [
        {
          "internalType": "bytes4",
          "name": "interfaceId",
          "type": "bytes4"
        }
      ],
      "name": "supportsInterface",
      "outputs": [
        {
          "internalType": "bool",
          "name": "",
          "type": "bool"
        }
      ],
      "stateMutability": "pure",
      "type": "function"
    },
    {
      "inputs": [
        {
          "internalType": "address",
          "name": "newOwner",
          "type": "address"
        }
      ],
      "name": "transferOwnership",
      "outputs": [],
      "stateMutability": "nonpayable",
      "type": "function"
    },
    {
      "inputs": [
        {
          "internalType": "uint256",
          "name": "challengeId",
          "type": "uint256"
        },
        {
          "internalType": "address",
          "name": "user",
          "type": "address"
        },
        {
          "internalType": "bytes",
          "name": "proof",
          "type": "bytes"
        }
      ],
      "name": "verify",
      "outputs": [
        {
          "internalType": "bool",
          "name": "ok",
          "type": "bool"
        }
      ],
      "stateMutability": "nonpayable",
      "type": "function"
    },
    {
      "inputs": [
        {
          "internalType": "uint256",
          "name": "challengeId",
          "type": "uint256"
        },
        {
          "internalType": "address",
          "name": "user",
          "type": "address"
        },
        {
          "internalType": "bytes",
          "name": "proof",
          "type": "bytes"
        }
      ],
      "name": "verifyWith1271Signer",
      "outputs": [
        {
          "internalType": "bool",
          "name": "ok",
          "type": "bool"
        }
      ],
      "stateMutability": "view",
      "type": "function"
    }
  ],
  "transactionHash": "0xe11d66532ccb002f38ed20297747646af14d985fcfa3c46c1086b1f3ce474e03",
  "args": [
    "0x8176735dE44c6a6e64C9153F2448B15F2F53cB31"
  ],
  "numDeployments": 1,
  "solcInputHash": "e2df1da9d10690299fbbf088748853f5",
  "bytecode": "0x60c06040523480156200001157600080fd5b5060405162001a7238038062001a728339810160408190526200003491620001aa565b806001600160a01b0381166200006457604051631e4fbdf760e01b81526000600482015260240160405180910390fd5b6200006f816200015a565b504660805262000150604080518082018252601181527020b4bb36a83937b7b32b32b934b334b2b960791b6020918201528151808301835260018152603160f81b9082015281517f8b73c3c69bb8fe3d512ecc4cf759cc79239f7b179b0ffacaa9a75d522b39400f818301527f2c09fa888aa102d4af6e66412cd4eb7f046f0df3d227b6641e22ad677be0078b818401527fc89efdaa54c0f20c7adf612882df0950f5a951637e0307cdcb4c672f298b8bc660608201524660808201523060a0808301919091528351808303909101815260c0909101909252815191012090565b60a05250620001dc565b600080546001600160a01b038381166001600160a01b0319831681178455604051919092169283917f8be0079c531659141344cd1fd0a4f28419497f9722a3daafe3b4186f6b6457e09190a35050565b600060208284031215620001bd57600080fd5b81516001600160a01b0381168114620001d557600080fd5b9392505050565b60805160a051611870620002026000396000610eab01526000610daa01526118706000f3fe608060405234801561001057600080fd5b506004361061015f5760003560e01c806301ffc9a71461016457806304fd5ce61461018c5780630972bb04146101a157806327f93268146101b35780632817be28146101c65780632993f81a146101e957806330aef3121461020a57806341b1ef1c1461021d5780634fe16561146102305780635a339b76146102535780636495e40d1461025357806366a47b5a146102675780636f55fcbb14610274578063714d6b1314610287578063715018a61461029a578063882f0054146102a25780638da5cb5b146102c257806397b1e10b146102d7578063a3f4df7e146102ea578063b0ac8b1c14610327578063b7b9f7d51461033a578063c67238ac1461034d578063ca9fa3a114610370578063d6ec06b114610383578063dcc03d6714610396578063ecc02be6146103a9578063f2fde38b146103be578063f698da25146103d1578063ffa1ad74146103d9575b600080fd5b610177610172366004611216565b6103f9565b60405190151581526020015b60405180910390f35b61019f61019a366004611255565b61044b565b005b60075461017790610100900460ff1681565b61019f6101c1366004611270565b6104a0565b6101776101d43660046112a7565b60036020526000908152604090205460ff1681565b6101fc6101f736600461130c565b6104f9565b604051908152602001610183565b6007546101779062010000900460ff1681565b61019f61022b36600461137e565b610549565b61017761023e3660046113aa565b60056020526000908152604090205460ff1681565b6000805160206118448339815191526101fc565b6007546101779060ff1681565b61019f610282366004611255565b6105a1565b61019f6102953660046113c3565b6105f2565b61019f6106b6565b6101fc6102b03660046113aa565b60066020526000908152604090205481565b6102ca6106ca565b6040516101839190611446565b6102ca6102e53660046113aa565b6106d9565b61031a6040518060400160405280601181526020017020b4bb36a83937b7b32b32b934b334b2b960791b81525081565b60405161018391906114aa565b61019f6103353660046114bd565b610703565b6101776103483660046114e9565b61099a565b61017761035b3660046112a7565b60016020526000908152604090205460ff1681565b61019f61037e366004611255565b610b32565b6101776103913660046114e9565b610b81565b61019f6103a43660046114bd565b610c88565b6103b1610cfd565b6040516101839190611544565b61019f6103cc3660046112a7565b610d5f565b6101fc610da6565b61031a604051806040016040528060018152602001603160f81b81525081565b60006001600160e01b031982166301ffc9a760e01b148061042a57506001600160e01b03198216631241a7c560e31b145b8061044557506001600160e01b0319821663b7b9f7d560e01b145b92915050565b610453610ecd565b6007805460ff19168215151790556040517ff6fac9ce924452effa9652de8c500f03d92bd015e26617c07b23f0fd453f2f0f9061049590831515815260200190565b60405180910390a150565b6104a8610ecd565b600082815260066020526040908190208290555182907f3dc3a04e6f11a0734cd39e80eda08ffa582b3cc441bba4ab289ab838ab3444ee906104ed9084815260200190565b60405180910390a25050565b600061053e8787878787878080601f016020809104026020016040519081016040528093929190818152602001838380828437600092019190915250610eff92505050565b979650505050505050565b610551610ecd565b60008281526005602052604090819020805460ff19168315151790555182907f1702198792f49b67deafbac7a48581003156696e0b6d81ff1e66c78eed53c5ba906104ed90841515815260200190565b6105a9610ecd565b6007805462ff0000191662010000831515021790556040517f3014320ae73ceaa87f5796b5dba0fec25e9cdf572fca9b4f082d6528a4d3b5129061049590831515815260200190565b6105fa610ecd565b8160005b818110156106af57600085858381811061061a5761061a611591565b905060200201602081019061062f91906112a7565b90506001600160a01b0381166106585760405163d92e233d60e01b815260040160405180910390fd5b6001600160a01b03811660008181526001602052604090819020805460ff1916871515179055516000805160206118048339815191529061069e90871515815260200190565b60405180910390a2506001016105fe565b5050505050565b6106be610ecd565b6106c86000610f56565b565b6000546001600160a01b031690565b600281815481106106e957600080fd5b6000918252602090912001546001600160a01b0316905081565b61070b610ecd565b6001600160a01b0382166107325760405163d92e233d60e01b815260040160405180910390fd5b816001600160a01b03163b60000361075d57604051636f7c43f160e01b815260040160405180910390fd5b6001600160a01b03821660009081526003602052604090205460ff16801515821515036107bc57826001600160a01b0316600080516020611824833981519152836040516107af911515815260200190565b60405180910390a2505050565b811561083b5760028054600180820183557f405787fa12a823e0f2b7631cc41b3ba8828b3321ca811111fa75cd3aa3bb5ace90910180546001600160a01b0319166001600160a01b038716908117909155915460009283526004602090815260408085209290925560039052909120805460ff1916909117905561096f565b6001600160a01b038316600090815260046020526040812054908190036108755760405163665c1c5760e01b815260040160405180910390fd5b60025481811461090e576000600261088e6001846115a7565b8154811061089e5761089e611591565b6000918252602090912001546001600160a01b031690508060026108c36001866115a7565b815481106108d3576108d3611591565b600091825260208083209190910180546001600160a01b0319166001600160a01b039485161790559290911681526004909152604090208290555b600280548061091f5761091f6115c8565b60008281526020808220830160001990810180546001600160a01b03191690559092019092556001600160a01b038716825260048152604080832083905560039091529020805460ff1916905550505b826001600160a01b0316600080516020611824833981519152836040516107af911515815260200190565b6000808080806109ac86880188611680565b6007549397509195509350915060ff1680156109d7575060008481526005602052604090205460ff16155b156109e9576000945050505050610b2a565b600754610100900460ff1615610a2b576000848152600660205260409020548015801590610a1657508084105b15610a2957600095505050505050610b2a565b505b6000610a3a898b878787610eff565b9050600080610a498385610fa6565b5090925090506000816003811115610a6357610a636116f6565b148015610a8857506001600160a01b03821660009081526001602052604090205460ff165b15610a9d576001975050505050505050610b2a565b60075462010000900460ff16610abd576000975050505050505050610b2a565b60025460005b81811015610b1c57610afd60028281548110610ae157610ae1611591565b6000918252602090912001546001600160a01b03168688610ff3565b15610b145760019950505050505050505050610b2a565b600101610ac3565b506000985050505050505050505b949350505050565b610b3a610ecd565b6007805461ff001916610100831515021790556040517f5c0d6252c7ae46da34996d7cd4e0a5a825cfdd62353d57b73ba50d5877034aef9061049590831515815260200190565b60008080808080610b948789018961170c565b94509450945094509450600760029054906101000a900460ff161580610bd357506001600160a01b03811660009081526003602052604090205460ff16155b15610be657600095505050505050610b2a565b60075460ff168015610c07575060008581526005602052604090205460ff16155b15610c1a57600095505050505050610b2a565b600754610100900460ff1615610c5d576000858152600660205260409020548015801590610c4757508085105b15610c5b5760009650505050505050610b2a565b505b6000610c6c8a8c888888610eff565b9050610c79828285610ff3565b9b9a5050505050505050505050565b610c90610ecd565b6001600160a01b038216610cb75760405163d92e233d60e01b815260040160405180910390fd5b6001600160a01b03821660008181526001602052604090819020805460ff191684151517905551600080516020611804833981519152906104ed90841515815260200190565b60606002805480602002602001604051908101604052809291908181526020018280548015610d5557602002820191906000526020600020905b81546001600160a01b03168152600190910190602001808311610d37575b5050505050905090565b610d67610ecd565b6001600160a01b038116610d9a576000604051631e4fbdf760e01b8152600401610d919190611446565b60405180910390fd5b610da381610f56565b50565b60007f00000000000000000000000000000000000000000000000000000000000000004614610ea85750604080518082018252601181527020b4bb36a83937b7b32b32b934b334b2b960791b6020918201528151808301835260018152603160f81b9082015281517f8b73c3c69bb8fe3d512ecc4cf759cc79239f7b179b0ffacaa9a75d522b39400f818301527f2c09fa888aa102d4af6e66412cd4eb7f046f0df3d227b6641e22ad677be0078b818401527fc89efdaa54c0f20c7adf612882df0950f5a951637e0307cdcb4c672f298b8bc660608201524660808201523060a0808301919091528351808303909101815260c0909101909252815191012090565b507f000000000000000000000000000000000000000000000000000000000000000090565b33610ed66106ca565b6001600160a01b0316146106c8573360405163118cdaa760e01b8152600401610d919190611446565b6000610f09610da6565b610f1687878787876110f9565b60405161190160f01b6020820152602281019290925260428201526062015b60405160208183030381529060405280519060200120905095945050505050565b600080546001600160a01b038381166001600160a01b0319831681178455604051919092169283917f8be0079c531659141344cd1fd0a4f28419497f9722a3daafe3b4186f6b6457e09190a35050565b60008060008351604103610fe05760208401516040850151606086015160001a610fd288828585611151565b955095509550505050610fec565b50508151600091506002905b9250925092565b6000836001600160a01b03163b60000361100f575060006110f2565b600080856001600160a01b0316631626ba7e60e01b8686604051602401611037929190611797565b60408051601f198184030181529181526020820180516001600160e01b03166001600160e01b031990941693909317909252905161107591906117b0565b600060405180830381855afa9150503d80600081146110b0576040519150601f19603f3d011682016040523d82523d6000602084013e6110b5565b606091505b50915091508180156110c957506004815110155b80156110ed5750630b135d3f60e11b6110e1826117cc565b6001600160e01b031916145b925050505b9392505050565b805160208083019190912060408051600080516020611844833981519152938101939093526001600160a01b03881690830152606082018690526080820185905260a0820184905260c082015260009060e001610f35565b600080806fa2a8918ca85bafe22016d0b997e4df60600160ff1b03841115611182575060009150600390508261120c565b604080516000808252602082018084528a905260ff891692820192909252606081018790526080810186905260019060a0016020604051602081039080840390855afa1580156111d6573d6000803e3d6000fd5b5050604051601f1901519150506001600160a01b0381166112025750600092506001915082905061120c565b9250600091508190505b9450945094915050565b60006020828403121561122857600080fd5b81356001600160e01b0319811681146110f257600080fd5b8035801515811461125057600080fd5b919050565b60006020828403121561126757600080fd5b6110f282611240565b6000806040838503121561128357600080fd5b50508035926020909101359150565b6001600160a01b0381168114610da357600080fd5b6000602082840312156112b957600080fd5b81356110f281611292565b60008083601f8401126112d657600080fd5b5081356001600160401b038111156112ed57600080fd5b60208301915083602082850101111561130557600080fd5b9250929050565b60008060008060008060a0878903121561132557600080fd5b863561133081611292565b955060208701359450604087013593506060870135925060808701356001600160401b0381111561136057600080fd5b61136c89828a016112c4565b979a9699509497509295939492505050565b6000806040838503121561139157600080fd5b823591506113a160208401611240565b90509250929050565b6000602082840312156113bc57600080fd5b5035919050565b6000806000604084860312156113d857600080fd5b83356001600160401b03808211156113ef57600080fd5b818601915086601f83011261140357600080fd5b81358181111561141257600080fd5b8760208260051b850101111561142757600080fd5b60209283019550935061143d9186019050611240565b90509250925092565b6001600160a01b0391909116815260200190565b60005b8381101561147557818101518382015260200161145d565b50506000910152565b6000815180845261149681602086016020860161145a565b601f01601f19169290920160200192915050565b6020815260006110f2602083018461147e565b600080604083850312156114d057600080fd5b82356114db81611292565b91506113a160208401611240565b600080600080606085870312156114ff57600080fd5b84359350602085013561151181611292565b925060408501356001600160401b0381111561152c57600080fd5b611538878288016112c4565b95989497509550505050565b6020808252825182820181905260009190848201906040850190845b818110156115855783516001600160a01b031683529284019291840191600101611560565b50909695505050505050565b634e487b7160e01b600052603260045260246000fd5b8181038181111561044557634e487b7160e01b600052601160045260246000fd5b634e487b7160e01b600052603160045260246000fd5b634e487b7160e01b600052604160045260246000fd5b600082601f83011261160557600080fd5b81356001600160401b038082111561161f5761161f6115de565b604051601f8301601f19908116603f01168101908282118183101715611647576116476115de565b8160405283815286602085880101111561166057600080fd5b836020870160208301376000602085830101528094505050505092915050565b6000806000806080858703121561169657600080fd5b843593506020850135925060408501356001600160401b03808211156116bb57600080fd5b6116c7888389016115f4565b935060608701359150808211156116dd57600080fd5b506116ea878288016115f4565b91505092959194509250565b634e487b7160e01b600052602160045260246000fd5b600080600080600060a0868803121561172457600080fd5b853594506020860135935060408601356001600160401b038082111561174957600080fd5b61175589838a016115f4565b9450606088013591508082111561176b57600080fd5b50611778888289016115f4565b925050608086013561178981611292565b809150509295509295909350565b828152604060208201526000610b2a604083018461147e565b600082516117c281846020870161145a565b9190910192915050565b805160208201516001600160e01b031980821692919060048310156117fb5780818460040360031b1b83161693505b50505091905056fee112616923909b33c47397196a66bf886aaf52995806f7f2c729dee319882570fc69cfdda4ec43d093e026607c8771ff3b991a2f20880511526659003a4b633bfaae4472d1c6e22999e162b4da0a275a5e1c13cfe97eba4ef06baa9eef5be4fca164736f6c6343000818000a",
  "devdoc": {
    "errors": {
      "OwnableInvalidOwner(address)": [
        {
          "details": "The owner is not a valid owner account. (eg. `address(0)`)"
        }
      ],
      "OwnableUnauthorizedAccount(address)": [
        {
          "details": "The caller account is not authorized to perform an operation."
        }
      ]
    },
    "kind": "dev",
    "methods": {
      "owner()": {
        "details": "Returns the address of the current owner."
      },
      "renounceOwnership()": {
        "details": "Leaves the contract without owner. It will not be possible to call `onlyOwner` functions. Can only be called by the current owner. NOTE: Renouncing ownership will leave the contract without an owner, thereby disabling any functionality that is only available to the owner."
      },
      "supportsInterface(bytes4)": {
        "details": "Returns true if this contract implements the interface defined by `interfaceId`. See the corresponding https://eips.ethereum.org/EIPS/eip-165#how-interfaces-are-identified[ERC section] to learn more about how these ids are created. This function call must use less than 30 000 gas."
      },
      "transferOwnership(address)": {
        "details": "Transfers ownership of the contract to a new account (`newOwner`). Can only be called by the current owner."
      }
    },
    "title": "AivmProofVerifier",
    "version": 1
  },
  "userdoc": {
    "kind": "user",
    "methods": {
      "inferenceTypehash()": {
        "notice": "Convenience alias (clients often look for this)"
      },
      "verifyWith1271Signer(uint256,address,bytes)": {
        "notice": "Optional fast path: avoids iterating over all contract signers. proof := abi.encode(modelId, modelVersion, payload, sig, contractSigner)"
      }
    },
    "notice": "Verifies EIP-712 typed \"Inference\" payloads signed by approved AIVM signers. proof := abi.encode(bytes32 modelId, uint256 modelVersion, bytes payload, bytes signature) Typed data:   Inference(address user,uint256 challengeId,bytes32 modelId,uint256 modelVersion,bytes payload)",
    "version": 1
  },
  "storageLayout": {
    "storage": [
      {
        "astId": 388,
        "contract": "contracts/attestation/AivmProofVerifier.sol:AivmProofVerifier",
        "label": "_owner",
        "offset": 0,
        "slot": "0",
        "type": "t_address"
      },
      {
        "astId": 10014,
        "contract": "contracts/attestation/AivmProofVerifier.sol:AivmProofVerifier",
        "label": "isAivmSigner",
        "offset": 0,
        "slot": "1",
        "type": "t_mapping(t_address,t_bool)"
      },
      {
        "astId": 10017,
        "contract": "contracts/attestation/AivmProofVerifier.sol:AivmProofVerifier",
        "label": "aivmContractSigners",
        "offset": 0,
        "slot": "2",
        "type": "t_array(t_address)dyn_storage"
      },
      {
        "astId": 10021,
        "contract": "contracts/attestation/AivmProofVerifier.sol:AivmProofVerifier",
        "label": "isAivmContractSigner",
        "offset": 0,
        "slot": "3",
        "type": "t_mapping(t_address,t_bool)"
      },
      {
        "astId": 10025,
        "contract": "contracts/attestation/AivmProofVerifier.sol:AivmProofVerifier",
        "label": "_contractSignerIndex",
        "offset": 0,
        "slot": "4",
        "type": "t_mapping(t_address,t_uint256)"
      },
      {
        "astId": 10029,
        "contract": "contracts/attestation/AivmProofVerifier.sol:AivmProofVerifier",
        "label": "allowedModelId",
        "offset": 0,
        "slot": "5",
        "type": "t_mapping(t_bytes32,t_bool)"
      },
      {
        "astId": 10033,
        "contract": "contracts/attestation/AivmProofVerifier.sol:AivmProofVerifier",
        "label": "minModelVersion",
        "offset": 0,
        "slot": "6",
        "type": "t_mapping(t_bytes32,t_uint256)"
      },
      {
        "astId": 10035,
        "contract": "contracts/attestation/AivmProofVerifier.sol:AivmProofVerifier",
        "label": "enforceModelAllowlist",
        "offset": 0,
        "slot": "7",
        "type": "t_bool"
      },
      {
        "astId": 10037,
        "contract": "contracts/attestation/AivmProofVerifier.sol:AivmProofVerifier",
        "label": "enforceMinVersion",
        "offset": 1,
        "slot": "7",
        "type": "t_bool"
      },
      {
        "astId": 10039,
        "contract": "contracts/attestation/AivmProofVerifier.sol:AivmProofVerifier",
        "label": "enableERC1271Signers",
        "offset": 2,
        "slot": "7",
        "type": "t_bool"
      }
    ],
    "types": {
      "t_address": {
        "encoding": "inplace",
        "label": "address",
        "numberOfBytes": "20"
      },
      "t_array(t_address)dyn_storage": {
        "base": "t_address",
        "encoding": "dynamic_array",
        "label": "address[]",
        "numberOfBytes": "32"
      },
      "t_bool": {
        "encoding": "inplace",
        "label": "bool",
        "numberOfBytes": "1"
      },
      "t_bytes32": {
        "encoding": "inplace",
        "label": "bytes32",
        "numberOfBytes": "32"
      },
      "t_mapping(t_address,t_bool)": {
        "encoding": "mapping",
        "key": "t_address",
        "label": "mapping(address => bool)",
        "numberOfBytes": "32",
        "value": "t_bool"
      },
      "t_mapping(t_address,t_uint256)": {
        "encoding": "mapping",
        "key": "t_address",
        "label": "mapping(address => uint256)",
        "numberOfBytes": "32",
        "value": "t_uint256"
      },
      "t_mapping(t_bytes32,t_bool)": {
        "encoding": "mapping",
        "key": "t_bytes32",
        "label": "mapping(bytes32 => bool)",
        "numberOfBytes": "32",
        "value": "t_bool"
      },
      "t_mapping(t_bytes32,t_uint256)": {
        "encoding": "mapping",
        "key": "t_bytes32",
        "label": "mapping(bytes32 => uint256)",
        "numberOfBytes": "32",
        "value": "t_uint256"
      },
      "t_uint256": {
        "encoding": "inplace",
        "label": "uint256",
        "numberOfBytes": "32"
      }
    }
  }
}