{
  "address": "0x7ab646195C4a1be878Da2eDe1929E42BFAD0c1DE",
  "abi": [
    {
      "inputs": [],
      "stateMutability": "nonpayable",
      "type": "constructor"
    },
    {
      "anonymous": false,
      "inputs": [
        {
          "indexed": true,
          "internalType": "address",
          "name": "creator",
          "type": "address"
        },
        {
          "indexed": false,
          "internalType": "bool",
          "name": "allowed",
          "type": "bool"
        }
      ],
      "name": "CreatorAllowed",
      "type": "event"
    },
    {
      "anonymous": false,
      "inputs": [
        {
          "indexed": false,
          "internalType": "bool",
          "name": "required",
          "type": "bool"
        }
      ],
      "name": "CreatorAllowlistMode",
      "type": "event"
    },
    {
      "anonymous": false,
      "inputs": [
        {
          "indexed": true,
          "internalType": "address",
          "name": "token",
          "type": "address"
        },
        {
          "indexed": false,
          "internalType": "bool",
          "name": "allowed",
          "type": "bool"
        }
      ],
      "name": "ERC20Allowed",
      "type": "event"
    },
    {
      "anonymous": false,
      "inputs": [
        {
          "indexed": false,
          "internalType": "uint256",
          "name": "minLeadTime",
          "type": "uint256"
        },
        {
          "indexed": false,
          "internalType": "uint256",
          "name": "maxDuration",
          "type": "uint256"
        }
      ],
      "name": "LeadAndDurationSet",
      "type": "event"
    },
    {
      "anonymous": false,
      "inputs": [
        {
          "indexed": false,
          "internalType": "bool",
          "name": "allowed",
          "type": "bool"
        }
      ],
      "name": "NativeAllowedSet",
      "type": "event"
    },
    {
      "anonymous": false,
      "inputs": [
        {
          "indexed": true,
          "internalType": "address",
          "name": "prev",
          "type": "address"
        },
        {
          "indexed": true,
          "internalType": "address",
          "name": "next",
          "type": "address"
        }
      ],
      "name": "OwnerChanged",
      "type": "event"
    },
    {
      "anonymous": false,
      "inputs": [
        {
          "indexed": false,
          "internalType": "bool",
          "name": "on",
          "type": "bool"
        }
      ],
      "name": "Paused",
      "type": "event"
    },
    {
      "inputs": [],
      "name": "allowNative",
      "outputs": [
        {
          "internalType": "bool",
          "name": "",
          "type": "bool"
        }
      ],
      "stateMutability": "view",
      "type": "function"
    },
    {
      "inputs": [
        {
          "internalType": "address",
          "name": "",
          "type": "address"
        }
      ],
      "name": "creatorAllowed",
      "outputs": [
        {
          "internalType": "bool",
          "name": "",
          "type": "bool"
        }
      ],
      "stateMutability": "view",
      "type": "function"
    },
    {
      "inputs": [
        {
          "internalType": "address",
          "name": "",
          "type": "address"
        }
      ],
      "name": "erc20Allowed",
      "outputs": [
        {
          "internalType": "bool",
          "name": "",
          "type": "bool"
        }
      ],
      "stateMutability": "view",
      "type": "function"
    },
    {
      "inputs": [],
      "name": "maxDuration",
      "outputs": [
        {
          "internalType": "uint256",
          "name": "",
          "type": "uint256"
        }
      ],
      "stateMutability": "view",
      "type": "function"
    },
    {
      "inputs": [],
      "name": "minLeadTime",
      "outputs": [
        {
          "internalType": "uint256",
          "name": "",
          "type": "uint256"
        }
      ],
      "stateMutability": "view",
      "type": "function"
    },
    {
      "inputs": [
        {
          "internalType": "uint256",
          "name": "",
          "type": "uint256"
        },
        {
          "internalType": "address",
          "name": "challenger",
          "type": "address"
        },
        {
          "internalType": "address",
          "name": "token",
          "type": "address"
        },
        {
          "internalType": "uint8",
          "name": "currency",
          "type": "uint8"
        },
        {
          "internalType": "uint256",
          "name": "startTs",
          "type": "uint256"
        },
        {
          "internalType": "uint256",
          "name": "duration",
          "type": "uint256"
        },
        {
          "internalType": "bytes",
          "name": "",
          "type": "bytes"
        }
      ],
      "name": "onCreate",
      "outputs": [
        {
          "internalType": "bool",
          "name": "allow",
          "type": "bool"
        },
        {
          "internalType": "bool",
          "name": "autoApprove",
          "type": "bool"
        }
      ],
      "stateMutability": "nonpayable",
      "type": "function"
    },
    {
      "inputs": [],
      "name": "owner",
      "outputs": [
        {
          "internalType": "address",
          "name": "",
          "type": "address"
        }
      ],
      "stateMutability": "view",
      "type": "function"
    },
    {
      "inputs": [],
      "name": "paused",
      "outputs": [
        {
          "internalType": "bool",
          "name": "",
          "type": "bool"
        }
      ],
      "stateMutability": "view",
      "type": "function"
    },
    {
      "inputs": [],
      "name": "requireCreatorAllowlist",
      "outputs": [
        {
          "internalType": "bool",
          "name": "",
          "type": "bool"
        }
      ],
      "stateMutability": "view",
      "type": "function"
    },
    {
      "inputs": [
        {
          "internalType": "address",
          "name": "creator",
          "type": "address"
        },
        {
          "internalType": "bool",
          "name": "allowed",
          "type": "bool"
        }
      ],
      "name": "setCreatorAllowed",
      "outputs": [],
      "stateMutability": "nonpayable",
      "type": "function"
    },
    {
      "inputs": [
        {
          "internalType": "address",
          "name": "token",
          "type": "address"
        },
        {
          "internalType": "bool",
          "name": "allowed",
          "type": "bool"
        }
      ],
      "name": "setERC20Allowed",
      "outputs": [],
      "stateMutability": "nonpayable",
      "type": "function"
    },
    {
      "inputs": [
        {
          "internalType": "uint256",
          "name": "_minLead",
          "type": "uint256"
        },
        {
          "internalType": "uint256",
          "name": "_maxDur",
          "type": "uint256"
        }
      ],
      "name": "setLeadAndDuration",
      "outputs": [],
      "stateMutability": "nonpayable",
      "type": "function"
    },
    {
      "inputs": [
        {
          "internalType": "bool",
          "name": "allowed",
          "type": "bool"
        }
      ],
      "name": "setNativeAllowed",
      "outputs": [],
      "stateMutability": "nonpayable",
      "type": "function"
    },
    {
      "inputs": [
        {
          "internalType": "address",
          "name": "n",
          "type": "address"
        }
      ],
      "name": "setOwner",
      "outputs": [],
      "stateMutability": "nonpayable",
      "type": "function"
    },
    {
      "inputs": [
        {
          "internalType": "bool",
          "name": "on",
          "type": "bool"
        }
      ],
      "name": "setPaused",
      "outputs": [],
      "stateMutability": "nonpayable",
      "type": "function"
    },
    {
      "inputs": [
        {
          "internalType": "bool",
          "name": "required",
          "type": "bool"
        }
      ],
      "name": "setRequireCreatorAllowlist",
      "outputs": [],
      "stateMutability": "nonpayable",
      "type": "function"
    }
  ],
  "transactionHash": "0x55f2fbd7ee9b9d7fbf87e35614d69347010c74ed25fc7f79e823c60bca41bb5a",
  "args": [],
  "numDeployments": 1,
  "solcInputHash": "e2df1da9d10690299fbbf088748853f5",
  "bytecode": "0x608060405234801561001057600080fd5b506000805460038054600160ff199182168117909255607890915562278d006002556005805490911690556001600160a81b0319163360ff60a01b191617815561099190819061006090396000f3fe608060405234801561001057600080fd5b50600436106100d05760003560e01c806313af4035146100d557806316c38b3c146100ea57806318a35ee7146100fd57806339139efc146101355780634a836165146101585780635c975abb146101655780635e572702146101795780636d1f27e5146101905780636db5c8fd146101a35780638b5478b9146101ac5780638da5cb5b146101bf5780638f6f1fe1146101ea57806394d7cc11146101fd5780639b10380614610210578063b22294a814610223578063be25912c1461024d575b600080fd5b6100e86100e33660046107d0565b61025a565b005b6100e86100f8366004610802565b610328565b61012061010b3660046107d0565b60046020526000908152604090205460ff1681565b60405190151581526020015b60405180910390f35b6101206101433660046107d0565b60066020526000908152604090205460ff1681565b6005546101209060ff1681565b60005461012090600160a01b900460ff1681565b61018260015481565b60405190815260200161012c565b6100e861019e36600461081d565b6103aa565b61018260025481565b6100e86101ba366004610802565b610469565b6000546101d2906001600160a01b031681565b6040516001600160a01b03909116815260200161012c565b6100e86101f8366004610802565b6104d4565b6100e861020b36600461083f565b61053f565b6100e861021e36600461083f565b610609565b610236610231366004610872565b61068b565b60408051921515835290151560208301520161012c565b6003546101209060ff1681565b6000546001600160a01b0316331461028d5760405162461bcd60e51b81526004016102849061093a565b60405180910390fd5b6001600160a01b0381166102cd5760405162461bcd60e51b815260206004820152600760248201526606f776e65723d360cc1b6044820152606401610284565b600080546040516001600160a01b03808516939216917fb532073b38c83145e3e5135377a08bf9aab55bc0fd7c1179cd4fb995d2a5159c91a3600080546001600160a01b0319166001600160a01b0392909216919091179055565b6000546001600160a01b031633146103525760405162461bcd60e51b81526004016102849061093a565b60008054821515600160a01b0260ff60a01b199091161790556040517f0e2fb031ee032dc02d8011dc50b816eb450cf856abd8261680dac74f72165bd29061039f90831515815260200190565b60405180910390a150565b6000546001600160a01b031633146103d45760405162461bcd60e51b81526004016102849061093a565b8015806103e35750610e108110155b6104225760405162461bcd60e51b815260206004820152601060248201526f1b585e111d5c881d1bdbc81cdb585b1b60821b6044820152606401610284565b6001829055600281905560408051838152602081018390527fb27df29f454e05aa40be761cf4ff94f85c0b918e63e3f5facaa2201c5d9c6ae5910160405180910390a15050565b6000546001600160a01b031633146104935760405162461bcd60e51b81526004016102849061093a565b6003805460ff19168215159081179091556040519081527fd757c1db44649b5183a963e20787f7f0e543cec697f997572859d1d16d217aa79060200161039f565b6000546001600160a01b031633146104fe5760405162461bcd60e51b81526004016102849061093a565b6005805460ff19168215159081179091556040519081527f65ff95781ac73cd153ea57512b6eefb2096950f37e5f05f4476c8a8751c821549060200161039f565b6000546001600160a01b031633146105695760405162461bcd60e51b81526004016102849061093a565b6001600160a01b0382166105a95760405162461bcd60e51b81526020600482015260076024820152660746f6b656e3d360cc1b6044820152606401610284565b6001600160a01b038216600081815260046020908152604091829020805460ff191685151590811790915591519182527f84c48a4e7b379f903eb60d5314ed4c0f7580e7b78d97a674ccb0c1d27d5497bf91015b60405180910390a25050565b6000546001600160a01b031633146106335760405162461bcd60e51b81526004016102849061093a565b6001600160a01b038216600081815260066020908152604091829020805460ff191685151590811790915591519182527f8080779c631fe2a2cef3d85f043bab8b7a0ac8609d12fa2d97e81b7512d2186791016105fd565b600080548190600160a01b900460ff16156106ab575060009050806107a7565b60055460ff1680156106d657506001600160a01b03891660009081526006602052604090205460ff16155b156106e6575060009050806107a7565b6001546106f3904261095d565b861015610705575060009050806107a7565b84600003610718575060009050806107a7565b6002541580159061072a575060025485115b1561073a575060009050806107a7565b8660ff1660000361075f5760035460ff1661075a575060009050806107a7565b6107a0565b8660ff16600103610795576001600160a01b03881660009081526004602052604090205460ff1661075a575060009050806107a7565b5060009050806107a7565b5060019050805b9850989650505050505050565b80356001600160a01b03811681146107cb57600080fd5b919050565b6000602082840312156107e257600080fd5b6107eb826107b4565b9392505050565b803580151581146107cb57600080fd5b60006020828403121561081457600080fd5b6107eb826107f2565b6000806040838503121561083057600080fd5b50508035926020909101359150565b6000806040838503121561085257600080fd5b61085b836107b4565b9150610869602084016107f2565b90509250929050565b60008060008060008060008060e0898b03121561088e57600080fd5b8835975061089e60208a016107b4565b96506108ac60408a016107b4565b9550606089013560ff811681146108c257600080fd5b94506080890135935060a0890135925060c08901356001600160401b03808211156108ec57600080fd5b818b0191508b601f83011261090057600080fd5b81358181111561090f57600080fd5b8c602082850101111561092157600080fd5b6020830194508093505050509295985092959890939650565b6020808252600990820152683737ba1037bbb732b960b91b604082015260600190565b8082018082111561097e57634e487b7160e01b600052601160045260246000fd5b9291505056fea164736f6c6343000818000a",
  "devdoc": {
    "kind": "dev",
    "methods": {},
    "version": 1
  },
  "userdoc": {
    "kind": "user",
    "methods": {},
    "version": 1
  },
  "storageLayout": {
    "storage": [
      {
        "astId": 12687,
        "contract": "contracts/strategies/AutoApprovalStrategy.sol:AutoApprovalStrategy",
        "label": "owner",
        "offset": 0,
        "slot": "0",
        "type": "t_address"
      },
      {
        "astId": 12693,
        "contract": "contracts/strategies/AutoApprovalStrategy.sol:AutoApprovalStrategy",
        "label": "paused",
        "offset": 20,
        "slot": "0",
        "type": "t_bool"
      },
      {
        "astId": 12701,
        "contract": "contracts/strategies/AutoApprovalStrategy.sol:AutoApprovalStrategy",
        "label": "minLeadTime",
        "offset": 0,
        "slot": "1",
        "type": "t_uint256"
      },
      {
        "astId": 12703,
        "contract": "contracts/strategies/AutoApprovalStrategy.sol:AutoApprovalStrategy",
        "label": "maxDuration",
        "offset": 0,
        "slot": "2",
        "type": "t_uint256"
      },
      {
        "astId": 12709,
        "contract": "contracts/strategies/AutoApprovalStrategy.sol:AutoApprovalStrategy",
        "label": "allowNative",
        "offset": 0,
        "slot": "3",
        "type": "t_bool"
      },
      {
        "astId": 12719,
        "contract": "contracts/strategies/AutoApprovalStrategy.sol:AutoApprovalStrategy",
        "label": "erc20Allowed",
        "offset": 0,
        "slot": "4",
        "type": "t_mapping(t_address,t_bool)"
      },
      {
        "astId": 12731,
        "contract": "contracts/strategies/AutoApprovalStrategy.sol:AutoApprovalStrategy",
        "label": "requireCreatorAllowlist",
        "offset": 0,
        "slot": "5",
        "type": "t_bool"
      },
      {
        "astId": 12735,
        "contract": "contracts/strategies/AutoApprovalStrategy.sol:AutoApprovalStrategy",
        "label": "creatorAllowed",
        "offset": 0,
        "slot": "6",
        "type": "t_mapping(t_address,t_bool)"
      }
    ],
    "types": {
      "t_address": {
        "encoding": "inplace",
        "label": "address",
        "numberOfBytes": "20"
      },
      "t_bool": {
        "encoding": "inplace",
        "label": "bool",
        "numberOfBytes": "1"
      },
      "t_mapping(t_address,t_bool)": {
        "encoding": "mapping",
        "key": "t_address",
        "label": "mapping(address => bool)",
        "numberOfBytes": "32",
        "value": "t_bool"
      },
      "t_uint256": {
        "encoding": "inplace",
        "label": "uint256",
        "numberOfBytes": "32"
      }
    }
  }
}