{
  "address": "0x5d630768BC194B5B840E3e8494037dBEeB06Cf9B",
  "abi": [
    {
      "inputs": [
        {
          "internalType": "address",
          "name": "_treasury",
          "type": "address"
        },
        {
          "internalType": "address",
          "name": "_protocol",
          "type": "address"
        }
      ],
      "stateMutability": "nonpayable",
      "type": "constructor"
    },
    {
      "inputs": [],
      "name": "AlreadyCanceled",
      "type": "error"
    },
    {
      "inputs": [],
      "name": "AlreadyFinalized",
      "type": "error"
    },
    {
      "inputs": [],
      "name": "AlreadyWinner",
      "type": "error"
    },
    {
      "inputs": [],
      "name": "AmountZero",
      "type": "error"
    },
    {
      "inputs": [],
      "name": "BeforeDeadline",
      "type": "error"
    },
    {
      "inputs": [],
      "name": "ChallengeNotFinalized",
      "type": "error"
    },
    {
      "inputs": [],
      "name": "ChallengePaused",
      "type": "error"
    },
    {
      "inputs": [],
      "name": "DeadlineRequired",
      "type": "error"
    },
    {
      "inputs": [],
      "name": "ExternalIdAlreadyUsed",
      "type": "error"
    },
    {
      "inputs": [],
      "name": "GlobalPausedError",
      "type": "error"
    },
    {
      "inputs": [],
      "name": "InvalidBounds",
      "type": "error"
    },
    {
      "inputs": [],
      "name": "JoinClosesAfterStart",
      "type": "error"
    },
    {
      "inputs": [],
      "name": "JoinWindowClosed",
      "type": "error"
    },
    {
      "inputs": [],
      "name": "LeadTimeOutOfBounds",
      "type": "error"
    },
    {
      "inputs": [],
      "name": "MaxParticipantsReached",
      "type": "error"
    },
    {
      "inputs": [],
      "name": "NotActive",
      "type": "error"
    },
    {
      "inputs": [],
      "name": "NotAdmin",
      "type": "error"
    },
    {
      "inputs": [],
      "name": "NotCreatorOrAdmin",
      "type": "error"
    },
    {
      "inputs": [],
      "name": "NotEligible",
      "type": "error"
    },
    {
      "inputs": [],
      "name": "NotPendingAdmin",
      "type": "error"
    },
    {
      "inputs": [],
      "name": "ProofDeadlineBeforeEnd",
      "type": "error"
    },
    {
      "inputs": [],
      "name": "ProofNotOpen",
      "type": "error"
    },
    {
      "inputs": [],
      "name": "ProofWindowClosed",
      "type": "error"
    },
    {
      "inputs": [],
      "name": "ReentrancyGuardReentrantCall",
      "type": "error"
    },
    {
      "inputs": [],
      "name": "StartTooSoon",
      "type": "error"
    },
    {
      "inputs": [],
      "name": "TightenOnlyViolation",
      "type": "error"
    },
    {
      "inputs": [],
      "name": "TokenNotAllowed",
      "type": "error"
    },
    {
      "inputs": [],
      "name": "WrongMsgValue",
      "type": "error"
    },
    {
      "inputs": [],
      "name": "ZeroAddress",
      "type": "error"
    },
    {
      "anonymous": false,
      "inputs": [
        {
          "indexed": true,
          "internalType": "address",
          "name": "oldAdmin",
          "type": "address"
        },
        {
          "indexed": true,
          "internalType": "address",
          "name": "newAdmin",
          "type": "address"
        }
      ],
      "name": "AdminTransferAccepted",
      "type": "event"
    },
    {
      "anonymous": false,
      "inputs": [
        {
          "indexed": true,
          "internalType": "address",
          "name": "oldAdmin",
          "type": "address"
        },
        {
          "indexed": true,
          "internalType": "address",
          "name": "newPendingAdmin",
          "type": "address"
        }
      ],
      "name": "AdminTransferStarted",
      "type": "event"
    },
    {
      "anonymous": false,
      "inputs": [
        {
          "indexed": true,
          "internalType": "uint256",
          "name": "id",
          "type": "uint256"
        },
        {
          "indexed": false,
          "internalType": "uint256",
          "name": "winnersCount",
          "type": "uint256"
        },
        {
          "indexed": false,
          "internalType": "uint256",
          "name": "losersCount",
          "type": "uint256"
        }
      ],
      "name": "AutoDistributed",
      "type": "event"
    },
    {
      "anonymous": false,
      "inputs": [
        {
          "indexed": true,
          "internalType": "uint256",
          "name": "id",
          "type": "uint256"
        },
        {
          "indexed": false,
          "internalType": "uint256",
          "name": "count",
          "type": "uint256"
        }
      ],
      "name": "AutoRefunded",
      "type": "event"
    },
    {
      "anonymous": false,
      "inputs": [
        {
          "indexed": true,
          "internalType": "uint256",
          "name": "id",
          "type": "uint256"
        }
      ],
      "name": "Canceled",
      "type": "event"
    },
    {
      "anonymous": false,
      "inputs": [
        {
          "indexed": true,
          "internalType": "uint256",
          "name": "id",
          "type": "uint256"
        },
        {
          "indexed": true,
          "internalType": "address",
          "name": "creator",
          "type": "address"
        },
        {
          "indexed": false,
          "internalType": "uint8",
          "name": "kind",
          "type": "uint8"
        },
        {
          "indexed": false,
          "internalType": "uint8",
          "name": "currency",
          "type": "uint8"
        },
        {
          "indexed": false,
          "internalType": "address",
          "name": "token",
          "type": "address"
        },
        {
          "indexed": false,
          "internalType": "uint256",
          "name": "startTs",
          "type": "uint256"
        },
        {
          "indexed": false,
          "internalType": "bytes32",
          "name": "externalId",
          "type": "bytes32"
        }
      ],
      "name": "ChallengeCreated",
      "type": "event"
    },
    {
      "anonymous": false,
      "inputs": [
        {
          "indexed": true,
          "internalType": "address",
          "name": "creator",
          "type": "address"
        },
        {
          "indexed": false,
          "internalType": "bool",
          "name": "allowed",
          "type": "bool"
        }
      ],
      "name": "CreatorAllowed",
      "type": "event"
    },
    {
      "anonymous": false,
      "inputs": [
        {
          "indexed": false,
          "internalType": "bool",
          "name": "enabled",
          "type": "bool"
        }
      ],
      "name": "CreatorAllowlistSet",
      "type": "event"
    },
    {
      "anonymous": false,
      "inputs": [
        {
          "indexed": true,
          "internalType": "address",
          "name": "addr",
          "type": "address"
        },
        {
          "indexed": false,
          "internalType": "bool",
          "name": "enabled",
          "type": "bool"
        }
      ],
      "name": "DispatcherSet",
      "type": "event"
    },
    {
      "anonymous": false,
      "inputs": [
        {
          "indexed": false,
          "internalType": "uint16",
          "name": "forfeitFeeMaxBps",
          "type": "uint16"
        },
        {
          "indexed": false,
          "internalType": "uint16",
          "name": "cashbackMaxBps",
          "type": "uint16"
        }
      ],
      "name": "FeeCapsSet",
      "type": "event"
    },
    {
      "anonymous": false,
      "inputs": [
        {
          "indexed": false,
          "internalType": "uint16",
          "name": "forfeitFeeBps",
          "type": "uint16"
        },
        {
          "indexed": false,
          "internalType": "uint16",
          "name": "protocolBps",
          "type": "uint16"
        },
        {
          "indexed": false,
          "internalType": "uint16",
          "name": "creatorBps",
          "type": "uint16"
        },
        {
          "indexed": false,
          "internalType": "uint16",
          "name": "cashbackBps",
          "type": "uint16"
        }
      ],
      "name": "FeeConfigSet",
      "type": "event"
    },
    {
      "anonymous": false,
      "inputs": [
        {
          "indexed": true,
          "internalType": "uint256",
          "name": "id",
          "type": "uint256"
        },
        {
          "indexed": false,
          "internalType": "uint256",
          "name": "protocolAmt",
          "type": "uint256"
        },
        {
          "indexed": false,
          "internalType": "uint256",
          "name": "creatorAmt",
          "type": "uint256"
        },
        {
          "indexed": false,
          "internalType": "uint256",
          "name": "cashback",
          "type": "uint256"
        }
      ],
      "name": "FeesBooked",
      "type": "event"
    },
    {
      "anonymous": false,
      "inputs": [
        {
          "indexed": true,
          "internalType": "uint256",
          "name": "id",
          "type": "uint256"
        },
        {
          "indexed": false,
          "internalType": "uint8",
          "name": "status",
          "type": "uint8"
        },
        {
          "indexed": false,
          "internalType": "uint8",
          "name": "outcome",
          "type": "uint8"
        }
      ],
      "name": "Finalized",
      "type": "event"
    },
    {
      "anonymous": false,
      "inputs": [
        {
          "indexed": false,
          "internalType": "bool",
          "name": "paused",
          "type": "bool"
        }
      ],
      "name": "GlobalPaused",
      "type": "event"
    },
    {
      "anonymous": false,
      "inputs": [
        {
          "indexed": true,
          "internalType": "uint256",
          "name": "id",
          "type": "uint256"
        },
        {
          "indexed": true,
          "internalType": "address",
          "name": "user",
          "type": "address"
        },
        {
          "indexed": false,
          "internalType": "uint256",
          "name": "amount",
          "type": "uint256"
        }
      ],
      "name": "Joined",
      "type": "event"
    },
    {
      "anonymous": false,
      "inputs": [
        {
          "indexed": false,
          "internalType": "uint256",
          "name": "minLeadTime",
          "type": "uint256"
        },
        {
          "indexed": false,
          "internalType": "uint256",
          "name": "maxLeadTime",
          "type": "uint256"
        }
      ],
      "name": "LeadTimeBoundsSet",
      "type": "event"
    },
    {
      "anonymous": false,
      "inputs": [
        {
          "indexed": true,
          "internalType": "uint256",
          "name": "id",
          "type": "uint256"
        },
        {
          "indexed": true,
          "internalType": "address",
          "name": "user",
          "type": "address"
        },
        {
          "indexed": false,
          "internalType": "uint256",
          "name": "amount",
          "type": "uint256"
        }
      ],
      "name": "LoserClaimed",
      "type": "event"
    },
    {
      "anonymous": false,
      "inputs": [
        {
          "indexed": false,
          "internalType": "uint256",
          "name": "minStake",
          "type": "uint256"
        }
      ],
      "name": "MinStakeSet",
      "type": "event"
    },
    {
      "anonymous": false,
      "inputs": [
        {
          "indexed": true,
          "internalType": "uint256",
          "name": "id",
          "type": "uint256"
        },
        {
          "indexed": true,
          "internalType": "address",
          "name": "participant",
          "type": "address"
        },
        {
          "indexed": true,
          "internalType": "address",
          "name": "verifier",
          "type": "address"
        },
        {
          "indexed": false,
          "internalType": "bool",
          "name": "ok",
          "type": "bool"
        }
      ],
      "name": "ParticipantProofSubmitted",
      "type": "event"
    },
    {
      "anonymous": false,
      "inputs": [
        {
          "indexed": true,
          "internalType": "uint256",
          "name": "id",
          "type": "uint256"
        },
        {
          "indexed": false,
          "internalType": "bool",
          "name": "paused",
          "type": "bool"
        }
      ],
      "name": "Paused",
      "type": "event"
    },
    {
      "anonymous": false,
      "inputs": [
        {
          "indexed": false,
          "internalType": "bool",
          "name": "enabled",
          "type": "bool"
        }
      ],
      "name": "ProofTightenOnlySet",
      "type": "event"
    },
    {
      "anonymous": false,
      "inputs": [
        {
          "indexed": true,
          "internalType": "uint256",
          "name": "id",
          "type": "uint256"
        },
        {
          "indexed": true,
          "internalType": "address",
          "name": "user",
          "type": "address"
        },
        {
          "indexed": false,
          "internalType": "uint256",
          "name": "amount",
          "type": "uint256"
        }
      ],
      "name": "RefundClaimed",
      "type": "event"
    },
    {
      "anonymous": false,
      "inputs": [
        {
          "indexed": true,
          "internalType": "uint256",
          "name": "id",
          "type": "uint256"
        },
        {
          "indexed": false,
          "internalType": "bool",
          "name": "success",
          "type": "bool"
        }
      ],
      "name": "SnapshotSet",
      "type": "event"
    },
    {
      "anonymous": false,
      "inputs": [
        {
          "indexed": true,
          "internalType": "address",
          "name": "token",
          "type": "address"
        },
        {
          "indexed": false,
          "internalType": "bool",
          "name": "allowed",
          "type": "bool"
        }
      ],
      "name": "TokenAllowed",
      "type": "event"
    },
    {
      "anonymous": false,
      "inputs": [
        {
          "indexed": false,
          "internalType": "bool",
          "name": "enabled",
          "type": "bool"
        }
      ],
      "name": "TokenAllowlistSet",
      "type": "event"
    },
    {
      "anonymous": false,
      "inputs": [
        {
          "indexed": true,
          "internalType": "address",
          "name": "forwarder",
          "type": "address"
        }
      ],
      "name": "TrustedForwarderSet",
      "type": "event"
    },
    {
      "anonymous": false,
      "inputs": [
        {
          "indexed": true,
          "internalType": "uint256",
          "name": "id",
          "type": "uint256"
        },
        {
          "indexed": false,
          "internalType": "address",
          "name": "verifier",
          "type": "address"
        },
        {
          "indexed": false,
          "internalType": "uint256",
          "name": "proofDeadlineTs",
          "type": "uint256"
        }
      ],
      "name": "VerificationConfigUpdated",
      "type": "event"
    },
    {
      "anonymous": false,
      "inputs": [
        {
          "indexed": true,
          "internalType": "uint256",
          "name": "id",
          "type": "uint256"
        },
        {
          "indexed": true,
          "internalType": "address",
          "name": "user",
          "type": "address"
        },
        {
          "indexed": false,
          "internalType": "uint256",
          "name": "amount",
          "type": "uint256"
        }
      ],
      "name": "WinnerClaimed",
      "type": "event"
    },
    {
      "anonymous": false,
      "inputs": [
        {
          "indexed": true,
          "internalType": "uint256",
          "name": "id",
          "type": "uint256"
        },
        {
          "indexed": true,
          "internalType": "address",
          "name": "participant",
          "type": "address"
        },
        {
          "indexed": false,
          "internalType": "uint256",
          "name": "contrib",
          "type": "uint256"
        },
        {
          "indexed": false,
          "internalType": "uint256",
          "name": "winnersPool",
          "type": "uint256"
        },
        {
          "indexed": false,
          "internalType": "uint32",
          "name": "winnersCount",
          "type": "uint32"
        }
      ],
      "name": "WinnerMarked",
      "type": "event"
    },
    {
      "inputs": [],
      "name": "acceptAdmin",
      "outputs": [],
      "stateMutability": "nonpayable",
      "type": "function"
    },
    {
      "inputs": [],
      "name": "admin",
      "outputs": [
        {
          "internalType": "address",
          "name": "",
          "type": "address"
        }
      ],
      "stateMutability": "view",
      "type": "function"
    },
    {
      "inputs": [
        {
          "internalType": "address",
          "name": "",
          "type": "address"
        }
      ],
      "name": "allowedToken",
      "outputs": [
        {
          "internalType": "bool",
          "name": "",
          "type": "bool"
        }
      ],
      "stateMutability": "view",
      "type": "function"
    },
    {
      "inputs": [
        {
          "internalType": "uint256",
          "name": "id",
          "type": "uint256"
        },
        {
          "internalType": "address[]",
          "name": "winners",
          "type": "address[]"
        },
        {
          "internalType": "address[]",
          "name": "losers",
          "type": "address[]"
        }
      ],
      "name": "autoDistribute",
      "outputs": [],
      "stateMutability": "nonpayable",
      "type": "function"
    },
    {
      "inputs": [
        {
          "internalType": "uint256",
          "name": "id",
          "type": "uint256"
        },
        {
          "internalType": "address[]",
          "name": "participants",
          "type": "address[]"
        }
      ],
      "name": "autoRefund",
      "outputs": [],
      "stateMutability": "nonpayable",
      "type": "function"
    },
    {
      "inputs": [
        {
          "internalType": "uint256",
          "name": "id",
          "type": "uint256"
        }
      ],
      "name": "cancelChallenge",
      "outputs": [],
      "stateMutability": "nonpayable",
      "type": "function"
    },
    {
      "inputs": [
        {
          "internalType": "uint256",
          "name": "",
          "type": "uint256"
        }
      ],
      "name": "cancelRefundStaged",
      "outputs": [
        {
          "internalType": "bool",
          "name": "",
          "type": "bool"
        }
      ],
      "stateMutability": "view",
      "type": "function"
    },
    {
      "inputs": [
        {
          "internalType": "uint256",
          "name": "id",
          "type": "uint256"
        }
      ],
      "name": "claimLoser",
      "outputs": [],
      "stateMutability": "nonpayable",
      "type": "function"
    },
    {
      "inputs": [
        {
          "internalType": "uint256",
          "name": "id",
          "type": "uint256"
        }
      ],
      "name": "claimRefund",
      "outputs": [],
      "stateMutability": "nonpayable",
      "type": "function"
    },
    {
      "inputs": [
        {
          "internalType": "uint256",
          "name": "id",
          "type": "uint256"
        }
      ],
      "name": "claimWinner",
      "outputs": [],
      "stateMutability": "nonpayable",
      "type": "function"
    },
    {
      "inputs": [
        {
          "internalType": "uint256",
          "name": "id",
          "type": "uint256"
        },
        {
          "internalType": "address",
          "name": "user",
          "type": "address"
        }
      ],
      "name": "contribOf",
      "outputs": [
        {
          "internalType": "uint256",
          "name": "",
          "type": "uint256"
        }
      ],
      "stateMutability": "view",
      "type": "function"
    },
    {
      "inputs": [
        {
          "components": [
            {
              "internalType": "uint8",
              "name": "kind",
              "type": "uint8"
            },
            {
              "internalType": "enum ChallengePay.Currency",
              "name": "currency",
              "type": "uint8"
            },
            {
              "internalType": "address",
              "name": "token",
              "type": "address"
            },
            {
              "internalType": "uint256",
              "name": "stakeAmount",
              "type": "uint256"
            },
            {
              "internalType": "uint256",
              "name": "joinClosesTs",
              "type": "uint256"
            },
            {
              "internalType": "uint256",
              "name": "startTs",
              "type": "uint256"
            },
            {
              "internalType": "uint256",
              "name": "duration",
              "type": "uint256"
            },
            {
              "internalType": "uint256",
              "name": "maxParticipants",
              "type": "uint256"
            },
            {
              "internalType": "address",
              "name": "verifier",
              "type": "address"
            },
            {
              "internalType": "uint256",
              "name": "proofDeadlineTs",
              "type": "uint256"
            },
            {
              "internalType": "bytes32",
              "name": "externalId",
              "type": "bytes32"
            }
          ],
          "internalType": "struct ChallengePay.CreateParams",
          "name": "p",
          "type": "tuple"
        }
      ],
      "name": "createChallenge",
      "outputs": [
        {
          "internalType": "uint256",
          "name": "id",
          "type": "uint256"
        }
      ],
      "stateMutability": "payable",
      "type": "function"
    },
    {
      "inputs": [
        {
          "internalType": "address",
          "name": "",
          "type": "address"
        }
      ],
      "name": "creatorAllowed",
      "outputs": [
        {
          "internalType": "bool",
          "name": "",
          "type": "bool"
        }
      ],
      "stateMutability": "view",
      "type": "function"
    },
    {
      "inputs": [
        {
          "internalType": "address",
          "name": "",
          "type": "address"
        }
      ],
      "name": "dispatchers",
      "outputs": [
        {
          "internalType": "bool",
          "name": "",
          "type": "bool"
        }
      ],
      "stateMutability": "view",
      "type": "function"
    },
    {
      "inputs": [
        {
          "internalType": "uint256",
          "name": "",
          "type": "uint256"
        }
      ],
      "name": "externalIdOf",
      "outputs": [
        {
          "internalType": "bytes32",
          "name": "",
          "type": "bytes32"
        }
      ],
      "stateMutability": "view",
      "type": "function"
    },
    {
      "inputs": [
        {
          "internalType": "bytes32",
          "name": "",
          "type": "bytes32"
        }
      ],
      "name": "externalIdUsed",
      "outputs": [
        {
          "internalType": "bool",
          "name": "",
          "type": "bool"
        }
      ],
      "stateMutability": "view",
      "type": "function"
    },
    {
      "inputs": [],
      "name": "feeCaps",
      "outputs": [
        {
          "internalType": "uint16",
          "name": "forfeitFeeMaxBps",
          "type": "uint16"
        },
        {
          "internalType": "uint16",
          "name": "cashbackMaxBps",
          "type": "uint16"
        }
      ],
      "stateMutability": "view",
      "type": "function"
    },
    {
      "inputs": [],
      "name": "feeConfig",
      "outputs": [
        {
          "internalType": "uint16",
          "name": "forfeitFeeBps",
          "type": "uint16"
        },
        {
          "internalType": "uint16",
          "name": "protocolBps",
          "type": "uint16"
        },
        {
          "internalType": "uint16",
          "name": "creatorBps",
          "type": "uint16"
        },
        {
          "internalType": "uint16",
          "name": "cashbackBps",
          "type": "uint16"
        }
      ],
      "stateMutability": "view",
      "type": "function"
    },
    {
      "inputs": [
        {
          "internalType": "uint256",
          "name": "id",
          "type": "uint256"
        }
      ],
      "name": "finalize",
      "outputs": [],
      "stateMutability": "nonpayable",
      "type": "function"
    },
    {
      "inputs": [
        {
          "internalType": "uint256",
          "name": "id",
          "type": "uint256"
        }
      ],
      "name": "getChallenge",
      "outputs": [
        {
          "components": [
            {
              "internalType": "uint256",
              "name": "id",
              "type": "uint256"
            },
            {
              "internalType": "uint8",
              "name": "kind",
              "type": "uint8"
            },
            {
              "internalType": "uint8",
              "name": "status",
              "type": "uint8"
            },
            {
              "internalType": "uint8",
              "name": "outcome",
              "type": "uint8"
            },
            {
              "internalType": "address",
              "name": "creator",
              "type": "address"
            },
            {
              "internalType": "uint8",
              "name": "currency",
              "type": "uint8"
            },
            {
              "internalType": "address",
              "name": "token",
              "type": "address"
            },
            {
              "internalType": "uint256",
              "name": "stake",
              "type": "uint256"
            },
            {
              "internalType": "uint256",
              "name": "joinClosesTs",
              "type": "uint256"
            },
            {
              "internalType": "uint256",
              "name": "startTs",
              "type": "uint256"
            },
            {
              "internalType": "uint256",
              "name": "duration",
              "type": "uint256"
            },
            {
              "internalType": "uint256",
              "name": "maxParticipants",
              "type": "uint256"
            },
            {
              "internalType": "uint256",
              "name": "pool",
              "type": "uint256"
            },
            {
              "internalType": "uint256",
              "name": "participantsCount",
              "type": "uint256"
            },
            {
              "internalType": "address",
              "name": "verifier",
              "type": "address"
            },
            {
              "internalType": "uint256",
              "name": "proofDeadlineTs",
              "type": "uint256"
            },
            {
              "internalType": "uint32",
              "name": "winnersCount",
              "type": "uint32"
            },
            {
              "internalType": "uint256",
              "name": "winnersPool",
              "type": "uint256"
            },
            {
              "internalType": "bool",
              "name": "paused",
              "type": "bool"
            },
            {
              "internalType": "bool",
              "name": "canceled",
              "type": "bool"
            },
            {
              "internalType": "bool",
              "name": "payoutsDone",
              "type": "bool"
            }
          ],
          "internalType": "struct ChallengePay.ChallengeView",
          "name": "out",
          "type": "tuple"
        }
      ],
      "stateMutability": "view",
      "type": "function"
    },
    {
      "inputs": [
        {
          "internalType": "uint256",
          "name": "id",
          "type": "uint256"
        }
      ],
      "name": "getSnapshot",
      "outputs": [
        {
          "components": [
            {
              "internalType": "bool",
              "name": "set",
              "type": "bool"
            },
            {
              "internalType": "bool",
              "name": "success",
              "type": "bool"
            },
            {
              "internalType": "uint256",
              "name": "committedPool",
              "type": "uint256"
            },
            {
              "internalType": "uint256",
              "name": "forfeitedPool",
              "type": "uint256"
            },
            {
              "internalType": "uint256",
              "name": "cashback",
              "type": "uint256"
            },
            {
              "internalType": "uint256",
              "name": "forfeitedAfterCashback",
              "type": "uint256"
            },
            {
              "internalType": "uint256",
              "name": "protocolAmt",
              "type": "uint256"
            },
            {
              "internalType": "uint256",
              "name": "creatorAmt",
              "type": "uint256"
            },
            {
              "internalType": "uint256",
              "name": "perCommittedBonusX",
              "type": "uint256"
            },
            {
              "internalType": "uint256",
              "name": "perCashbackX",
              "type": "uint256"
            }
          ],
          "internalType": "struct ChallengePay.SnapshotView",
          "name": "out",
          "type": "tuple"
        }
      ],
      "stateMutability": "view",
      "type": "function"
    },
    {
      "inputs": [],
      "name": "globalPaused",
      "outputs": [
        {
          "internalType": "bool",
          "name": "",
          "type": "bool"
        }
      ],
      "stateMutability": "view",
      "type": "function"
    },
    {
      "inputs": [
        {
          "internalType": "bytes32",
          "name": "",
          "type": "bytes32"
        }
      ],
      "name": "idByExternalId",
      "outputs": [
        {
          "internalType": "uint256",
          "name": "",
          "type": "uint256"
        }
      ],
      "stateMutability": "view",
      "type": "function"
    },
    {
      "inputs": [
        {
          "internalType": "address",
          "name": "fwd",
          "type": "address"
        }
      ],
      "name": "isTrustedForwarder",
      "outputs": [
        {
          "internalType": "bool",
          "name": "",
          "type": "bool"
        }
      ],
      "stateMutability": "view",
      "type": "function"
    },
    {
      "inputs": [
        {
          "internalType": "uint256",
          "name": "id",
          "type": "uint256"
        },
        {
          "internalType": "address",
          "name": "user",
          "type": "address"
        }
      ],
      "name": "isWinner",
      "outputs": [
        {
          "internalType": "bool",
          "name": "",
          "type": "bool"
        }
      ],
      "stateMutability": "view",
      "type": "function"
    },
    {
      "inputs": [
        {
          "internalType": "uint256",
          "name": "id",
          "type": "uint256"
        },
        {
          "internalType": "uint256",
          "name": "amount",
          "type": "uint256"
        }
      ],
      "name": "joinChallengeERC20",
      "outputs": [],
      "stateMutability": "nonpayable",
      "type": "function"
    },
    {
      "inputs": [
        {
          "internalType": "uint256",
          "name": "id",
          "type": "uint256"
        },
        {
          "internalType": "uint256",
          "name": "amount",
          "type": "uint256"
        },
        {
          "internalType": "uint256",
          "name": "deadline",
          "type": "uint256"
        },
        {
          "internalType": "uint8",
          "name": "v",
          "type": "uint8"
        },
        {
          "internalType": "bytes32",
          "name": "r",
          "type": "bytes32"
        },
        {
          "internalType": "bytes32",
          "name": "s",
          "type": "bytes32"
        }
      ],
      "name": "joinChallengeERC20WithPermit",
      "outputs": [],
      "stateMutability": "nonpayable",
      "type": "function"
    },
    {
      "inputs": [
        {
          "internalType": "uint256",
          "name": "id",
          "type": "uint256"
        }
      ],
      "name": "joinChallengeNative",
      "outputs": [],
      "stateMutability": "payable",
      "type": "function"
    },
    {
      "inputs": [],
      "name": "maxLeadTime",
      "outputs": [
        {
          "internalType": "uint256",
          "name": "",
          "type": "uint256"
        }
      ],
      "stateMutability": "view",
      "type": "function"
    },
    {
      "inputs": [],
      "name": "minLeadTime",
      "outputs": [
        {
          "internalType": "uint256",
          "name": "",
          "type": "uint256"
        }
      ],
      "stateMutability": "view",
      "type": "function"
    },
    {
      "inputs": [],
      "name": "minStake",
      "outputs": [
        {
          "internalType": "uint256",
          "name": "",
          "type": "uint256"
        }
      ],
      "stateMutability": "view",
      "type": "function"
    },
    {
      "inputs": [],
      "name": "nextChallengeId",
      "outputs": [
        {
          "internalType": "uint256",
          "name": "",
          "type": "uint256"
        }
      ],
      "stateMutability": "view",
      "type": "function"
    },
    {
      "inputs": [
        {
          "internalType": "bool",
          "name": "paused",
          "type": "bool"
        }
      ],
      "name": "pauseAll",
      "outputs": [],
      "stateMutability": "nonpayable",
      "type": "function"
    },
    {
      "inputs": [
        {
          "internalType": "uint256",
          "name": "id",
          "type": "uint256"
        },
        {
          "internalType": "bool",
          "name": "paused_",
          "type": "bool"
        }
      ],
      "name": "pauseChallenge",
      "outputs": [],
      "stateMutability": "nonpayable",
      "type": "function"
    },
    {
      "inputs": [],
      "name": "pendingAdmin",
      "outputs": [
        {
          "internalType": "address",
          "name": "",
          "type": "address"
        }
      ],
      "stateMutability": "view",
      "type": "function"
    },
    {
      "inputs": [],
      "name": "proofTightenOnly",
      "outputs": [
        {
          "internalType": "bool",
          "name": "",
          "type": "bool"
        }
      ],
      "stateMutability": "view",
      "type": "function"
    },
    {
      "inputs": [],
      "name": "protocol",
      "outputs": [
        {
          "internalType": "address",
          "name": "",
          "type": "address"
        }
      ],
      "stateMutability": "view",
      "type": "function"
    },
    {
      "inputs": [
        {
          "internalType": "uint256",
          "name": "",
          "type": "uint256"
        },
        {
          "internalType": "address",
          "name": "",
          "type": "address"
        }
      ],
      "name": "refundClaimed",
      "outputs": [
        {
          "internalType": "bool",
          "name": "",
          "type": "bool"
        }
      ],
      "stateMutability": "view",
      "type": "function"
    },
    {
      "inputs": [
        {
          "internalType": "address",
          "name": "creator",
          "type": "address"
        },
        {
          "internalType": "bool",
          "name": "allowed",
          "type": "bool"
        }
      ],
      "name": "setCreatorAllowed",
      "outputs": [],
      "stateMutability": "nonpayable",
      "type": "function"
    },
    {
      "inputs": [
        {
          "internalType": "address",
          "name": "addr",
          "type": "address"
        },
        {
          "internalType": "bool",
          "name": "enabled",
          "type": "bool"
        }
      ],
      "name": "setDispatcher",
      "outputs": [],
      "stateMutability": "nonpayable",
      "type": "function"
    },
    {
      "inputs": [
        {
          "components": [
            {
              "internalType": "uint16",
              "name": "forfeitFeeMaxBps",
              "type": "uint16"
            },
            {
              "internalType": "uint16",
              "name": "cashbackMaxBps",
              "type": "uint16"
            }
          ],
          "internalType": "struct ChallengePay.FeeCaps",
          "name": "caps",
          "type": "tuple"
        }
      ],
      "name": "setFeeCaps",
      "outputs": [],
      "stateMutability": "nonpayable",
      "type": "function"
    },
    {
      "inputs": [
        {
          "components": [
            {
              "internalType": "uint16",
              "name": "forfeitFeeBps",
              "type": "uint16"
            },
            {
              "internalType": "uint16",
              "name": "protocolBps",
              "type": "uint16"
            },
            {
              "internalType": "uint16",
              "name": "creatorBps",
              "type": "uint16"
            },
            {
              "internalType": "uint16",
              "name": "cashbackBps",
              "type": "uint16"
            }
          ],
          "internalType": "struct ChallengePay.FeeConfig",
          "name": "f",
          "type": "tuple"
        }
      ],
      "name": "setFeeConfig",
      "outputs": [],
      "stateMutability": "nonpayable",
      "type": "function"
    },
    {
      "inputs": [
        {
          "internalType": "uint256",
          "name": "minSec",
          "type": "uint256"
        },
        {
          "internalType": "uint256",
          "name": "maxSec",
          "type": "uint256"
        }
      ],
      "name": "setLeadTimeBounds",
      "outputs": [],
      "stateMutability": "nonpayable",
      "type": "function"
    },
    {
      "inputs": [
        {
          "internalType": "uint256",
          "name": "_minStake",
          "type": "uint256"
        }
      ],
      "name": "setMinStake",
      "outputs": [],
      "stateMutability": "nonpayable",
      "type": "function"
    },
    {
      "inputs": [
        {
          "internalType": "bool",
          "name": "enabled",
          "type": "bool"
        }
      ],
      "name": "setProofTightenOnly",
      "outputs": [],
      "stateMutability": "nonpayable",
      "type": "function"
    },
    {
      "inputs": [
        {
          "internalType": "address",
          "name": "token",
          "type": "address"
        },
        {
          "internalType": "bool",
          "name": "allowed",
          "type": "bool"
        }
      ],
      "name": "setTokenAllowed",
      "outputs": [],
      "stateMutability": "nonpayable",
      "type": "function"
    },
    {
      "inputs": [
        {
          "internalType": "address",
          "name": "fwd",
          "type": "address"
        }
      ],
      "name": "setTrustedForwarder",
      "outputs": [],
      "stateMutability": "nonpayable",
      "type": "function"
    },
    {
      "inputs": [
        {
          "internalType": "bool",
          "name": "enabled",
          "type": "bool"
        }
      ],
      "name": "setUseCreatorAllowlist",
      "outputs": [],
      "stateMutability": "nonpayable",
      "type": "function"
    },
    {
      "inputs": [
        {
          "internalType": "bool",
          "name": "enabled",
          "type": "bool"
        }
      ],
      "name": "setUseTokenAllowlist",
      "outputs": [],
      "stateMutability": "nonpayable",
      "type": "function"
    },
    {
      "inputs": [
        {
          "internalType": "uint256",
          "name": "id",
          "type": "uint256"
        },
        {
          "internalType": "address",
          "name": "verifier",
          "type": "address"
        },
        {
          "internalType": "uint256",
          "name": "proofDeadlineTs",
          "type": "uint256"
        }
      ],
      "name": "setVerificationConfig",
      "outputs": [],
      "stateMutability": "nonpayable",
      "type": "function"
    },
    {
      "inputs": [
        {
          "internalType": "uint256",
          "name": "id",
          "type": "uint256"
        },
        {
          "internalType": "bytes",
          "name": "proof",
          "type": "bytes"
        }
      ],
      "name": "submitMyProof",
      "outputs": [],
      "stateMutability": "nonpayable",
      "type": "function"
    },
    {
      "inputs": [
        {
          "internalType": "uint256",
          "name": "id",
          "type": "uint256"
        },
        {
          "internalType": "bytes",
          "name": "proof",
          "type": "bytes"
        }
      ],
      "name": "submitMyProofMeta",
      "outputs": [],
      "stateMutability": "nonpayable",
      "type": "function"
    },
    {
      "inputs": [
        {
          "internalType": "uint256",
          "name": "id",
          "type": "uint256"
        },
        {
          "internalType": "address",
          "name": "participant",
          "type": "address"
        },
        {
          "internalType": "bytes",
          "name": "proof",
          "type": "bytes"
        }
      ],
      "name": "submitProofFor",
      "outputs": [],
      "stateMutability": "nonpayable",
      "type": "function"
    },
    {
      "inputs": [
        {
          "internalType": "uint256",
          "name": "id",
          "type": "uint256"
        },
        {
          "internalType": "address[]",
          "name": "participants",
          "type": "address[]"
        },
        {
          "internalType": "bytes[]",
          "name": "proofs",
          "type": "bytes[]"
        }
      ],
      "name": "submitProofForBatch",
      "outputs": [],
      "stateMutability": "nonpayable",
      "type": "function"
    },
    {
      "inputs": [
        {
          "internalType": "address",
          "name": "newPendingAdmin",
          "type": "address"
        }
      ],
      "name": "transferAdmin",
      "outputs": [],
      "stateMutability": "nonpayable",
      "type": "function"
    },
    {
      "inputs": [],
      "name": "treasury",
      "outputs": [
        {
          "internalType": "address",
          "name": "",
          "type": "address"
        }
      ],
      "stateMutability": "view",
      "type": "function"
    },
    {
      "inputs": [],
      "name": "trustedForwarder",
      "outputs": [
        {
          "internalType": "address",
          "name": "",
          "type": "address"
        }
      ],
      "stateMutability": "view",
      "type": "function"
    },
    {
      "inputs": [],
      "name": "useCreatorAllowlist",
      "outputs": [
        {
          "internalType": "bool",
          "name": "",
          "type": "bool"
        }
      ],
      "stateMutability": "view",
      "type": "function"
    },
    {
      "inputs": [],
      "name": "useTokenAllowlist",
      "outputs": [
        {
          "internalType": "bool",
          "name": "",
          "type": "bool"
        }
      ],
      "stateMutability": "view",
      "type": "function"
    }
  ],
  "transactionHash": "0xde2f4c53ea15c456d316b12b64a04a5a6998c5aa32423e2ed1fb0479da0369d4",
  "args": [
    "0xe84c197614d4fAAE1CdA8d6067fFe43befD9e961",
    "0x95A4CE3c93dBcDb9b3CdFb4CCAE6EFBDb4cCA217"
  ],
  "numDeployments": 3,
  "solcInputHash": "7e1efdd8e8efc29afbcfff86d4773b8d",
  "bytecode": "0x60c0346200013957601f62003daa38819003918201601f19168301916001600160401b038311848410176200013e57808492604094855283398101031262000139576200005a6020620000528362000154565b920162000154565b6001600055906001600160a01b03808216159081156200012d575b506200011b5760805260a052600180546001600160a01b03191633179055603c6006556301e133806007556002601255604051613c4090816200016a823960805181818161099201528181610a7001528181610add01528181610fb8015281816116fd01528181611c810152818161221801528181613528015281816135ba015281816139f10152613ae9015260a0518181816110ea0152818161301c01526130680152f35b60405163d92e233d60e01b8152600490fd5b90508216153862000075565b600080fd5b634e487b7160e01b600052604160045260246000fd5b51906001600160a01b0382168203620001395756fe6080604052600436101561001257600080fd5b6000803560e01c806305261aea14612cdd578063057b09c614612cba57806306b2814114612b785780630e18b68114612afc57806315f6901214612a785780631bdd4b74146127355780631e5eb1d0146126e857806322989747146125a557806325f39b421461253a57806326782247146125115780632c5f2992146124ae5780633548f2791461231a57806335581fe214612198578063375b3c0a1461217a57806339139efc1461213b5780633cadc94a14612111578063428509ab146120145780634429686214611fa9578063547679af14611f7f578063572b6c0514611f51578063579b2fdf14611d4c578063581fa02e14611c0a5780635ab9f41314611be75780635b7baf6414611ada5780635d6dc677146117705780635e5727021461175257806361a552dc1461172c57806361d027b3146116e757806364be886414611622578063670c56f4146115b75780636e484a0d1461151c578063756742f8146114dd57806375829def1461146b57806376f10ad014611330578063775a89e3146112ff5780637cac41a61461128a5780637d8022c01461123e5780637da0a877146112155780637e864798146111f2578063876244b6146111735780638c80fd90146111195780638ce74426146110d457806398879cf214610f1c5780639b10380614610e985780639f3a3a6714610e7a578063a41483e314610d44578063b1be188f14610d15578063b380132b14610ce6578063bdd415af14610c97578063be96ecaa14610611578063c3887ad7146104a3578063ca1befd3146102ef578063d74879de14610421578063da7422281461039f578063df3b1a5114610355578063e4fd268d14610316578063f42efdb8146102ef578063f851a440146102c65763fc67aa50146102a657600080fd5b346102c357806003193601126102c3576020601254604051908152f35b80fd5b50346102c357806003193601126102c3576001546040516001600160a01b039091168152602090f35b50346102c35761030f61030136613295565b9161030a6134bc565b613499565b6001815580f35b50346102c35760203660031901126102c35760209060ff906040906001600160a01b03610341613181565b168152600d84522054166040519015158152f35b50346102c35760403660031901126102c357600f604061037361319c565b926004358152601360205220019060018060a01b03166000526020526020604060002054604051908152f35b50346102c35760203660031901126102c3576103b9613181565b6001546001600160a01b0391908216330361040f5716806bffffffffffffffffffffffff60a01b60035416176003557fd91237492a9e30cd2faf361fc103998a382ff0ec2b1b07dc1cbebb76ae2f1ea28280a280f35b604051637bfa4b9f60e01b8152600490fd5b50346102c35760403660031901126102c35760043561043e6131b2565b6001546001600160a01b0316330361040f5760207f4c1b01967accb6c54a1cfd9474e902600feebb01f9b039c1481f0bc793ec6a58918385526013825261049781600e60408820019060ff801983541691151516179055565b6040519015158152a280f35b50346102c35760208060031936011261060d576004356104c16134bc565b60ff60025460a01c166105fb576104d66134df565b9181845260148152604084209060ff825416156105e95782855260138152604085209160018060a01b0390818616958660005260118501845260ff60406000205416156105e95786600052600f850184526040600020549485156105e95760098301958860005286865260ff604060002054166105e9577fb0173ebd95794ed5522fe7662b11854f3af313ced7aaa9a4050de681ea600dcb968960005286526040600020600160ff19825416179055600781940154806105bf575b5050826105b19394600260ff600185015460b81c1693015416928861350e565b604051908152a36001815580f35b6105b1945090670de0b6b3a76400006105db6105e29383613308565b04906132e5565b9238610591565b604051637c75aa6f60e11b8152600490fd5b60405163f10a0ea560e01b8152600490fd5b5080fd5b506101603660031901126102c3576106276134bc565b60ff60025460a01c166105fb5761063c6134df565b60ff600a541680610c77575b6105e957600e548015159081610c6d575b50610c16574260a4351115610c5b5760c43515610c165761067c4260a43561347c565b6006548110610c3f576007548015159182610c51575b5050610c3f5760843580610c3a575060a4355b60a4358111610c285742811115610c16576001600160a01b036106c6613409565b1615610bdc576101243515610c04576106e360c43560a4356132e5565b6101243510610bf25760026024351015610bee57600160243514610b7b575b61014435610b33575b601254916107188361346d565b60125582845260136020526040842091838355610733613489565b600184810180546001600160c01b03191660ff90931692909217601885901b6301000000600160b81b03161760243560b881901b60ff60b81b169190911790925503610b2c57610781613420565b905b6002840180546001600160a01b03199081166001600160a01b03948516179091556064356003860155600485019190915560a435600585015560c435600685015560e4356007850155906107d5613409565b16600a84019182541617905561012435600b830155600c54600e83019064ffff00000082549160181b168064ffff00000019831617835566ffff0000000000600c5460181b16808266ffffffff0000001985161717845568ffff00000000000000600c5460181b1691828168ffffffffffff0000001986161783171785556affff000000000000000000600c5460181b16936affffffffffffffff000000191617171717905560243515600014610a28576064353403610a1657606435610990575b92600191837fd4ff274a9f4de44eb9cb7369f829f06bb94b3cf69d2b422b1fa81d28eef9523560a06020975b60643561094a575b61014435610925575b6108dc613489565b9460058880851b036002830154169101549060ff6040519716875260ff602435168b880152604087015260608601526101443560808601528680831b031693a355604051908152f35b83865260108952610144356040872055610144358652601189528360408720556108d4565b6008850161095b60643582546132e5565b90558680831b038116600052600f85018952604060002061097f60643582546132e5565b905561098b8186613bcb565b6108cb565b7f00000000000000000000000000000000000000000000000000000000000000006001600160a01b031684813b156102c357602491604051928380926329ac7ded60e11b8252886004830152606435905af18015610a0b576109f3575b50610897565b6109fd859161336e565b610a0757386109ed565b8380fd5b6040513d87823e3d90fd5b604051633bf87c3160e11b8152600490fd5b34610a1657606435610a65575b92600191837fd4ff274a9f4de44eb9cb7369f829f06bb94b3cf69d2b422b1fa81d28eef9523560a06020976108c3565b610a6d613420565b847f00000000000000000000000000000000000000000000000000000000000000006001600160a01b03163b156102c3576040516339b99a0960e01b8152600481018690526001600160a01b039283166024820152918316604483015260648035908301528180608481010381837f00000000000000000000000000000000000000000000000000000000000000006001600160a01b03165af18015610a0b57610b18575b50610a35565b610b22859161336e565b610a075738610b12565b8490610783565b610144358352600f60205260ff604084205416610b6957610144358352600f60205260408320805460ff1916600117905561070b565b60405163fe0414d160e01b8152600490fd5b6001600160a01b03610b8b613420565b1615610bdc5760ff6005541680610bb5575b15610702575b60405163514e24c360e11b8152600490fd5b506001600160a01b03610bc6613420565b168352600460205260ff60408420541615610b9d565b60405163d92e233d60e01b8152600490fd5b8280fd5b60405163f8f9e09960e01b8152600490fd5b6040516330073f3f60e21b8152600490fd5b60405163a883435760e01b8152600490fd5b604051637725eee760e11b8152600490fd5b6106a5565b6040516309beb56760e31b8152600490fd5b1190503880610692565b604051636cd0ca0760e11b8152600490fd5b9050341038610659565b506001600160a01b03811682526009602052604082205460ff1615610648565b50346102c35760403660031901126102c35760116040610cb561319c565b926004358152601360205220019060018060a01b0316600052602052602060ff604060002054166040519015158152f35b50346102c35760203660031901126102c35760ff60406020926004358152600f84522054166040519015158152f35b50346102c35760203660031901126102c35760ff60406020926004358152601584522054166040519015158152f35b50346102c35760203660031901126102c357600435610d616134bc565b60ff60025460a01c166105fb57610d766134df565b81835260136020526040832090600e82019081549160ff8360081c16610e6857600184019384549260018060a01b03809116818560181c168114159182610e59575b5050610e475760ff8360081c16610dce816132c5565b610e3557600c015463ffffffff16610e23576101006102009361ff00191617905562ffff0019161790557f829a8683c544ad289ce92d3ce06e9ebad69b18a6916e60ec766c2c217461d8e98280a26001815580f35b6040516354dcda0f60e11b8152600490fd5b604051634065aaf160e11b8152600490fd5b60405163440e733360e01b8152600490fd5b60015416141590503880610db8565b604051632583715b60e11b8152600490fd5b50346102c357806003193601126102c3576020600754604051908152f35b50346102c35760403660031901126102c357610eb2613181565b610eba6131b2565b60015490916001600160a01b03918216330361040f5716908115610bdc5760207f8080779c631fe2a2cef3d85f043bab8b7a0ac8609d12fa2d97e81b7512d21867918385526009825261049781604087209060ff801983541691151516179055565b50346102c35760c03660031901126102c357600435602435906064359160ff8316809303610a0757610f4c6134bc565b60ff60025460a01c166105fb57610f616134df565b81156110c25782855260136020526040852090610f7d82613638565b60ff600183015460b81c1660028110156110ae57600103610ba35780610fa48792846136a5565b60028301546001600160a01b0391908216907f00000000000000000000000000000000000000000000000000000000000000008316803b1561109f578492836101049260405196879586946310da46f360e31b86528d60048701526024860152169b8c60448501528a6064850152604435608485015260a484015260843560c484015260a43560e48401525af180156110a35761108b575b5050600080516020613c1483398151915291600f826008602094016110628482546132e5565b905586600052018252604060002061107b8282546132e5565b9055604051908152a36001815580f35b6110949061336e565b61109f57843861103c565b8480fd5b6040513d84823e3d90fd5b634e487b7160e01b87526021600452602487fd5b6040516365e52d5160e11b8152600490fd5b50346102c357806003193601126102c3576040517f00000000000000000000000000000000000000000000000000000000000000006001600160a01b03168152602090f35b50346102c35760203660031901126102c357600154600435906001600160a01b0316330361040f576020817fa70bd512f7108f78a924d05836f49963c6d8583e3d39f5b6412eb5be70e8432a92600e55604051908152a180f35b50346102c35760403660031901126102c35761118d613181565b6111956131b2565b60015490916001600160a01b03918216330361040f577f2e3f7d2295814d1c6955115797a3965aa006a8f9dec8a662bc2f5fa4427ba9c9916020911692838552600d825261049781604087209060ff801983541691151516179055565b50346102c357806003193601126102c357602060ff600854166040519015158152f35b50346102c357806003193601126102c3576003546040516001600160a01b039091168152602090f35b50346102c35760403660031901126102c357604061125a61319c565b9160043581526016602052209060018060a01b0316600052602052602060ff604060002054166040519015158152f35b50346102c35760203660031901126102c3576112a46131c1565b6001546001600160a01b0316330361040f5760207f39faec09bfc6835902c79c4757f9177e0cf8ab328b2bb690494e800dfe8c9c9491151560025460ff60a01b8260a01b169060ff60a01b191617600255604051908152a180f35b50346102c357806003193601126102c357600b546040805161ffff808416825260109390931c909216602083015290f35b50346102c35760203660031901126102c35760408161014092610120835161135781613382565b82815282602082015282858201528260608201528260808201528260a08201528260c08201528260e08201528261010082015201526004358152601460205220805490600181015490600281015460038201546004830154600584015491600685015493600860078701549601549660206040516113d481613382565b60ff8b161515815260ff8b60081c1615158282015260408101928352606081019384526080810194855260a0810195865260c0810196875260e0810197885261010081019889526101208101998a5260ff6040519b1615158b520151151560208a01525160408901525160608801525160808701525160a08601525160c08501525160e08401525161010083015251610120820152f35b50346102c35760203660031901126102c357611485613181565b6001546001600160a01b03908116913383900361040f5716908115610bdc57600280546001600160a01b031916831790557fe5cd1c804f1c9cc6d7009e4c0fb532f0e2d8863524c3323a6b3790c3f80bf25c8380a380f35b50346102c35760203660031901126102c35760209060ff906040906001600160a01b03611508613181565b168152600484522054166040519015158152f35b50346102c35760603660031901126102c35761153661319c565b60443567ffffffffffffffff8111610bee57611556903690600401613267565b9061155f6134bc565b60ff60025460a01c166105fb57338452600d60205260ff60408520541615806115a2575b61040f576001600160a01b03831615610bdc5761030f92600435613708565b506001546001600160a01b0316331415611583565b50346102c35760203660031901126102c3576115d16131c1565b6001546001600160a01b0316330361040f5760207fedab75c448cb39137a363f4f09437929860c3b6ddfaab3445f06e68f6f79202291151560ff196005541660ff821617600555604051908152a180f35b50346102c35760403660031901126102c3576001546001600160a01b0316330361040f5761ffff612710808261165661339f565b1611610c1657816116656133c1565b1611610c165761167361339f565b16600b549063ffff00006116856133c1565b60101b169163ffffffff19161717600b557f5c4bda0735930512d684b03b8612ddeb65cfb1e4c2d2f9dff13667bf38b8b6156116bf61339f565b6116c76133c1565b6040805161ffff9384168152929091166020830152819081015b0390a180f35b50346102c357806003193601126102c3576040517f00000000000000000000000000000000000000000000000000000000000000006001600160a01b03168152602090f35b50346102c357806003193601126102c357602060ff60025460a01c166040519015158152f35b50346102c357806003193601126102c3576020600654604051908152f35b50346102c35761177f36613217565b91926117896134bc565b60ff60025460a01c166105fb57338652600d60205260ff6040872054161580611ac5575b61040f5784865260146020526040862060ff815416156105e9579291909385875260136020526040872090879588915b80831061196f57505050869387935b80851061182c5788887f732e2e57cbdd46f7b6ef114e9c3510a166142182ce0c4ec682bba90b453fabd960408a8a82519182526020820152a26001815580f35b909192939461184461183f8784886133e3565b613436565b6001600160a01b038116600090815260118601602052604090205460ff1661196557600f8501602052888a6040600020548015801561194f575b61194257917f8dbdec192d4a8c1672d2c8b9d20ae3a4e16f5b7396d34589fccff7b1535f52946020611905959360019795600a8b01835260406000208960ff1982541617905560088b0154918215156000146119395750670de0b6b3a7640000916118e891613308565b04935b84611911575b604051948552878060a01b031693a361346d565b955b01939291906117ec565b61193460ff898d015460b81c168c60028b8060a01b0391015416908784886139d4565b6118f1565b915050936118eb565b5050505094600190611907565b50600a870160205260ff6040600020541661187e565b5094600190611907565b90919661198561183f8984869a9798999a6133e3565b6001600160a01b038116600090815260118701602052604090205460ff1615611abb57600f8601602052896040600020549182158015611aa5575b611a99579160019391611a39936009890160205260406000208660ff19825416179055898360078b015480611a48575b50507fb0173ebd95794ed5522fe7662b11854f3af313ced7aaa9a4050de681ea600dcb916118f160ff89602094015460b81c168d60028b8060a01b0391015416908784886139d4565b975b01919095949392956117dd565b602092955060ff89611a8c84670de0b6b3a76400006105db6118f1967fb0173ebd95794ed5522fe7662b11854f3af313ced7aaa9a4050de681ea600dcb9a98613308565b97945050508193506119f0565b50505096600190611a3b565b506009870160205260ff604060002054166119c0565b5096600190611a3b565b506001546001600160a01b03163314156117ad565b50346102c35760208060031936011261060d57600435611af86134bc565b60ff60025460a01c166105fb57611b0d6134df565b918184526013815260408420906001820191600260ff845460081c16611b32816132c5565b03611bd5576001600160a01b038581166000818152600f8401855260409020549096909283156105e957868952601685526040892088600052855260ff604060002054166105e957836105b193600260ff7ff3f402280ef0a7905e124aa621b65eaeb2725c343e8b36d398ed78c29daf285c9960408e8d815260168c52208d6000528a526040600020600183198254161790555460b81c1693015416928861350e565b60405163161ae9df60e11b8152600490fd5b50346102c357806003193601126102c357602060ff600554166040519015158152f35b5060203660031901126102c357600435611c226134bc565b60ff60025460a01c166105fb57611c376134df565b9034156110c25780835260136020526040832091611c5483613638565b60ff600184015460b81c166002811015611d3857610ba357611c7681846136a5565b6001600160a01b03847f00000000000000000000000000000000000000000000000000000000000000008216803b1561060d5781602491604051928380926329ac7ded60e11b825289600483015234905af180156110a357611d24575b5050600f9160088501611ce73482546132e5565b9055169283600052016020526040600020611d033482546132e5565b9055600080516020613c148339815191526020604051348152a36001815580f35b611d2d9061336e565b61109f578438611cd3565b634e487b7160e01b85526021600452602485fd5b50346102c35760403660031901126102c35760243567ffffffffffffffff811161060d57611d7e9036906004016131e6565b90611d876134bc565b60ff9060ff60025460a01c166105fb57338452600d60205260ff6040852054161580611f3c575b61040f57600435845260136020526040842091600192600260ff600183015460081c16611dda816132c5565b03611bd55793929190859486945b808610611e265787876040519081527fe195327b2509d4f3385dd7490af83e7598f36b3b34861e096888d896d83ba612602060043592a26001815580f35b909192939495611e3a61183f8884886133e3565b6001600160a01b0381166000908152600f850160205260409020549081158015611f11575b611f075791611efa9188936004358c52601660205260408c2060018060a01b03821660005260205260406000208560ff19825416179055611ebb88600189015460b81c1660018060a01b0360028a0154169084846004356139d4565b6040519182526001600160a01b031690600435907ff3f402280ef0a7905e124aa621b65eaeb2725c343e8b36d398ed78c29daf285c90602090a361346d565b965b019493929190611de8565b5050958590611efc565b506004358a52601660205260408a2060018060a01b0382166000526020528560406000205416611e5f565b506001546001600160a01b0316331415611dae565b50346102c35760203660031901126102c3576020611f75611f70613181565b61344a565b6040519015158152f35b50346102c35760203660031901126102c35760406020916004358152601083522054604051908152f35b50346102c35760203660031901126102c357611fc36131c1565b6001546001600160a01b0316330361040f5760207fbd28967d6f02595d7cc7a5b7a571f1e2ced0a9bb165b4f9461849e6955b0203291151560ff196008541660ff821617600855604051908152a180f35b50346102c35761202336613217565b91939061202e6134bc565b60ff60025460a01c166105fb57338652602094600d60205260ff60408820541615806120fc575b61040f57838103610c1657865b81811061207157876001815580f35b61207f61183f8284896133e3565b906001600160a01b03821615610bdc57858110156120e8578060051b840135601e19853603018112156120e45784019182359267ffffffffffffffff84116120e05789019280360384136120e0576001936120da9288613708565b01612062565b8a80fd5b8980fd5b634e487b7160e01b89526032600452602489fd5b506001546001600160a01b0316331415612055565b50346102c35760203660031901126102c35760406020916004358152601183522054604051908152f35b50346102c35760203660031901126102c35760209060ff906040906001600160a01b03612166613181565b168152600984522054166040519015158152f35b50346102c357806003193601126102c3576020600e54604051908152f35b50346102c3576121a7366131d0565b906121b06134bc565b60ff60025460a01c166105fb576121c56134df565b9180156110c257818452601360205260408420926121e284613638565b60ff600185015460b81c16600281101561230657600103610ba35761220781856136a5565b60028401546001600160a01b0391907f000000000000000000000000000000000000000000000000000000000000000083169087908416823b1561060d576040516339b99a0960e01b8152600481018890526001600160a01b039182166024820152908416604482015260648101869052918290608490829084905af180156122fb576122d0575b5091600f602092600080516020613c1483398151915294600888016122b58582546132e5565b9055169586600052018252604060002061107b8282546132e5565b602092600080516020613c148339815191529492976122f0600f9361336e565b97929450925061228f565b6040513d89823e3d90fd5b634e487b7160e01b86526021600452602486fd5b50346102c35760803660031901126102c3576001546001600160a01b0316330361040f5761ffff612710808261234e61339f565b1611610c16578161235d6133b0565b1611610c16576123808161236f6133c1565b16826123796133d2565b16906132e5565b8161238961339f565b1610610c1657600b54818116801515908161249b575b50610c165760101c81168015159081612488575b50610c16576123c061339f565b16600c549063ffff00006123d26133c1565b60101b1665ffff000000006123e56133d2565b60201b169167ffff0000000000006123fb6133b0565b60301b169367ffffffffffffffff191617171717600c557fca991ff30b5da7bb056f71ef5b9bf7f453ee43d9c41628c85532e8b3b7a79c5a61243b61339f565b6124436133c1565b906116e161244f6133d2565b6124576133b0565b906040519485948592949360609291608085019661ffff809481809416885216602087015216604085015216910152565b9050816124936133b0565b1611386123b3565b9050826124a661339f565b16113861239f565b50346102c3576124bd366131d0565b6001546001600160a01b0316330361040f57808211610c1657816040917f54a7bcb4dcd8397e4d1346ea83ef05f58714b3d8c45c7c47845383063fc2e82b936006558060075582519182526020820152a180f35b50346102c357806003193601126102c3576002546040516001600160a01b039091168152602090f35b50346102c35760203660031901126102c3576125546131c1565b6001546001600160a01b0316330361040f5760207f95fb4e8f5ff01bb36d61252d90cc1f29b520ea9d7c5dd6c933d15e89ca50d9c491151560ff19600a541660ff821617600a55604051908152a180f35b50346102c35760603660031901126102c3576004356125c261319c565b6001546001600160a01b0390604435908216330361040f578385526013602052604085209260ff600185015460081c166125fb816132c5565b610e35578216806126c4575b508061264d575b5081600b604092600a7f20309ea0845f13ad24c6912ae9b099e736e9e79df13bc10e88e6a7a79c1707549501541691015482519182526020820152a280f35b9160ff60085416806126b7575b6126a55761267160058201546006830154906132e5565b8310610bf257600b8101929092557f20309ea0845f13ad24c6912ae9b099e736e9e79df13bc10e88e6a7a79c17075461260e565b604051634a9696e560e11b8152600490fd5b50600b810154831161265a565b6009840154610c1657600a840180546001600160a01b031916909117905538612607565b50346102c357806003193601126102c357600c546040805161ffff8084168252601084901c811660208084019190915284901c81169282019290925260309290921c166060820152608090f35b50346102c35760203660031901126102c357806102806040516127578161333b565b8281528260208201528260408201528260608201528260808201528260a08201528260c08201528260e08201528261010082015282610120820152826101408201528261016082015282610180820152826101a0820152826101c0820152826101e082015282610200820152826102208201528261024082015282610260820152015260043581526013602052604081209081549160018101549161280160ff8460081c166132c5565b61281060ff8460101c166132c5565b600260ff8460b81c161015612a6457508290600160a01b6001900360028201541660038201546004830154600584015460068501546007860154600887015491600988015493600160a01b60019003600a8a01541695600b8a015497600c8b015463ffffffff1699600d8c01549b600e01549c6040519e8f916128928361333b565b825260ff811660208301528060081c60ff1660408301528060101c60ff166060830152600160a01b600190038160181c16608083015260b81c60ff1660a082015260c0015260e08d01526101008c01526101208b01526101408a01526101608901526101808801526101a08701526101c08601526101e085015261020084015261022083015260ff811615156102408301528060081c60ff16151561026083015260101c60ff161515610280820152604051918252602081015160ff166020830152604081015160ff166040830152606081015160ff166060830152600160a01b60019003608082015116608083015260a081015160ff1660a0830152600160a01b6001900360c08201511660c083015260e081015160e08301526101008101516101008301526101208101516101208301526101408101516101408301526101608101516101608301526101808101516101808301526101a08101516101a0830152600160a01b600190036101c0820151166101c08301526101e08101516101e083015261020081015163ffffffff1661020083015261022081015161022083015261024081015115156102408301526102608101511515610260830152610280015115156102808201526102a090f35b634e487b7160e01b81526021600452602490fd5b50346102c35760403660031901126102c357612a92613181565b612a9a6131b2565b60015490916001600160a01b03918216330361040f5716908115610bdc5760207f9a8e30a8658b96ab3f034ce4bac6806278b4aee5880ccdd1ac35e4ed5bb31d23918385526004825261049781604087209060ff801983541691151516179055565b50346102c357806003193601126102c3576002546001600160a01b03908181163303612b665760015491339083167f0a5e51d1a708a68919d9ab9afd976c6e463eddc9bc7ee4fdbb05bf9946e85a338580a36001600160a01b031991821633176001551660025580f35b60405163058d9a1b60e01b8152600490fd5b50346102c35760208060031936011261060d57600435612b966134bc565b60ff60025460a01c166105fb57612bab6134df565b9181845260148152604084209060ff825416158015612cae575b6105e957828552601381526040852060018060a01b038086169586885260118301845260ff6040892054166105e957868852600f8301845260408820549485156105e957600a810190888a5281865260ff60408b2054166105e957888a5290855260408920805460ff19166001179055600801547f8dbdec192d4a8c1672d2c8b9d20ae3a4e16f5b7396d34589fccff7b1535f529495670de0b6b3a764000091612c6e91613308565b04928380612c89575b50505050604051908152a36001815580f35b612ca593600260ff600185015460b81c1693015416928861350e565b38808083612c77565b50600882015415612bc5565b50346102c357806003193601126102c357602060ff600a54166040519015158152f35b50346102c35760203660031901126102c357612cf76134bc565b60ff60025460a01c166105fb57600435815260136020526040812090600e82019182549260ff8460101c1661316f5760018201549360ff8560081c16612d3c816132c5565b610e3557612d5360058401546006850154906132e5565b421061315d57600b830154421061315d576201000090610100600d850196875415156000146131525762ff000060015b612d8c816132c5565b60101b169062ffff0019161717600185015562ff000019161781558154835260146020526040832090815490600160ff198316178355846008850180549754809881811160001461314757600191612de39161347c565b945b898288015585600288015561ff008a151560081b169061ffff191617178555555490612710612e1b61ffff8460481c1683613308565b0492612e27848361347c565b90612710612e3c61ffff8660181c1684613308565b0492612e8b612e84612710612e6961ffff82612e5d828c60281c168a613308565b049960381c1687613308565b0496612e7e612e7889836132e5565b8861347c565b906132e5565b948461347c565b9286600384015560048301558360058301558460068301558815158961313e575b613110575b80151580613107575b156130af57670de0b6b3a764000080870290878204148715171561309b576020946001999a947fd12dad5b90def88d868dcc57ef045dbf2ecc574d91f027ca7c85fd3727a4a06b97946008612f327f8bd1ae865a0c9eee5de0f106a72005a318a9d008d87cc0eaf3c3bd5d691dd9bd9660609661331b565b915b015580151580613093575b613046575b5080612ffc575b83612fca575b8854978894604051928352878301526040820152a26040519015158152a2015460ff808260081c1691612f83836132c5565b60101c16612f90816132c5565b60405191825260208201527f8450c98b6c7639389239ba935fb62b1edd38265d734ce1d4b6ced548f32bc45e604060043592a26001815580f35b612ff760028a54868d8d0154918d8f8060a01b039485910154169360ff8460b81c169360181c169061350e565b612f51565b613041895460ff8c8c015460b81c16838c60028f8060a01b0391015416927f00000000000000000000000000000000000000000000000000000000000000009061350e565b612f4b565b61308d908a549060ff8d8d015460b81c16908c60028f8060a01b0391015416927f00000000000000000000000000000000000000000000000000000000000000009061350e565b38612f44565b508515612f3f565b634e487b7160e01b89526011600452602489fd5b50927f8bd1ae865a0c9eee5de0f106a72005a318a9d008d87cc0eaf3c3bd5d691dd9bd6060602094899a947fd12dad5b90def88d868dcc57ef045dbf2ecc574d91f027ca7c85fd3727a4a06b97600860019c91612f34565b50851515612eba565b670de0b6b3a7640000838181020481148415171561309b578961313491850261331b565b6007830155612eb1565b50821515612eac565b505060018294612de5565b62ff00006002612d83565b604051631bf5519360e01b8152600490fd5b60405163475a253560e01b8152600490fd5b600435906001600160a01b038216820361319757565b600080fd5b602435906001600160a01b038216820361319757565b60243590811515820361319757565b60043590811515820361319757565b6040906003190112613197576004359060243590565b9181601f840112156131975782359167ffffffffffffffff8311613197576020808501948460051b01011161319757565b906060600319830112613197576004359167ffffffffffffffff916024358381116131975782613249916004016131e6565b9390939260443591821161319757613263916004016131e6565b9091565b9181601f840112156131975782359167ffffffffffffffff8311613197576020838186019501011161319757565b90604060031983011261319757600435916024359067ffffffffffffffff82116131975761326391600401613267565b600311156132cf57565b634e487b7160e01b600052602160045260246000fd5b919082018092116132f257565b634e487b7160e01b600052601160045260246000fd5b818102929181159184041417156132f257565b8115613325570490565b634e487b7160e01b600052601260045260246000fd5b6102a0810190811067ffffffffffffffff82111761335857604052565b634e487b7160e01b600052604160045260246000fd5b67ffffffffffffffff811161335857604052565b610140810190811067ffffffffffffffff82111761335857604052565b60043561ffff811681036131975790565b60643561ffff811681036131975790565b60243561ffff811681036131975790565b60443561ffff811681036131975790565b91908110156133f35760051b0190565b634e487b7160e01b600052603260045260246000fd5b610104356001600160a01b03811681036131975790565b6044356001600160a01b03811681036131975790565b356001600160a01b03811681036131975790565b6001600160a01b03908116801515918261346357505090565b6003541614919050565b60001981146132f25760010190565b919082039182116132f257565b60043560ff811681036131975790565b919060ff60025460a01c166105fb576134ba926134b46134df565b90613708565b565b6002600054146134cd576002600055565b604051633ee5aeb560e01b8152600490fd5b6134e83361344a565b80613503575b156134ff5736601319013560601c90565b3390565b5060143610156134ee565b9293909382156136315760028110156132cf576135b557507f00000000000000000000000000000000000000000000000000000000000000006001600160a01b0316803b15613197576040516301cd6cbb60e21b815260048101939093526001600160a01b0390931660248301526044820152906000908290818381606481015b03925af180156135a9576135a05750565b6134ba9061336e565b6040513d6000823e3d90fd5b9092907f00000000000000000000000000000000000000000000000000000000000000006001600160a01b031690813b1561319757604051630bd005ed60e31b815260048101949094526001600160a01b039081166024850152909116604483015260648201929092529060009082908183816084810161358f565b5050505050565b600e81015460ff8116908115613697575b506136855760ff600182015460081c16613662816132c5565b610e35576004015442101561367357565b60405163d673d30960e01b8152600490fd5b6040516301b84f6b60e01b8152600490fd5b60ff915060081c1638613649565b9060018060a01b0381166000526010820160205260ff6040600020541661370457600782015480151590816136f5575b506136e3576134ba91613bcb565b604051636c8c8d2160e01b8152600490fd5b905060098301541015386136d5565b5050565b91906000908382526020906013825260409182842091600e83015460ff811680156139c7575b6139b65760ff600185015460081c16613746816132c5565b6139a55760101c60ff16613994576005830154421061398357600b8301544211613972576001600160a01b03908116808652600f84018352848620549098909687156139615790601f848a9493888d8b6084600a8c0199888a8c54169551998a978896879463b7b9f7d560e01b8652600486015260248501526060604485015281606485015284840137838382840101528819988991011681010301925af191829189936138f9575b50506138f3575085915b541688887f61d4565729ef18ae3c6557c0ca7250c197790c3bfc92c7d5ec000c7a07d2a3ea85885195159586158152a46138ea576011820187855280825260ff84862054166138d9578785528152828420600160ff19825416179055600c600d8301926138678785546132e5565b8094550180549463ffffffff90600182881601908282116138c557501663ffffffff19959095168517905582519485528401528201527f124fed6cbf6373f8cf4a56a3b00d10a865480c56cca58d35cfb37ac6100b8f9290606090a3565b634e487b7160e01b81526011600452602490fd5b83516354dcda0f60e11b8152600490fd5b50505050505050565b916137f9565b9091925085903d8711613959575b601f820116820182811067ffffffffffffffff82111761394557869183918a528101031261394157518015158103613941579038806137ef565b8780fd5b634e487b7160e01b8a52604160045260248afd5b3d9150613907565b8551637c75aa6f60e11b8152600490fd5b835163ee19d85560e01b8152600490fd5b83516309442c5b60e01b8152600490fd5b835163475a253560e01b8152600490fd5b8451634065aaf160e11b8152600490fd5b84516301b84f6b60e01b8152600490fd5b5060ff8160081c1661372e565b909192936000948415613bc357600281101561230657613ae757507f00000000000000000000000000000000000000000000000000000000000000006001600160a01b03169190823b1561109f576040516301cd6cbb60e21b8152600481018290526001600160a01b038316602482015260448101859052858160648183885af18015613adc57908691613ac8575b5050823b1561109f57604051633b6277a760e01b815260048101919091526001600160a01b039091166024820152604481019290925282908290818381606481015b03925af180156110a357613ab7575050565b613ac1829161336e565b6102c35750565b613ad19061336e565b61109f578438613a63565b6040513d88823e3d90fd5b7f00000000000000000000000000000000000000000000000000000000000000006001600160a01b031691823b15613bac57604051630bd005ed60e31b8152600481018290526001600160a01b0383811660248301528516604482015260648101869052868160848183885af180156122fb57613bb0575b50823b15613bac576040516303ff3dcd60e51b815260048101919091526001600160a01b039182166024820152921660448301526064820192909252908290829081838160848101613aa5565b8580fd5b613bbc9096919661336e565b9438613b5f565b505050505050565b6001600160a01b03909116600090815260108201602052604090208054919060ff831615613bf857505050565b600160099360ff191617905501613c0f815461346d565b905556fed5b030fc17ee555aeea484ceb134047c9d82176003282c85150c3b2552c6ef66a164736f6c6343000818000a"
}