{
  "address": "0xFD6344e9f0d88C6E72563027503734270094e0cF",
  "abi": [
    {
      "inputs": [
        {
          "internalType": "address",
          "name": "challengePay_",
          "type": "address"
        },
        {
          "internalType": "address",
          "name": "admin_",
          "type": "address"
        },
        {
          "internalType": "string",
          "name": "baseTokenURI_",
          "type": "string"
        }
      ],
      "stateMutability": "nonpayable",
      "type": "constructor"
    },
    {
      "inputs": [],
      "name": "AlreadyMinted",
      "type": "error"
    },
    {
      "inputs": [
        {
          "internalType": "address",
          "name": "sender",
          "type": "address"
        },
        {
          "internalType": "uint256",
          "name": "tokenId",
          "type": "uint256"
        },
        {
          "internalType": "address",
          "name": "owner",
          "type": "address"
        }
      ],
      "name": "ERC721IncorrectOwner",
      "type": "error"
    },
    {
      "inputs": [
        {
          "internalType": "address",
          "name": "operator",
          "type": "address"
        },
        {
          "internalType": "uint256",
          "name": "tokenId",
          "type": "uint256"
        }
      ],
      "name": "ERC721InsufficientApproval",
      "type": "error"
    },
    {
      "inputs": [
        {
          "internalType": "address",
          "name": "approver",
          "type": "address"
        }
      ],
      "name": "ERC721InvalidApprover",
      "type": "error"
    },
    {
      "inputs": [
        {
          "internalType": "address",
          "name": "operator",
          "type": "address"
        }
      ],
      "name": "ERC721InvalidOperator",
      "type": "error"
    },
    {
      "inputs": [
        {
          "internalType": "address",
          "name": "owner",
          "type": "address"
        }
      ],
      "name": "ERC721InvalidOwner",
      "type": "error"
    },
    {
      "inputs": [
        {
          "internalType": "address",
          "name": "receiver",
          "type": "address"
        }
      ],
      "name": "ERC721InvalidReceiver",
      "type": "error"
    },
    {
      "inputs": [
        {
          "internalType": "address",
          "name": "sender",
          "type": "address"
        }
      ],
      "name": "ERC721InvalidSender",
      "type": "error"
    },
    {
      "inputs": [
        {
          "internalType": "uint256",
          "name": "tokenId",
          "type": "uint256"
        }
      ],
      "name": "ERC721NonexistentToken",
      "type": "error"
    },
    {
      "inputs": [],
      "name": "NotAdmin",
      "type": "error"
    },
    {
      "inputs": [],
      "name": "NotFinalized",
      "type": "error"
    },
    {
      "inputs": [],
      "name": "NotParticipant",
      "type": "error"
    },
    {
      "inputs": [],
      "name": "NotPendingAdmin",
      "type": "error"
    },
    {
      "inputs": [],
      "name": "NotWinner",
      "type": "error"
    },
    {
      "inputs": [],
      "name": "SoulboundToken",
      "type": "error"
    },
    {
      "inputs": [],
      "name": "ZeroAddress",
      "type": "error"
    },
    {
      "anonymous": false,
      "inputs": [
        {
          "indexed": true,
          "internalType": "uint256",
          "name": "tokenId",
          "type": "uint256"
        },
        {
          "indexed": true,
          "internalType": "uint256",
          "name": "challengeId",
          "type": "uint256"
        },
        {
          "indexed": true,
          "internalType": "address",
          "name": "recipient",
          "type": "address"
        },
        {
          "indexed": false,
          "internalType": "enum ChallengeAchievement.AchievementType",
          "name": "aType",
          "type": "uint8"
        }
      ],
      "name": "AchievementMinted",
      "type": "event"
    },
    {
      "anonymous": false,
      "inputs": [
        {
          "indexed": true,
          "internalType": "address",
          "name": "owner",
          "type": "address"
        },
        {
          "indexed": true,
          "internalType": "address",
          "name": "approved",
          "type": "address"
        },
        {
          "indexed": true,
          "internalType": "uint256",
          "name": "tokenId",
          "type": "uint256"
        }
      ],
      "name": "Approval",
      "type": "event"
    },
    {
      "anonymous": false,
      "inputs": [
        {
          "indexed": true,
          "internalType": "address",
          "name": "owner",
          "type": "address"
        },
        {
          "indexed": true,
          "internalType": "address",
          "name": "operator",
          "type": "address"
        },
        {
          "indexed": false,
          "internalType": "bool",
          "name": "approved",
          "type": "bool"
        }
      ],
      "name": "ApprovalForAll",
      "type": "event"
    },
    {
      "anonymous": false,
      "inputs": [
        {
          "indexed": false,
          "internalType": "uint256",
          "name": "tokenId",
          "type": "uint256"
        }
      ],
      "name": "Locked",
      "type": "event"
    },
    {
      "anonymous": false,
      "inputs": [
        {
          "indexed": true,
          "internalType": "address",
          "name": "from",
          "type": "address"
        },
        {
          "indexed": true,
          "internalType": "address",
          "name": "to",
          "type": "address"
        },
        {
          "indexed": true,
          "internalType": "uint256",
          "name": "tokenId",
          "type": "uint256"
        }
      ],
      "name": "Transfer",
      "type": "event"
    },
    {
      "anonymous": false,
      "inputs": [
        {
          "indexed": false,
          "internalType": "uint256",
          "name": "tokenId",
          "type": "uint256"
        }
      ],
      "name": "Unlocked",
      "type": "event"
    },
    {
      "inputs": [],
      "name": "acceptAdmin",
      "outputs": [],
      "stateMutability": "nonpayable",
      "type": "function"
    },
    {
      "inputs": [
        {
          "internalType": "uint256",
          "name": "tokenId",
          "type": "uint256"
        }
      ],
      "name": "achievementOf",
      "outputs": [
        {
          "components": [
            {
              "internalType": "uint256",
              "name": "challengeId",
              "type": "uint256"
            },
            {
              "internalType": "address",
              "name": "recipient",
              "type": "address"
            },
            {
              "internalType": "enum ChallengeAchievement.AchievementType",
              "name": "aType",
              "type": "uint8"
            },
            {
              "internalType": "uint64",
              "name": "mintedAt",
              "type": "uint64"
            }
          ],
          "internalType": "struct ChallengeAchievement.Achievement",
          "name": "",
          "type": "tuple"
        }
      ],
      "stateMutability": "view",
      "type": "function"
    },
    {
      "inputs": [
        {
          "internalType": "uint256",
          "name": "",
          "type": "uint256"
        }
      ],
      "name": "achievements",
      "outputs": [
        {
          "internalType": "uint256",
          "name": "challengeId",
          "type": "uint256"
        },
        {
          "internalType": "address",
          "name": "recipient",
          "type": "address"
        },
        {
          "internalType": "enum ChallengeAchievement.AchievementType",
          "name": "aType",
          "type": "uint8"
        },
        {
          "internalType": "uint64",
          "name": "mintedAt",
          "type": "uint64"
        }
      ],
      "stateMutability": "view",
      "type": "function"
    },
    {
      "inputs": [],
      "name": "admin",
      "outputs": [
        {
          "internalType": "address",
          "name": "",
          "type": "address"
        }
      ],
      "stateMutability": "view",
      "type": "function"
    },
    {
      "inputs": [
        {
          "internalType": "address",
          "name": "recipient",
          "type": "address"
        },
        {
          "internalType": "uint256",
          "name": "challengeId",
          "type": "uint256"
        },
        {
          "internalType": "enum ChallengeAchievement.AchievementType",
          "name": "aType",
          "type": "uint8"
        }
      ],
      "name": "adminMint",
      "outputs": [
        {
          "internalType": "uint256",
          "name": "",
          "type": "uint256"
        }
      ],
      "stateMutability": "nonpayable",
      "type": "function"
    },
    {
      "inputs": [
        {
          "internalType": "address",
          "name": "",
          "type": "address"
        },
        {
          "internalType": "uint256",
          "name": "",
          "type": "uint256"
        }
      ],
      "name": "approve",
      "outputs": [],
      "stateMutability": "pure",
      "type": "function"
    },
    {
      "inputs": [
        {
          "internalType": "address",
          "name": "owner",
          "type": "address"
        }
      ],
      "name": "balanceOf",
      "outputs": [
        {
          "internalType": "uint256",
          "name": "",
          "type": "uint256"
        }
      ],
      "stateMutability": "view",
      "type": "function"
    },
    {
      "inputs": [],
      "name": "baseTokenURI",
      "outputs": [
        {
          "internalType": "string",
          "name": "",
          "type": "string"
        }
      ],
      "stateMutability": "view",
      "type": "function"
    },
    {
      "inputs": [],
      "name": "challengePay",
      "outputs": [
        {
          "internalType": "contract IChallengePay",
          "name": "",
          "type": "address"
        }
      ],
      "stateMutability": "view",
      "type": "function"
    },
    {
      "inputs": [
        {
          "internalType": "uint256",
          "name": "challengeId",
          "type": "uint256"
        }
      ],
      "name": "claimCompletion",
      "outputs": [
        {
          "internalType": "uint256",
          "name": "",
          "type": "uint256"
        }
      ],
      "stateMutability": "nonpayable",
      "type": "function"
    },
    {
      "inputs": [
        {
          "internalType": "uint256",
          "name": "challengeId",
          "type": "uint256"
        }
      ],
      "name": "claimVictory",
      "outputs": [
        {
          "internalType": "uint256",
          "name": "",
          "type": "uint256"
        }
      ],
      "stateMutability": "nonpayable",
      "type": "function"
    },
    {
      "inputs": [
        {
          "internalType": "uint256",
          "name": "tokenId",
          "type": "uint256"
        }
      ],
      "name": "getApproved",
      "outputs": [
        {
          "internalType": "address",
          "name": "",
          "type": "address"
        }
      ],
      "stateMutability": "view",
      "type": "function"
    },
    {
      "inputs": [
        {
          "internalType": "uint256",
          "name": "challengeId",
          "type": "uint256"
        },
        {
          "internalType": "address",
          "name": "user",
          "type": "address"
        },
        {
          "internalType": "enum ChallengeAchievement.AchievementType",
          "name": "aType",
          "type": "uint8"
        }
      ],
      "name": "hasMinted",
      "outputs": [
        {
          "internalType": "bool",
          "name": "",
          "type": "bool"
        }
      ],
      "stateMutability": "view",
      "type": "function"
    },
    {
      "inputs": [
        {
          "internalType": "address",
          "name": "owner",
          "type": "address"
        },
        {
          "internalType": "address",
          "name": "operator",
          "type": "address"
        }
      ],
      "name": "isApprovedForAll",
      "outputs": [
        {
          "internalType": "bool",
          "name": "",
          "type": "bool"
        }
      ],
      "stateMutability": "view",
      "type": "function"
    },
    {
      "inputs": [
        {
          "internalType": "uint256",
          "name": "tokenId",
          "type": "uint256"
        }
      ],
      "name": "locked",
      "outputs": [
        {
          "internalType": "bool",
          "name": "",
          "type": "bool"
        }
      ],
      "stateMutability": "view",
      "type": "function"
    },
    {
      "inputs": [
        {
          "internalType": "uint256",
          "name": "",
          "type": "uint256"
        },
        {
          "internalType": "address",
          "name": "",
          "type": "address"
        },
        {
          "internalType": "enum ChallengeAchievement.AchievementType",
          "name": "",
          "type": "uint8"
        }
      ],
      "name": "minted",
      "outputs": [
        {
          "internalType": "uint256",
          "name": "",
          "type": "uint256"
        }
      ],
      "stateMutability": "view",
      "type": "function"
    },
    {
      "inputs": [],
      "name": "name",
      "outputs": [
        {
          "internalType": "string",
          "name": "",
          "type": "string"
        }
      ],
      "stateMutability": "view",
      "type": "function"
    },
    {
      "inputs": [],
      "name": "nextTokenId",
      "outputs": [
        {
          "internalType": "uint256",
          "name": "",
          "type": "uint256"
        }
      ],
      "stateMutability": "view",
      "type": "function"
    },
    {
      "inputs": [
        {
          "internalType": "uint256",
          "name": "tokenId",
          "type": "uint256"
        }
      ],
      "name": "ownerOf",
      "outputs": [
        {
          "internalType": "address",
          "name": "",
          "type": "address"
        }
      ],
      "stateMutability": "view",
      "type": "function"
    },
    {
      "inputs": [],
      "name": "pendingAdmin",
      "outputs": [
        {
          "internalType": "address",
          "name": "",
          "type": "address"
        }
      ],
      "stateMutability": "view",
      "type": "function"
    },
    {
      "inputs": [
        {
          "internalType": "address",
          "name": "from",
          "type": "address"
        },
        {
          "internalType": "address",
          "name": "to",
          "type": "address"
        },
        {
          "internalType": "uint256",
          "name": "tokenId",
          "type": "uint256"
        }
      ],
      "name": "safeTransferFrom",
      "outputs": [],
      "stateMutability": "nonpayable",
      "type": "function"
    },
    {
      "inputs": [
        {
          "internalType": "address",
          "name": "",
          "type": "address"
        },
        {
          "internalType": "address",
          "name": "",
          "type": "address"
        },
        {
          "internalType": "uint256",
          "name": "",
          "type": "uint256"
        },
        {
          "internalType": "bytes",
          "name": "",
          "type": "bytes"
        }
      ],
      "name": "safeTransferFrom",
      "outputs": [],
      "stateMutability": "pure",
      "type": "function"
    },
    {
      "inputs": [
        {
          "internalType": "address",
          "name": "",
          "type": "address"
        },
        {
          "internalType": "bool",
          "name": "",
          "type": "bool"
        }
      ],
      "name": "setApprovalForAll",
      "outputs": [],
      "stateMutability": "pure",
      "type": "function"
    },
    {
      "inputs": [
        {
          "internalType": "string",
          "name": "uri",
          "type": "string"
        }
      ],
      "name": "setBaseTokenURI",
      "outputs": [],
      "stateMutability": "nonpayable",
      "type": "function"
    },
    {
      "inputs": [
        {
          "internalType": "bytes4",
          "name": "interfaceId",
          "type": "bytes4"
        }
      ],
      "name": "supportsInterface",
      "outputs": [
        {
          "internalType": "bool",
          "name": "",
          "type": "bool"
        }
      ],
      "stateMutability": "view",
      "type": "function"
    },
    {
      "inputs": [],
      "name": "symbol",
      "outputs": [
        {
          "internalType": "string",
          "name": "",
          "type": "string"
        }
      ],
      "stateMutability": "view",
      "type": "function"
    },
    {
      "inputs": [
        {
          "internalType": "uint256",
          "name": "tokenId",
          "type": "uint256"
        }
      ],
      "name": "tokenURI",
      "outputs": [
        {
          "internalType": "string",
          "name": "",
          "type": "string"
        }
      ],
      "stateMutability": "view",
      "type": "function"
    },
    {
      "inputs": [
        {
          "internalType": "address",
          "name": "newAdmin",
          "type": "address"
        }
      ],
      "name": "transferAdmin",
      "outputs": [],
      "stateMutability": "nonpayable",
      "type": "function"
    },
    {
      "inputs": [
        {
          "internalType": "address",
          "name": "",
          "type": "address"
        },
        {
          "internalType": "address",
          "name": "",
          "type": "address"
        },
        {
          "internalType": "uint256",
          "name": "",
          "type": "uint256"
        }
      ],
      "name": "transferFrom",
      "outputs": [],
      "stateMutability": "pure",
      "type": "function"
    }
  ],
  "transactionHash": "0x721b1f8ea2f00579492c53e13b5108eff851450e9dc9fa5f7c4cda92e9d61b5c",
  "args": [
    "0xBeA3b508a5Ce2E6C8462108f42c732Da7454c5cb",
    "0x8176735dE44c6a6e64C9153F2448B15F2F53cB31",
    "http://localhost:3000/api/achievements/"
  ],
  "numDeployments": 1,
  "solcInputHash": "08b5e0a763ecc0839a9481abc3a6f62a",
  "bytecode": "0x60a0604052346200059a57620023fc803803806200001d81620005d5565b9283398101906060818303126200059a576200003981620005fb565b916020926200004a848401620005fb565b60408401516001600160401b03949193918582116200059a570194601f928284880112156200059a5786518681116200059f57601f1997620000928287018a168501620005d5565b948286528483830101116200059a57839060005b8381106200058557505060009185010152620000c1620005b5565b94601a86527f4c696768744368616c6c656e676520416368696576656d656e7400000000000083870152620000f5620005b5565b91600492838152630988286960e31b8582015287518981116200048957600054986001998a81811c911680156200057a575b88821014620005655790818a8493116200050f575b5087908a8311600114620004aa576000926200049e575b5050600019600383901b1c191690891b176000555b805190898211620004895788548981811c911680156200047e575b87821014620004695790818984931162000413575b508690898311600114620003af57600092620003a3575b5050600019600383901b1c191690881b1787555b60078790556001600160a01b039081169182156200039257169081156200038157608052600a80546001600160a01b03191691909117905582519586116200036c57600654908582811c9216801562000361575b838310146200034c575083811162000300575b50809285116001146200029557508394509083929160009462000289575b50501b916000199060031b1c1916176006555b604051611deb908162000611823960805181818161066d0152818161104f015281816113e30152611bc30152f35b01519250388062000248565b929484908116600660005284600020946000905b88838310620002e55750505010620002cb575b505050811b016006556200025b565b015160001960f88460031b161c19169055388080620002bc565b858701518855909601959485019487935090810190620002a9565b6006600052816000208480880160051c82019284891062000342575b0160051c019085905b828110620003355750506200022a565b6000815501859062000325565b925081926200031c565b602290634e487b7160e01b6000525260246000fd5b91607f169162000217565b604190634e487b7160e01b6000525260246000fd5b60405163d92e233d60e01b81528390fd5b60405163d92e233d60e01b81528490fd5b015190503880620001af565b908c8b94169184600052886000209260005b8a828210620003fc5750508411620003e2575b505050811b018755620001c3565b015160001960f88460031b161c19169055388080620003d4565b8385015186558e97909501949384019301620003c1565b90915089600052866000208980850160051c8201928986106200045f575b918c91869594930160051c01915b8281106200044f57505062000198565b600081558594508c91016200043f565b9250819262000431565b602286634e487b7160e01b6000525260246000fd5b90607f169062000183565b604185634e487b7160e01b6000525260246000fd5b01519050388062000153565b908d8c94169160008052896000209260005b8b828210620004f85750508411620004de575b505050811b0160005562000168565b015160001960f88460031b161c19169055388080620004cf565b8385015186558f97909501949384019301620004bc565b90915060008052876000208a80850160051c8201928a86106200055b575b918d91869594930160051c01915b8281106200054b5750506200013c565b600081558594508d91016200053b565b925081926200052d565b602287634e487b7160e01b6000525260246000fd5b90607f169062000127565b818101830151878201840152859201620000a6565b600080fd5b634e487b7160e01b600052604160045260246000fd5b60408051919082016001600160401b038111838210176200059f57604052565b6040519190601f01601f191682016001600160401b038111838210176200059f57604052565b51906001600160a01b03821682036200059a5756fe608060408181526004918236101561001657600080fd5b600092833560e01c91826301ffc9a7146118035750816306fdde0314611752578163081812fc14611716578163095ea7b3146116ed5781630e18b6811461169b57816323b872dd1461167a578163267822471461165157816327aed72e146115f057816330176e131461143e57816342842e0e14611412578163485021b2146113ce5781634ff776b814610ffe5781636352211e14610fcd5781636ef9aeb714610f0e57816370a0823114610eb957816375794a3c14610e9a57816375829def14610e2d57816395d89b4114610d515781639fdb58c814610d30578163a22cb46514610cfc578163b45a3c0e14610cd4578163b88d4fde14610c4c578163c87b56dd14610a3e578163cfb1d5ea1461061b578163d547cfb7146105e6578163d83c3679146105a7578163e80f5e55146101dc57508063e985e9c51461018f5763f851a4401461016457600080fd5b3461018b578160031936011261018b57600a5490516001600160a01b039091168152602090f35b5080fd5b503461018b578060031936011261018b5760ff816020936101ae6118d0565b6101b66118eb565b6001600160a01b0391821683526005875283832091168252855220549151911615158152f35b83833461018b57606036600319011261018b576101f76118d0565b9160248035906044359060028210156105a357600a546001600160a01b03979088163303610595578787169485156105865784815260209860098a528782208783528a5261024785898420611b14565b546105765760075498600019808b1461056457888b88858f8c8f60086001938488016007558251936102788561198c565b845280840198895261028d8385019788611b39565b60608401976001600160401b03421689528d52528a20905181550193511683549151926002841015610552576001600160401b0360a81b905160a81b169260ff60a01b9060a01b169162ffffff60e81b16171717905587845260098c528984208985528c528a6102ff888c8720611b14565b558b8a519361030d856119bd565b8585528c8652600282528b86205416918215159182610526575b505089855260038d528a8520600181540190558b855260028d528a85208a6001600160601b0360a01b8254161790558b8a8c51937fddf252ad1be2c89b69c2b068fc378daa952ba7f163c4a11628f55a4df523b3ef8880a461051357503b6103db575b50505050600080516020611dbf8339815191528686927f032bc66be43dbccb7487781d168eb7bda224628a3b2c3388bdf69b532a3a1611828851868152a16103d487518092611936565ba451908152f35b918195928a859b9693839b9661041e8c9b9c519485938493630a85bd0160e11b9889865233908601528401528960448401526080606484015260848301906118ab565b03818a8d5af18791816104cf575b506104875750505050503d60001461047e573d610448816119f9565b90610455855192836119d8565b81528092823d92013e5b8151918261047b575050505191633250574960e11b8352820152fd5b01fd5b6060915061045f565b9499939896979692955090936001600160e01b031916036104bb575050600080516020611dbf83398151915286868961038a565b8551633250574960e11b8152908101859052fd5b9091508681813d831161050c575b6104e781836119d8565b8101031261050857516001600160e01b03198116810361050857908c61042c565b8780fd5b503d6104dd565b939150506339e3563760e11b8352820152fd5b8781528c872080546001600160a01b0319169055838752600390528b8620805490910190558d8d610327565b634e487b7160e01b895260218a528a89fd5b634e487b7160e01b8452601185528584fd5b8751631bbdf5c560e31b81528390fd5b50855163d92e233d60e01b8152fd5b8551637bfa4b9f60e01b8152fd5b8380fd5b50503461018b576105de602092826105be36611959565b918452600987528284206001600160a01b03909116845286529120611b14565b549051908152f35b50503461018b578160031936011261018b5761061790610604611a4e565b90519182916020835260208301906118ab565b0390f35b91905034610a3a5760209283600319360112610a3757823561063c81611ba2565b825163df3b1a5160e01b81528085018281523360208201526001600160a01b039591908790829081906040010381897f0000000000000000000000000000000000000000000000000000000000000000165afa908115610a2d578491610a00575b50156109f2578183526009865283832033845286528383208380528652838320546109e457600754946000198087146109d1576001870160075585516106e28161198c565b84815287898460018285019433865260088c8201948c865260608301966001600160401b03421688528d52528b8b209051815501935116835491519260028410156109be576001600160401b0360a81b905160a81b169260ff60a01b9060a01b169162ffffff60e81b16171717905583855260098852858520338652885285852085805288528686862055855191610779836119bd565b85835233156109a75787865260028952868620541690811515908161097c575b503380875260038a528787208054600101905588875260028a5287872080546001600160a01b031916821790558751928991907fddf252ad1be2c89b69c2b068fc378daa952ba7f163c4a11628f55a4df523b3ef8980a46109675750333b610845575b50507f032bc66be43dbccb7487781d168eb7bda224628a3b2c3388bdf69b532a3a1611858451868152a1825191825283600080516020611dbf833981519152863394a451908152f35b849693969592919551848180610882630a85bd0160e11b95868352338c8401528c60248401528860448401526080606484015260848301906118ab565b03818b335af1889181610923575b506108ef57505050503d6000146108e6573d6108ab816119f9565b906108b8845192836119d8565b81528094823d92013e5b835193846108e0578251633250574960e11b81523381860152602490fd5b84925001fd5b606093506108c2565b63ffffffff60e0989598979394971b160361090c575038806107fc565b602490845190633250574960e11b82523390820152fd5b9091508581813d8311610960575b61093b81836119d8565b8101031261095c57516001600160e01b03198116810361095c579038610890565b8880fd5b503d610931565b6339e3563760e11b8152828101859052602490fd5b848a5287872080546001600160a01b031916905582875260038a528787208054909101905538610799565b8651633250574960e11b8152808501879052602490fd5b634e487b7160e01b8a526021885260248afd5b634e487b7160e01b855260118352602485fd5b8351631bbdf5c560e31b8152fd5b835163721c7c6760e11b8152fd5b90508681813d8311610a26575b610a1781836119d8565b810103126105a357513861069d565b503d610a0d565b85513d86823e3d90fd5b80fd5b8280fd5b905034610a3a57602090816003193601126105a3578192938135610a6181611b45565b50610a6a611a4e565b805190939015610c305781829184937a184f03e93ff9f4daa797ed6e38ed64bf6a1f0100000000000000009081811015610c23575b5050866d04ee2d6d415b85acef810000000080851015610c15575b5050662386f26fc1000080841015610c06575b506305f5e10080841015610bf7575b5061271080841015610be9575b50506064821015610bd9575b600a80921015610bcf575b602190889360019281610b2e6001869401610b26610b1d826119f9565b9951998a6119d8565b8089526119f9565b878b019890601f1901368a3750860101905b610b99575b5050505092610b7c92610b88926106179588519583610b6d8895518092888089019101611888565b84019151809386840190611888565b010380845201826119d8565b925b519282849384528301906118ab565b600019019083906f181899199a1a9b1b9c1cb0b131b232b360811b8282061a835304918215610bca57919082610b40565b610b45565b9160010191610b00565b9190606460029104910191610af5565b930192909104903880610ae9565b60089194930492019238610adc565b60109194930492019238610acd565b940193909204918638610aba565b8a95500492503880610a9f565b5050845161061793509150610c44826119bd565b815292610b8a565b828434610a37576080366003190112610a3757610c676118d0565b50610c706118eb565b506064356001600160401b03811161018b573660238201121561018b578084013590610c9b826119f9565b90610ca8855192836119d8565b82825236602484830101116105a3579082602460209493018483013701015251636e10574960e01b8152fd5b828434610a37576020366003190112610a375750610cf460209235611b45565b505160018152f35b828434610a375781600319360112610a3757610d166118d0565b5060243580151503610a37575051636e10574960e01b8152fd5b50503461018b57610d47602092826105be36611959565b5415159051908152f35b828434610a375780600319360112610a3757815191828260019360015494610d7886611a14565b9182855260209687600182169182600014610e06575050600114610daa575b5050506106179291610b8a9103856119d8565b9190869350600183527fb10e2d527612073b26eecdfd717e6a320cf44b4afac2b0732d9fcbe2b7fa0cf65b828410610dee5750505082010181610b8a610617610d97565b8054848a018601528895508794909301928101610dd5565b60ff19168782015293151560051b86019093019350849250610b8a91506106179050610d97565b905034610a3a576020366003190112610a3a57610e486118d0565b600a546001600160a01b03919082163303610e8a5716918215610e7d5750506001600160601b0360a01b600b541617600b5580f35b5163d92e233d60e01b8152fd5b8351637bfa4b9f60e01b81528390fd5b50503461018b578160031936011261018b576020906007549051908152f35b828434610a37576020366003190112610a37576001600160a01b03610edc6118d0565b16928315610ef95750806020938392526003845220549051908152f35b91516322718ad960e21b815291820152602490fd5b905034610a3a576020366003190112610a3a576080928291358160608451610f358161198c565b82815282602082015282868201520152610f4e81611b45565b508152600860205220906001815192610f668461198c565b8054845201546001600160a01b038082166020850190815292610fc49181860190610f9860a086901c60ff1683611b39565b6001600160401b039586606089019660a81c168652835197518852511660208701525190850190611936565b51166060820152f35b828434610a37576020366003190112610a375750610fed60209235611b45565b90516001600160a01b039091168152f35b83833461018b5760209283600319360112610a3a57803561101e81611ba2565b825163bdd415af60e01b81528281018281523360208201526001600160a01b039591908790829081906040010381897f0000000000000000000000000000000000000000000000000000000000000000165afa9081156113c457829161138f575b501561137f5781815260098652838120338252865283812092600193848352875284822054611371576007549560001980881461135e5785880160075586516110c78161198c565b858152888a84898285019433865260088d82019483865260608301966001600160401b03421688528c52528c8a2090518155019351168354915192600284101561134b576001600160401b0360a81b905160a81b169260ff60a01b9060a01b169162ffffff60e81b1617171790558484526009895286842033855289528684208685528952878785205586519161115d836119bd565b84835233156113345788855260028a528785205416908115159081611309575b503380865260038b5288862080548901905589865260028b5288862080546001600160a01b031916821790558851928a91907fddf252ad1be2c89b69c2b068fc378daa952ba7f163c4a11628f55a4df523b3ef8880a46112f45750333b611229575b5050507f032bc66be43dbccb7487781d168eb7bda224628a3b2c3388bdf69b532a3a1611858451868152a1825191825283600080516020611dbf833981519152863394a451908152f35b85979492979693919651858180611267630a85bd0160e11b95868352338d8401528d60248401528960448401526080606484015260848301906118ab565b03818c335af18991816112b0575b506112915750505050503d6000146108e6573d6108ab816119f9565b909193969294975063ffffffff60e01b160361090c57508580806111df565b9091508681813d83116112ed575b6112c881836119d8565b810103126112e957516001600160e01b0319811681036112e957908a611275565b8980fd5b503d6112be565b6339e3563760e11b8152828101849052602490fd5b848b5288862080546001600160a01b031916905582865260038b52888620805490910190558a61117d565b8751633250574960e11b8152808501869052602490fd5b634e487b7160e01b895260218852602489fd5b634e487b7160e01b845260118352602484fd5b8451631bbdf5c560e31b8152fd5b83516330c6392160e11b81528390fd5b90508681813d83116113bd575b6113a681836119d8565b8101031261018b576113b790611b2c565b8761107f565b503d61139c565b85513d84823e3d90fd5b50503461018b578160031936011261018b57517f00000000000000000000000000000000000000000000000000000000000000006001600160a01b03168152602090f35b828434610a375761142236611901565b5050508151611430816119bd565b5251636e10574960e01b8152fd5b8391503461018b576020926020600319360112610a3a5781356001600160401b03928382116115ec57366023830112156115ec57818101359384116115ec5760249236602486850101116115e857600a546001600160a01b031633036115db5750506114ab600654611a14565b601f811161157c575b508391601f84116001146114f457508383949550926114e6575b50508160011b916000199060031b1c19161760065580f35b6024925001013583806114ce565b91947ff652222313e28459528d920b65115c16c04f3efc82aaedc97be59f3f377c0d3f92601f1985169186915b8383106115605750505094836001959610611543575b505050811b0160065580f35b0160240135600019600384901b60f8161c19169055838080611537565b908060018a978483969c89010135815501960198019190611521565b7ff652222313e28459528d920b65115c16c04f3efc82aaedc97be59f3f377c0d3f601f850160051c810191602086106115d1575b601f0160051c01905b8181106115c657506114b4565b8581556001016115b9565b90915081906115b0565b51637bfa4b9f60e01b8152fd5b8580fd5b8480fd5b905034610a3a576020366003190112610a3a57816080936001600160401b0392358152600860205220916116466001845494015491805194855260018060a01b0383166020860152840160ff8360a01c16611936565b60a81c166060820152f35b50503461018b578160031936011261018b57600b5490516001600160a01b039091168152602090f35b828434610a37575061168b36611901565b50505051636e10574960e01b8152fd5b905034610a3a5782600319360112610a3a57600b54916001600160a01b03831633036116e05750506001600160601b0360a01b903382600a541617600a5516600b5580f35b5163058d9a1b60e01b8152fd5b828434610a375781600319360112610a3757506117086118d0565b5051636e10574960e01b8152fd5b905034610a3a576020366003190112610a3a5791826020933561173881611b45565b50825283528190205490516001600160a01b039091168152f35b828434610a375780600319360112610a37578151918282835461177481611a14565b9081845260209560019187600182169182600014610e065750506001146117a8575050506106179291610b8a9103856119d8565b91908693508280527f290decd9548b62a8d60345a988386fc84ba6bc95484008f6362f93160ef3e5635b8284106117eb5750505082010181610b8a610617610d97565b8054848a0186015288955087949093019281016117d2565b849134610a3a576020366003190112610a3a573563ffffffff60e01b8116809103610a3a5760209250635a2d1e0760e11b8114908115611845575b5015158152f35b6380ac58cd60e01b811491508115611877575b8115611866575b508361183e565b6301ffc9a760e01b1490508361185f565b635b5e139f60e01b81149150611858565b60005b83811061189b5750506000910152565b818101518382015260200161188b565b906020916118c481518092818552858086019101611888565b601f01601f1916010190565b600435906001600160a01b03821682036118e657565b600080fd5b602435906001600160a01b03821682036118e657565b60609060031901126118e6576001600160a01b039060043582811681036118e6579160243590811681036118e6579060443590565b9060028210156119435752565b634e487b7160e01b600052602160045260246000fd5b60609060031901126118e657600435906024356001600160a01b03811681036118e6579060443560028110156118e65790565b608081019081106001600160401b038211176119a757604052565b634e487b7160e01b600052604160045260246000fd5b602081019081106001600160401b038211176119a757604052565b90601f801991011681019081106001600160401b038211176119a757604052565b6001600160401b0381116119a757601f01601f191660200190565b90600182811c92168015611a44575b6020831014611a2e57565b634e487b7160e01b600052602260045260246000fd5b91607f1691611a23565b6040519060008260065491611a6283611a14565b80835292602090600190818116908115611af05750600114611a8f575b5050611a8d925003836119d8565b565b91509260066000527ff652222313e28459528d920b65115c16c04f3efc82aaedc97be59f3f377c0d3f936000925b828410611ad85750611a8d9450505081016020013880611a7f565b85548885018301529485019487945092810192611abd565b91505060209250611a8d94915060ff191682840152151560051b8201013880611a7f565b90600281101561194357600052602052604060002090565b519081151582036118e657565b60028210156119435752565b6000818152600260205260409020546001600160a01b0316908115611b68575090565b60249060405190637e27328960e01b82526004820152fd5b519060ff821682036118e657565b51906001600160a01b03821682036118e657565b604080516306f752dd60e21b81526004810192909252906102a080826024817f00000000000000000000000000000000000000000000000000000000000000006001600160a01b03165afa918215611db357908391600093611c22575b505060ff9060019201511603611c125750565b51630df706ad60e11b8152600490fd5b9150918282813d8311611dac575b611c3a81836119d8565b81010312610a375783519283018381106001600160401b03821117611d9857845281518352611c6b60208301611b80565b6020840152611c7b848301611b80565b84840152611c8b60608301611b80565b6060840152611c9c60808301611b8e565b6080840152611cad60a08301611b80565b60a0840152611cbe60c08301611b8e565b60c084015260e082015160e0840152610100808301519084015261012080830151908401526101408083015190840152610160808301519084015261018080830151908401526101a080830151908401526101c0611d1d818401611b8e565b908401526101e08083015190840152610200808301519163ffffffff83168303610a3757509260ff9285926001958301526102208082015190830152610240611d67818301611b2c565b90830152610260611d79818301611b2c565b90830152611d8b610280809201611b2c565b9082015292819250611bff565b634e487b7160e01b82526041600452602482fd5b503d611c30565b83513d6000823e3d90fdfed6ca15e2b5a48c6c8f6e85125533f29eb1ec1d657fd20bbd993f89428300615fa164736f6c6343000818000a",
  "devdoc": {
    "errors": {
      "ERC721IncorrectOwner(address,uint256,address)": [
        {
          "details": "Indicates an error related to the ownership over a particular token. Used in transfers.",
          "params": {
            "owner": "Address of the current owner of a token.",
            "sender": "Address whose tokens are being transferred.",
            "tokenId": "Identifier number of a token."
          }
        }
      ],
      "ERC721InsufficientApproval(address,uint256)": [
        {
          "details": "Indicates a failure with the `operator`’s approval. Used in transfers.",
          "params": {
            "operator": "Address that may be allowed to operate on tokens without being their owner.",
            "tokenId": "Identifier number of a token."
          }
        }
      ],
      "ERC721InvalidApprover(address)": [
        {
          "details": "Indicates a failure with the `approver` of a token to be approved. Used in approvals.",
          "params": {
            "approver": "Address initiating an approval operation."
          }
        }
      ],
      "ERC721InvalidOperator(address)": [
        {
          "details": "Indicates a failure with the `operator` to be approved. Used in approvals.",
          "params": {
            "operator": "Address that may be allowed to operate on tokens without being their owner."
          }
        }
      ],
      "ERC721InvalidOwner(address)": [
        {
          "details": "Indicates that an address can't be an owner. For example, `address(0)` is a forbidden owner in ERC-20. Used in balance queries.",
          "params": {
            "owner": "Address of the current owner of a token."
          }
        }
      ],
      "ERC721InvalidReceiver(address)": [
        {
          "details": "Indicates a failure with the token `receiver`. Used in transfers.",
          "params": {
            "receiver": "Address to which tokens are being transferred."
          }
        }
      ],
      "ERC721InvalidSender(address)": [
        {
          "details": "Indicates a failure with the token `sender`. Used in transfers.",
          "params": {
            "sender": "Address whose tokens are being transferred."
          }
        }
      ],
      "ERC721NonexistentToken(uint256)": [
        {
          "details": "Indicates a `tokenId` whose `owner` is the zero address.",
          "params": {
            "tokenId": "Identifier number of a token."
          }
        }
      ]
    },
    "events": {
      "Approval(address,address,uint256)": {
        "details": "Emitted when `owner` enables `approved` to manage the `tokenId` token."
      },
      "ApprovalForAll(address,address,bool)": {
        "details": "Emitted when `owner` enables or disables (`approved`) `operator` to manage all of its assets."
      },
      "Transfer(address,address,uint256)": {
        "details": "Emitted when `tokenId` token is transferred from `from` to `to`."
      }
    },
    "kind": "dev",
    "methods": {
      "balanceOf(address)": {
        "details": "Returns the number of tokens in ``owner``'s account."
      },
      "claimCompletion(uint256)": {
        "params": {
          "challengeId": "The challenge ID on ChallengePay."
        }
      },
      "claimVictory(uint256)": {
        "params": {
          "challengeId": "The challenge ID on ChallengePay."
        }
      },
      "getApproved(uint256)": {
        "details": "Returns the account approved for `tokenId` token. Requirements: - `tokenId` must exist."
      },
      "isApprovedForAll(address,address)": {
        "details": "Returns if the `operator` is allowed to manage all of the assets of `owner`. See {setApprovalForAll}"
      },
      "name()": {
        "details": "Returns the token collection name."
      },
      "ownerOf(uint256)": {
        "details": "Returns the owner of the `tokenId` token. Requirements: - `tokenId` must exist."
      },
      "safeTransferFrom(address,address,uint256)": {
        "details": "Safely transfers `tokenId` token from `from` to `to`, checking first that contract recipients are aware of the ERC-721 protocol to prevent tokens from being forever locked. Requirements: - `from` cannot be the zero address. - `to` cannot be the zero address. - `tokenId` token must exist and be owned by `from`. - If the caller is not `from`, it must have been allowed to move this token by either {approve} or   {setApprovalForAll}. - If `to` refers to a smart contract, it must implement {IERC721Receiver-onERC721Received}, which is called upon   a safe transfer. Emits a {Transfer} event."
      },
      "supportsInterface(bytes4)": {
        "details": "Returns true if this contract implements the interface defined by `interfaceId`. See the corresponding https://eips.ethereum.org/EIPS/eip-165#how-interfaces-are-identified[ERC section] to learn more about how these ids are created. This function call must use less than 30 000 gas."
      },
      "symbol()": {
        "details": "Returns the token collection symbol."
      },
      "tokenURI(uint256)": {
        "details": "Returns the Uniform Resource Identifier (URI) for `tokenId` token."
      }
    },
    "title": "ChallengeAchievement",
    "version": 1
  },
  "userdoc": {
    "events": {
      "Locked(uint256)": {
        "notice": "Emitted when the locking status is changed to locked."
      },
      "Unlocked(uint256)": {
        "notice": "Emitted when the locking status is changed to unlocked."
      }
    },
    "kind": "user",
    "methods": {
      "achievements(uint256)": {
        "notice": "Per-token metadata"
      },
      "admin()": {
        "notice": "2-step admin"
      },
      "adminMint(address,uint256,uint8)": {
        "notice": "Admin mint for edge cases (retroactive, special events)."
      },
      "claimCompletion(uint256)": {
        "notice": "Claim a Completion achievement for a finalized challenge."
      },
      "claimVictory(uint256)": {
        "notice": "Claim a Victory achievement for a finalized challenge you won."
      },
      "locked(uint256)": {
        "notice": "ERC-5192: all tokens are permanently locked (soulbound)."
      },
      "minted(uint256,address,uint8)": {
        "notice": "Double-mint protection: minted[challengeId][user][type] → tokenId         Zero means not minted."
      }
    },
    "notice": "Soulbound (non-transferable) ERC-721 tokens representing verified         challenge accomplishments. Reads ChallengePay state to verify         eligibility on-chain. No funds, no payouts — purely additive. Achievement types:   0 = Completion  — participated in a finalized challenge   1 = Victory     — won a finalized challenge Integration:   ChallengeAchievement ──reads──→ ChallengePay (read-only)   ChallengePay knows nothing about this contract.",
    "version": 1
  },
  "storageLayout": {
    "storage": [
      {
        "astId": 169,
        "contract": "contracts/ChallengeAchievement.sol:ChallengeAchievement",
        "label": "_name",
        "offset": 0,
        "slot": "0",
        "type": "t_string_storage"
      },
      {
        "astId": 171,
        "contract": "contracts/ChallengeAchievement.sol:ChallengeAchievement",
        "label": "_symbol",
        "offset": 0,
        "slot": "1",
        "type": "t_string_storage"
      },
      {
        "astId": 175,
        "contract": "contracts/ChallengeAchievement.sol:ChallengeAchievement",
        "label": "_owners",
        "offset": 0,
        "slot": "2",
        "type": "t_mapping(t_uint256,t_address)"
      },
      {
        "astId": 179,
        "contract": "contracts/ChallengeAchievement.sol:ChallengeAchievement",
        "label": "_balances",
        "offset": 0,
        "slot": "3",
        "type": "t_mapping(t_address,t_uint256)"
      },
      {
        "astId": 183,
        "contract": "contracts/ChallengeAchievement.sol:ChallengeAchievement",
        "label": "_tokenApprovals",
        "offset": 0,
        "slot": "4",
        "type": "t_mapping(t_uint256,t_address)"
      },
      {
        "astId": 189,
        "contract": "contracts/ChallengeAchievement.sol:ChallengeAchievement",
        "label": "_operatorApprovals",
        "offset": 0,
        "slot": "5",
        "type": "t_mapping(t_address,t_mapping(t_address,t_bool))"
      },
      {
        "astId": 6528,
        "contract": "contracts/ChallengeAchievement.sol:ChallengeAchievement",
        "label": "baseTokenURI",
        "offset": 0,
        "slot": "6",
        "type": "t_string_storage"
      },
      {
        "astId": 6531,
        "contract": "contracts/ChallengeAchievement.sol:ChallengeAchievement",
        "label": "nextTokenId",
        "offset": 0,
        "slot": "7",
        "type": "t_uint256"
      },
      {
        "astId": 6537,
        "contract": "contracts/ChallengeAchievement.sol:ChallengeAchievement",
        "label": "achievements",
        "offset": 0,
        "slot": "8",
        "type": "t_mapping(t_uint256,t_struct(Achievement)6496_storage)"
      },
      {
        "astId": 6547,
        "contract": "contracts/ChallengeAchievement.sol:ChallengeAchievement",
        "label": "minted",
        "offset": 0,
        "slot": "9",
        "type": "t_mapping(t_uint256,t_mapping(t_address,t_mapping(t_enum(AchievementType)6486,t_uint256)))"
      },
      {
        "astId": 6550,
        "contract": "contracts/ChallengeAchievement.sol:ChallengeAchievement",
        "label": "admin",
        "offset": 0,
        "slot": "10",
        "type": "t_address"
      },
      {
        "astId": 6552,
        "contract": "contracts/ChallengeAchievement.sol:ChallengeAchievement",
        "label": "pendingAdmin",
        "offset": 0,
        "slot": "11",
        "type": "t_address"
      }
    ],
    "types": {
      "t_address": {
        "encoding": "inplace",
        "label": "address",
        "numberOfBytes": "20"
      },
      "t_bool": {
        "encoding": "inplace",
        "label": "bool",
        "numberOfBytes": "1"
      },
      "t_enum(AchievementType)6486": {
        "encoding": "inplace",
        "label": "enum ChallengeAchievement.AchievementType",
        "numberOfBytes": "1"
      },
      "t_mapping(t_address,t_bool)": {
        "encoding": "mapping",
        "key": "t_address",
        "label": "mapping(address => bool)",
        "numberOfBytes": "32",
        "value": "t_bool"
      },
      "t_mapping(t_address,t_mapping(t_address,t_bool))": {
        "encoding": "mapping",
        "key": "t_address",
        "label": "mapping(address => mapping(address => bool))",
        "numberOfBytes": "32",
        "value": "t_mapping(t_address,t_bool)"
      },
      "t_mapping(t_address,t_mapping(t_enum(AchievementType)6486,t_uint256))": {
        "encoding": "mapping",
        "key": "t_address",
        "label": "mapping(address => mapping(enum ChallengeAchievement.AchievementType => uint256))",
        "numberOfBytes": "32",
        "value": "t_mapping(t_enum(AchievementType)6486,t_uint256)"
      },
      "t_mapping(t_address,t_uint256)": {
        "encoding": "mapping",
        "key": "t_address",
        "label": "mapping(address => uint256)",
        "numberOfBytes": "32",
        "value": "t_uint256"
      },
      "t_mapping(t_enum(AchievementType)6486,t_uint256)": {
        "encoding": "mapping",
        "key": "t_enum(AchievementType)6486",
        "label": "mapping(enum ChallengeAchievement.AchievementType => uint256)",
        "numberOfBytes": "32",
        "value": "t_uint256"
      },
      "t_mapping(t_uint256,t_address)": {
        "encoding": "mapping",
        "key": "t_uint256",
        "label": "mapping(uint256 => address)",
        "numberOfBytes": "32",
        "value": "t_address"
      },
      "t_mapping(t_uint256,t_mapping(t_address,t_mapping(t_enum(AchievementType)6486,t_uint256)))": {
        "encoding": "mapping",
        "key": "t_uint256",
        "label": "mapping(uint256 => mapping(address => mapping(enum ChallengeAchievement.AchievementType => uint256)))",
        "numberOfBytes": "32",
        "value": "t_mapping(t_address,t_mapping(t_enum(AchievementType)6486,t_uint256))"
      },
      "t_mapping(t_uint256,t_struct(Achievement)6496_storage)": {
        "encoding": "mapping",
        "key": "t_uint256",
        "label": "mapping(uint256 => struct ChallengeAchievement.Achievement)",
        "numberOfBytes": "32",
        "value": "t_struct(Achievement)6496_storage"
      },
      "t_string_storage": {
        "encoding": "bytes",
        "label": "string",
        "numberOfBytes": "32"
      },
      "t_struct(Achievement)6496_storage": {
        "encoding": "inplace",
        "label": "struct ChallengeAchievement.Achievement",
        "members": [
          {
            "astId": 6488,
            "contract": "contracts/ChallengeAchievement.sol:ChallengeAchievement",
            "label": "challengeId",
            "offset": 0,
            "slot": "0",
            "type": "t_uint256"
          },
          {
            "astId": 6490,
            "contract": "contracts/ChallengeAchievement.sol:ChallengeAchievement",
            "label": "recipient",
            "offset": 0,
            "slot": "1",
            "type": "t_address"
          },
          {
            "astId": 6493,
            "contract": "contracts/ChallengeAchievement.sol:ChallengeAchievement",
            "label": "aType",
            "offset": 20,
            "slot": "1",
            "type": "t_enum(AchievementType)6486"
          },
          {
            "astId": 6495,
            "contract": "contracts/ChallengeAchievement.sol:ChallengeAchievement",
            "label": "mintedAt",
            "offset": 21,
            "slot": "1",
            "type": "t_uint64"
          }
        ],
        "numberOfBytes": "64"
      },
      "t_uint256": {
        "encoding": "inplace",
        "label": "uint256",
        "numberOfBytes": "32"
      },
      "t_uint64": {
        "encoding": "inplace",
        "label": "uint64",
        "numberOfBytes": "8"
      }
    }
  }
}