{
  "address": "0xBeA3b508a5Ce2E6C8462108f42c732Da7454c5cb",
  "abi": [
    {
      "inputs": [
        {
          "internalType": "address",
          "name": "_treasury",
          "type": "address"
        },
        {
          "internalType": "address",
          "name": "_protocol",
          "type": "address"
        }
      ],
      "stateMutability": "nonpayable",
      "type": "constructor"
    },
    {
      "inputs": [],
      "name": "AlreadyCanceled",
      "type": "error"
    },
    {
      "inputs": [],
      "name": "AlreadyFinalized",
      "type": "error"
    },
    {
      "inputs": [],
      "name": "AlreadyWinner",
      "type": "error"
    },
    {
      "inputs": [],
      "name": "AmountZero",
      "type": "error"
    },
    {
      "inputs": [],
      "name": "BeforeDeadline",
      "type": "error"
    },
    {
      "inputs": [],
      "name": "ChallengeNotFinalized",
      "type": "error"
    },
    {
      "inputs": [],
      "name": "ChallengePaused",
      "type": "error"
    },
    {
      "inputs": [],
      "name": "DeadlineRequired",
      "type": "error"
    },
    {
      "inputs": [],
      "name": "ExternalIdAlreadyUsed",
      "type": "error"
    },
    {
      "inputs": [],
      "name": "GlobalPausedError",
      "type": "error"
    },
    {
      "inputs": [],
      "name": "InvalidBounds",
      "type": "error"
    },
    {
      "inputs": [],
      "name": "JoinClosesAfterStart",
      "type": "error"
    },
    {
      "inputs": [],
      "name": "JoinWindowClosed",
      "type": "error"
    },
    {
      "inputs": [],
      "name": "LeadTimeOutOfBounds",
      "type": "error"
    },
    {
      "inputs": [],
      "name": "MaxParticipantsReached",
      "type": "error"
    },
    {
      "inputs": [],
      "name": "NotActive",
      "type": "error"
    },
    {
      "inputs": [],
      "name": "NotAdmin",
      "type": "error"
    },
    {
      "inputs": [],
      "name": "NotCreatorOrAdmin",
      "type": "error"
    },
    {
      "inputs": [],
      "name": "NotEligible",
      "type": "error"
    },
    {
      "inputs": [],
      "name": "NotPendingAdmin",
      "type": "error"
    },
    {
      "inputs": [],
      "name": "ProofDeadlineBeforeEnd",
      "type": "error"
    },
    {
      "inputs": [],
      "name": "ProofNotOpen",
      "type": "error"
    },
    {
      "inputs": [],
      "name": "ProofWindowClosed",
      "type": "error"
    },
    {
      "inputs": [],
      "name": "ReentrancyGuardReentrantCall",
      "type": "error"
    },
    {
      "inputs": [],
      "name": "StartTooSoon",
      "type": "error"
    },
    {
      "inputs": [],
      "name": "TightenOnlyViolation",
      "type": "error"
    },
    {
      "inputs": [],
      "name": "TokenNotAllowed",
      "type": "error"
    },
    {
      "inputs": [],
      "name": "WrongMsgValue",
      "type": "error"
    },
    {
      "inputs": [],
      "name": "ZeroAddress",
      "type": "error"
    },
    {
      "anonymous": false,
      "inputs": [
        {
          "indexed": true,
          "internalType": "address",
          "name": "oldAdmin",
          "type": "address"
        },
        {
          "indexed": true,
          "internalType": "address",
          "name": "newAdmin",
          "type": "address"
        }
      ],
      "name": "AdminTransferAccepted",
      "type": "event"
    },
    {
      "anonymous": false,
      "inputs": [
        {
          "indexed": true,
          "internalType": "address",
          "name": "oldAdmin",
          "type": "address"
        },
        {
          "indexed": true,
          "internalType": "address",
          "name": "newPendingAdmin",
          "type": "address"
        }
      ],
      "name": "AdminTransferStarted",
      "type": "event"
    },
    {
      "anonymous": false,
      "inputs": [
        {
          "indexed": true,
          "internalType": "uint256",
          "name": "id",
          "type": "uint256"
        }
      ],
      "name": "Canceled",
      "type": "event"
    },
    {
      "anonymous": false,
      "inputs": [
        {
          "indexed": true,
          "internalType": "uint256",
          "name": "id",
          "type": "uint256"
        },
        {
          "indexed": true,
          "internalType": "address",
          "name": "creator",
          "type": "address"
        },
        {
          "indexed": false,
          "internalType": "uint8",
          "name": "kind",
          "type": "uint8"
        },
        {
          "indexed": false,
          "internalType": "uint8",
          "name": "currency",
          "type": "uint8"
        },
        {
          "indexed": false,
          "internalType": "address",
          "name": "token",
          "type": "address"
        },
        {
          "indexed": false,
          "internalType": "uint256",
          "name": "startTs",
          "type": "uint256"
        },
        {
          "indexed": false,
          "internalType": "bytes32",
          "name": "externalId",
          "type": "bytes32"
        }
      ],
      "name": "ChallengeCreated",
      "type": "event"
    },
    {
      "anonymous": false,
      "inputs": [
        {
          "indexed": true,
          "internalType": "address",
          "name": "creator",
          "type": "address"
        },
        {
          "indexed": false,
          "internalType": "bool",
          "name": "allowed",
          "type": "bool"
        }
      ],
      "name": "CreatorAllowed",
      "type": "event"
    },
    {
      "anonymous": false,
      "inputs": [
        {
          "indexed": false,
          "internalType": "bool",
          "name": "enabled",
          "type": "bool"
        }
      ],
      "name": "CreatorAllowlistSet",
      "type": "event"
    },
    {
      "anonymous": false,
      "inputs": [
        {
          "indexed": false,
          "internalType": "uint16",
          "name": "forfeitFeeMaxBps",
          "type": "uint16"
        },
        {
          "indexed": false,
          "internalType": "uint16",
          "name": "cashbackMaxBps",
          "type": "uint16"
        }
      ],
      "name": "FeeCapsSet",
      "type": "event"
    },
    {
      "anonymous": false,
      "inputs": [
        {
          "indexed": false,
          "internalType": "uint16",
          "name": "forfeitFeeBps",
          "type": "uint16"
        },
        {
          "indexed": false,
          "internalType": "uint16",
          "name": "protocolBps",
          "type": "uint16"
        },
        {
          "indexed": false,
          "internalType": "uint16",
          "name": "creatorBps",
          "type": "uint16"
        },
        {
          "indexed": false,
          "internalType": "uint16",
          "name": "cashbackBps",
          "type": "uint16"
        }
      ],
      "name": "FeeConfigSet",
      "type": "event"
    },
    {
      "anonymous": false,
      "inputs": [
        {
          "indexed": true,
          "internalType": "uint256",
          "name": "id",
          "type": "uint256"
        },
        {
          "indexed": false,
          "internalType": "uint256",
          "name": "protocolAmt",
          "type": "uint256"
        },
        {
          "indexed": false,
          "internalType": "uint256",
          "name": "creatorAmt",
          "type": "uint256"
        },
        {
          "indexed": false,
          "internalType": "uint256",
          "name": "cashback",
          "type": "uint256"
        }
      ],
      "name": "FeesBooked",
      "type": "event"
    },
    {
      "anonymous": false,
      "inputs": [
        {
          "indexed": true,
          "internalType": "uint256",
          "name": "id",
          "type": "uint256"
        },
        {
          "indexed": false,
          "internalType": "uint8",
          "name": "status",
          "type": "uint8"
        },
        {
          "indexed": false,
          "internalType": "uint8",
          "name": "outcome",
          "type": "uint8"
        }
      ],
      "name": "Finalized",
      "type": "event"
    },
    {
      "anonymous": false,
      "inputs": [
        {
          "indexed": false,
          "internalType": "bool",
          "name": "paused",
          "type": "bool"
        }
      ],
      "name": "GlobalPaused",
      "type": "event"
    },
    {
      "anonymous": false,
      "inputs": [
        {
          "indexed": true,
          "internalType": "uint256",
          "name": "id",
          "type": "uint256"
        },
        {
          "indexed": true,
          "internalType": "address",
          "name": "user",
          "type": "address"
        },
        {
          "indexed": false,
          "internalType": "uint256",
          "name": "amount",
          "type": "uint256"
        }
      ],
      "name": "Joined",
      "type": "event"
    },
    {
      "anonymous": false,
      "inputs": [
        {
          "indexed": false,
          "internalType": "uint256",
          "name": "minLeadTime",
          "type": "uint256"
        },
        {
          "indexed": false,
          "internalType": "uint256",
          "name": "maxLeadTime",
          "type": "uint256"
        }
      ],
      "name": "LeadTimeBoundsSet",
      "type": "event"
    },
    {
      "anonymous": false,
      "inputs": [
        {
          "indexed": true,
          "internalType": "uint256",
          "name": "id",
          "type": "uint256"
        },
        {
          "indexed": true,
          "internalType": "address",
          "name": "user",
          "type": "address"
        },
        {
          "indexed": false,
          "internalType": "uint256",
          "name": "amount",
          "type": "uint256"
        }
      ],
      "name": "LoserClaimed",
      "type": "event"
    },
    {
      "anonymous": false,
      "inputs": [
        {
          "indexed": true,
          "internalType": "uint256",
          "name": "id",
          "type": "uint256"
        },
        {
          "indexed": true,
          "internalType": "address",
          "name": "participant",
          "type": "address"
        },
        {
          "indexed": true,
          "internalType": "address",
          "name": "verifier",
          "type": "address"
        },
        {
          "indexed": false,
          "internalType": "bool",
          "name": "ok",
          "type": "bool"
        }
      ],
      "name": "ParticipantProofSubmitted",
      "type": "event"
    },
    {
      "anonymous": false,
      "inputs": [
        {
          "indexed": true,
          "internalType": "uint256",
          "name": "id",
          "type": "uint256"
        },
        {
          "indexed": false,
          "internalType": "bool",
          "name": "paused",
          "type": "bool"
        }
      ],
      "name": "Paused",
      "type": "event"
    },
    {
      "anonymous": false,
      "inputs": [
        {
          "indexed": false,
          "internalType": "bool",
          "name": "enabled",
          "type": "bool"
        }
      ],
      "name": "ProofTightenOnlySet",
      "type": "event"
    },
    {
      "anonymous": false,
      "inputs": [
        {
          "indexed": true,
          "internalType": "uint256",
          "name": "id",
          "type": "uint256"
        },
        {
          "indexed": true,
          "internalType": "address",
          "name": "user",
          "type": "address"
        },
        {
          "indexed": false,
          "internalType": "uint256",
          "name": "amount",
          "type": "uint256"
        }
      ],
      "name": "RefundClaimed",
      "type": "event"
    },
    {
      "anonymous": false,
      "inputs": [
        {
          "indexed": true,
          "internalType": "uint256",
          "name": "id",
          "type": "uint256"
        },
        {
          "indexed": false,
          "internalType": "bool",
          "name": "success",
          "type": "bool"
        }
      ],
      "name": "SnapshotSet",
      "type": "event"
    },
    {
      "anonymous": false,
      "inputs": [
        {
          "indexed": true,
          "internalType": "address",
          "name": "token",
          "type": "address"
        },
        {
          "indexed": false,
          "internalType": "bool",
          "name": "allowed",
          "type": "bool"
        }
      ],
      "name": "TokenAllowed",
      "type": "event"
    },
    {
      "anonymous": false,
      "inputs": [
        {
          "indexed": false,
          "internalType": "bool",
          "name": "enabled",
          "type": "bool"
        }
      ],
      "name": "TokenAllowlistSet",
      "type": "event"
    },
    {
      "anonymous": false,
      "inputs": [
        {
          "indexed": true,
          "internalType": "address",
          "name": "forwarder",
          "type": "address"
        }
      ],
      "name": "TrustedForwarderSet",
      "type": "event"
    },
    {
      "anonymous": false,
      "inputs": [
        {
          "indexed": true,
          "internalType": "uint256",
          "name": "id",
          "type": "uint256"
        },
        {
          "indexed": false,
          "internalType": "address",
          "name": "verifier",
          "type": "address"
        },
        {
          "indexed": false,
          "internalType": "uint256",
          "name": "proofDeadlineTs",
          "type": "uint256"
        }
      ],
      "name": "VerificationConfigUpdated",
      "type": "event"
    },
    {
      "anonymous": false,
      "inputs": [
        {
          "indexed": true,
          "internalType": "uint256",
          "name": "id",
          "type": "uint256"
        },
        {
          "indexed": true,
          "internalType": "address",
          "name": "user",
          "type": "address"
        },
        {
          "indexed": false,
          "internalType": "uint256",
          "name": "amount",
          "type": "uint256"
        }
      ],
      "name": "WinnerClaimed",
      "type": "event"
    },
    {
      "anonymous": false,
      "inputs": [
        {
          "indexed": true,
          "internalType": "uint256",
          "name": "id",
          "type": "uint256"
        },
        {
          "indexed": true,
          "internalType": "address",
          "name": "participant",
          "type": "address"
        },
        {
          "indexed": false,
          "internalType": "uint256",
          "name": "contrib",
          "type": "uint256"
        },
        {
          "indexed": false,
          "internalType": "uint256",
          "name": "winnersPool",
          "type": "uint256"
        },
        {
          "indexed": false,
          "internalType": "uint32",
          "name": "winnersCount",
          "type": "uint32"
        }
      ],
      "name": "WinnerMarked",
      "type": "event"
    },
    {
      "inputs": [],
      "name": "acceptAdmin",
      "outputs": [],
      "stateMutability": "nonpayable",
      "type": "function"
    },
    {
      "inputs": [],
      "name": "admin",
      "outputs": [
        {
          "internalType": "address",
          "name": "",
          "type": "address"
        }
      ],
      "stateMutability": "view",
      "type": "function"
    },
    {
      "inputs": [
        {
          "internalType": "address",
          "name": "",
          "type": "address"
        }
      ],
      "name": "allowedToken",
      "outputs": [
        {
          "internalType": "bool",
          "name": "",
          "type": "bool"
        }
      ],
      "stateMutability": "view",
      "type": "function"
    },
    {
      "inputs": [
        {
          "internalType": "uint256",
          "name": "id",
          "type": "uint256"
        }
      ],
      "name": "cancelChallenge",
      "outputs": [],
      "stateMutability": "nonpayable",
      "type": "function"
    },
    {
      "inputs": [
        {
          "internalType": "uint256",
          "name": "",
          "type": "uint256"
        }
      ],
      "name": "cancelRefundStaged",
      "outputs": [
        {
          "internalType": "bool",
          "name": "",
          "type": "bool"
        }
      ],
      "stateMutability": "view",
      "type": "function"
    },
    {
      "inputs": [
        {
          "internalType": "uint256",
          "name": "id",
          "type": "uint256"
        }
      ],
      "name": "claimLoser",
      "outputs": [],
      "stateMutability": "nonpayable",
      "type": "function"
    },
    {
      "inputs": [
        {
          "internalType": "uint256",
          "name": "id",
          "type": "uint256"
        }
      ],
      "name": "claimRefund",
      "outputs": [],
      "stateMutability": "nonpayable",
      "type": "function"
    },
    {
      "inputs": [
        {
          "internalType": "uint256",
          "name": "id",
          "type": "uint256"
        }
      ],
      "name": "claimWinner",
      "outputs": [],
      "stateMutability": "nonpayable",
      "type": "function"
    },
    {
      "inputs": [
        {
          "internalType": "uint256",
          "name": "id",
          "type": "uint256"
        },
        {
          "internalType": "address",
          "name": "user",
          "type": "address"
        }
      ],
      "name": "contribOf",
      "outputs": [
        {
          "internalType": "uint256",
          "name": "",
          "type": "uint256"
        }
      ],
      "stateMutability": "view",
      "type": "function"
    },
    {
      "inputs": [
        {
          "components": [
            {
              "internalType": "uint8",
              "name": "kind",
              "type": "uint8"
            },
            {
              "internalType": "enum ChallengePay.Currency",
              "name": "currency",
              "type": "uint8"
            },
            {
              "internalType": "address",
              "name": "token",
              "type": "address"
            },
            {
              "internalType": "uint256",
              "name": "stakeAmount",
              "type": "uint256"
            },
            {
              "internalType": "uint256",
              "name": "joinClosesTs",
              "type": "uint256"
            },
            {
              "internalType": "uint256",
              "name": "startTs",
              "type": "uint256"
            },
            {
              "internalType": "uint256",
              "name": "duration",
              "type": "uint256"
            },
            {
              "internalType": "uint256",
              "name": "maxParticipants",
              "type": "uint256"
            },
            {
              "internalType": "address",
              "name": "verifier",
              "type": "address"
            },
            {
              "internalType": "uint256",
              "name": "proofDeadlineTs",
              "type": "uint256"
            },
            {
              "internalType": "bytes32",
              "name": "externalId",
              "type": "bytes32"
            }
          ],
          "internalType": "struct ChallengePay.CreateParams",
          "name": "p",
          "type": "tuple"
        }
      ],
      "name": "createChallenge",
      "outputs": [
        {
          "internalType": "uint256",
          "name": "id",
          "type": "uint256"
        }
      ],
      "stateMutability": "payable",
      "type": "function"
    },
    {
      "inputs": [
        {
          "internalType": "address",
          "name": "",
          "type": "address"
        }
      ],
      "name": "creatorAllowed",
      "outputs": [
        {
          "internalType": "bool",
          "name": "",
          "type": "bool"
        }
      ],
      "stateMutability": "view",
      "type": "function"
    },
    {
      "inputs": [
        {
          "internalType": "uint256",
          "name": "",
          "type": "uint256"
        }
      ],
      "name": "externalIdOf",
      "outputs": [
        {
          "internalType": "bytes32",
          "name": "",
          "type": "bytes32"
        }
      ],
      "stateMutability": "view",
      "type": "function"
    },
    {
      "inputs": [
        {
          "internalType": "bytes32",
          "name": "",
          "type": "bytes32"
        }
      ],
      "name": "externalIdUsed",
      "outputs": [
        {
          "internalType": "bool",
          "name": "",
          "type": "bool"
        }
      ],
      "stateMutability": "view",
      "type": "function"
    },
    {
      "inputs": [],
      "name": "feeCaps",
      "outputs": [
        {
          "internalType": "uint16",
          "name": "forfeitFeeMaxBps",
          "type": "uint16"
        },
        {
          "internalType": "uint16",
          "name": "cashbackMaxBps",
          "type": "uint16"
        }
      ],
      "stateMutability": "view",
      "type": "function"
    },
    {
      "inputs": [],
      "name": "feeConfig",
      "outputs": [
        {
          "internalType": "uint16",
          "name": "forfeitFeeBps",
          "type": "uint16"
        },
        {
          "internalType": "uint16",
          "name": "protocolBps",
          "type": "uint16"
        },
        {
          "internalType": "uint16",
          "name": "creatorBps",
          "type": "uint16"
        },
        {
          "internalType": "uint16",
          "name": "cashbackBps",
          "type": "uint16"
        }
      ],
      "stateMutability": "view",
      "type": "function"
    },
    {
      "inputs": [
        {
          "internalType": "uint256",
          "name": "id",
          "type": "uint256"
        }
      ],
      "name": "finalize",
      "outputs": [],
      "stateMutability": "nonpayable",
      "type": "function"
    },
    {
      "inputs": [
        {
          "internalType": "uint256",
          "name": "id",
          "type": "uint256"
        }
      ],
      "name": "getChallenge",
      "outputs": [
        {
          "components": [
            {
              "internalType": "uint256",
              "name": "id",
              "type": "uint256"
            },
            {
              "internalType": "uint8",
              "name": "kind",
              "type": "uint8"
            },
            {
              "internalType": "uint8",
              "name": "status",
              "type": "uint8"
            },
            {
              "internalType": "uint8",
              "name": "outcome",
              "type": "uint8"
            },
            {
              "internalType": "address",
              "name": "creator",
              "type": "address"
            },
            {
              "internalType": "uint8",
              "name": "currency",
              "type": "uint8"
            },
            {
              "internalType": "address",
              "name": "token",
              "type": "address"
            },
            {
              "internalType": "uint256",
              "name": "stake",
              "type": "uint256"
            },
            {
              "internalType": "uint256",
              "name": "joinClosesTs",
              "type": "uint256"
            },
            {
              "internalType": "uint256",
              "name": "startTs",
              "type": "uint256"
            },
            {
              "internalType": "uint256",
              "name": "duration",
              "type": "uint256"
            },
            {
              "internalType": "uint256",
              "name": "maxParticipants",
              "type": "uint256"
            },
            {
              "internalType": "uint256",
              "name": "pool",
              "type": "uint256"
            },
            {
              "internalType": "uint256",
              "name": "participantsCount",
              "type": "uint256"
            },
            {
              "internalType": "address",
              "name": "verifier",
              "type": "address"
            },
            {
              "internalType": "uint256",
              "name": "proofDeadlineTs",
              "type": "uint256"
            },
            {
              "internalType": "uint32",
              "name": "winnersCount",
              "type": "uint32"
            },
            {
              "internalType": "uint256",
              "name": "winnersPool",
              "type": "uint256"
            },
            {
              "internalType": "bool",
              "name": "paused",
              "type": "bool"
            },
            {
              "internalType": "bool",
              "name": "canceled",
              "type": "bool"
            },
            {
              "internalType": "bool",
              "name": "payoutsDone",
              "type": "bool"
            }
          ],
          "internalType": "struct ChallengePay.ChallengeView",
          "name": "out",
          "type": "tuple"
        }
      ],
      "stateMutability": "view",
      "type": "function"
    },
    {
      "inputs": [
        {
          "internalType": "uint256",
          "name": "id",
          "type": "uint256"
        }
      ],
      "name": "getSnapshot",
      "outputs": [
        {
          "components": [
            {
              "internalType": "bool",
              "name": "set",
              "type": "bool"
            },
            {
              "internalType": "bool",
              "name": "success",
              "type": "bool"
            },
            {
              "internalType": "uint256",
              "name": "committedPool",
              "type": "uint256"
            },
            {
              "internalType": "uint256",
              "name": "forfeitedPool",
              "type": "uint256"
            },
            {
              "internalType": "uint256",
              "name": "cashback",
              "type": "uint256"
            },
            {
              "internalType": "uint256",
              "name": "forfeitedAfterCashback",
              "type": "uint256"
            },
            {
              "internalType": "uint256",
              "name": "protocolAmt",
              "type": "uint256"
            },
            {
              "internalType": "uint256",
              "name": "creatorAmt",
              "type": "uint256"
            },
            {
              "internalType": "uint256",
              "name": "perCommittedBonusX",
              "type": "uint256"
            },
            {
              "internalType": "uint256",
              "name": "perCashbackX",
              "type": "uint256"
            }
          ],
          "internalType": "struct ChallengePay.SnapshotView",
          "name": "out",
          "type": "tuple"
        }
      ],
      "stateMutability": "view",
      "type": "function"
    },
    {
      "inputs": [],
      "name": "globalPaused",
      "outputs": [
        {
          "internalType": "bool",
          "name": "",
          "type": "bool"
        }
      ],
      "stateMutability": "view",
      "type": "function"
    },
    {
      "inputs": [
        {
          "internalType": "bytes32",
          "name": "",
          "type": "bytes32"
        }
      ],
      "name": "idByExternalId",
      "outputs": [
        {
          "internalType": "uint256",
          "name": "",
          "type": "uint256"
        }
      ],
      "stateMutability": "view",
      "type": "function"
    },
    {
      "inputs": [
        {
          "internalType": "address",
          "name": "fwd",
          "type": "address"
        }
      ],
      "name": "isTrustedForwarder",
      "outputs": [
        {
          "internalType": "bool",
          "name": "",
          "type": "bool"
        }
      ],
      "stateMutability": "view",
      "type": "function"
    },
    {
      "inputs": [
        {
          "internalType": "uint256",
          "name": "id",
          "type": "uint256"
        },
        {
          "internalType": "address",
          "name": "user",
          "type": "address"
        }
      ],
      "name": "isWinner",
      "outputs": [
        {
          "internalType": "bool",
          "name": "",
          "type": "bool"
        }
      ],
      "stateMutability": "view",
      "type": "function"
    },
    {
      "inputs": [
        {
          "internalType": "uint256",
          "name": "id",
          "type": "uint256"
        },
        {
          "internalType": "uint256",
          "name": "amount",
          "type": "uint256"
        }
      ],
      "name": "joinChallengeERC20",
      "outputs": [],
      "stateMutability": "nonpayable",
      "type": "function"
    },
    {
      "inputs": [
        {
          "internalType": "uint256",
          "name": "id",
          "type": "uint256"
        },
        {
          "internalType": "uint256",
          "name": "amount",
          "type": "uint256"
        },
        {
          "internalType": "uint256",
          "name": "deadline",
          "type": "uint256"
        },
        {
          "internalType": "uint8",
          "name": "v",
          "type": "uint8"
        },
        {
          "internalType": "bytes32",
          "name": "r",
          "type": "bytes32"
        },
        {
          "internalType": "bytes32",
          "name": "s",
          "type": "bytes32"
        }
      ],
      "name": "joinChallengeERC20WithPermit",
      "outputs": [],
      "stateMutability": "nonpayable",
      "type": "function"
    },
    {
      "inputs": [
        {
          "internalType": "uint256",
          "name": "id",
          "type": "uint256"
        }
      ],
      "name": "joinChallengeNative",
      "outputs": [],
      "stateMutability": "payable",
      "type": "function"
    },
    {
      "inputs": [],
      "name": "maxLeadTime",
      "outputs": [
        {
          "internalType": "uint256",
          "name": "",
          "type": "uint256"
        }
      ],
      "stateMutability": "view",
      "type": "function"
    },
    {
      "inputs": [],
      "name": "minLeadTime",
      "outputs": [
        {
          "internalType": "uint256",
          "name": "",
          "type": "uint256"
        }
      ],
      "stateMutability": "view",
      "type": "function"
    },
    {
      "inputs": [],
      "name": "nextChallengeId",
      "outputs": [
        {
          "internalType": "uint256",
          "name": "",
          "type": "uint256"
        }
      ],
      "stateMutability": "view",
      "type": "function"
    },
    {
      "inputs": [
        {
          "internalType": "bool",
          "name": "paused",
          "type": "bool"
        }
      ],
      "name": "pauseAll",
      "outputs": [],
      "stateMutability": "nonpayable",
      "type": "function"
    },
    {
      "inputs": [
        {
          "internalType": "uint256",
          "name": "id",
          "type": "uint256"
        },
        {
          "internalType": "bool",
          "name": "paused_",
          "type": "bool"
        }
      ],
      "name": "pauseChallenge",
      "outputs": [],
      "stateMutability": "nonpayable",
      "type": "function"
    },
    {
      "inputs": [],
      "name": "pendingAdmin",
      "outputs": [
        {
          "internalType": "address",
          "name": "",
          "type": "address"
        }
      ],
      "stateMutability": "view",
      "type": "function"
    },
    {
      "inputs": [],
      "name": "proofTightenOnly",
      "outputs": [
        {
          "internalType": "bool",
          "name": "",
          "type": "bool"
        }
      ],
      "stateMutability": "view",
      "type": "function"
    },
    {
      "inputs": [],
      "name": "protocol",
      "outputs": [
        {
          "internalType": "address",
          "name": "",
          "type": "address"
        }
      ],
      "stateMutability": "view",
      "type": "function"
    },
    {
      "inputs": [
        {
          "internalType": "uint256",
          "name": "",
          "type": "uint256"
        },
        {
          "internalType": "address",
          "name": "",
          "type": "address"
        }
      ],
      "name": "refundClaimed",
      "outputs": [
        {
          "internalType": "bool",
          "name": "",
          "type": "bool"
        }
      ],
      "stateMutability": "view",
      "type": "function"
    },
    {
      "inputs": [
        {
          "internalType": "address",
          "name": "creator",
          "type": "address"
        },
        {
          "internalType": "bool",
          "name": "allowed",
          "type": "bool"
        }
      ],
      "name": "setCreatorAllowed",
      "outputs": [],
      "stateMutability": "nonpayable",
      "type": "function"
    },
    {
      "inputs": [
        {
          "components": [
            {
              "internalType": "uint16",
              "name": "forfeitFeeMaxBps",
              "type": "uint16"
            },
            {
              "internalType": "uint16",
              "name": "cashbackMaxBps",
              "type": "uint16"
            }
          ],
          "internalType": "struct ChallengePay.FeeCaps",
          "name": "caps",
          "type": "tuple"
        }
      ],
      "name": "setFeeCaps",
      "outputs": [],
      "stateMutability": "nonpayable",
      "type": "function"
    },
    {
      "inputs": [
        {
          "components": [
            {
              "internalType": "uint16",
              "name": "forfeitFeeBps",
              "type": "uint16"
            },
            {
              "internalType": "uint16",
              "name": "protocolBps",
              "type": "uint16"
            },
            {
              "internalType": "uint16",
              "name": "creatorBps",
              "type": "uint16"
            },
            {
              "internalType": "uint16",
              "name": "cashbackBps",
              "type": "uint16"
            }
          ],
          "internalType": "struct ChallengePay.FeeConfig",
          "name": "f",
          "type": "tuple"
        }
      ],
      "name": "setFeeConfig",
      "outputs": [],
      "stateMutability": "nonpayable",
      "type": "function"
    },
    {
      "inputs": [
        {
          "internalType": "uint256",
          "name": "minSec",
          "type": "uint256"
        },
        {
          "internalType": "uint256",
          "name": "maxSec",
          "type": "uint256"
        }
      ],
      "name": "setLeadTimeBounds",
      "outputs": [],
      "stateMutability": "nonpayable",
      "type": "function"
    },
    {
      "inputs": [
        {
          "internalType": "bool",
          "name": "enabled",
          "type": "bool"
        }
      ],
      "name": "setProofTightenOnly",
      "outputs": [],
      "stateMutability": "nonpayable",
      "type": "function"
    },
    {
      "inputs": [
        {
          "internalType": "address",
          "name": "token",
          "type": "address"
        },
        {
          "internalType": "bool",
          "name": "allowed",
          "type": "bool"
        }
      ],
      "name": "setTokenAllowed",
      "outputs": [],
      "stateMutability": "nonpayable",
      "type": "function"
    },
    {
      "inputs": [
        {
          "internalType": "address",
          "name": "fwd",
          "type": "address"
        }
      ],
      "name": "setTrustedForwarder",
      "outputs": [],
      "stateMutability": "nonpayable",
      "type": "function"
    },
    {
      "inputs": [
        {
          "internalType": "bool",
          "name": "enabled",
          "type": "bool"
        }
      ],
      "name": "setUseCreatorAllowlist",
      "outputs": [],
      "stateMutability": "nonpayable",
      "type": "function"
    },
    {
      "inputs": [
        {
          "internalType": "bool",
          "name": "enabled",
          "type": "bool"
        }
      ],
      "name": "setUseTokenAllowlist",
      "outputs": [],
      "stateMutability": "nonpayable",
      "type": "function"
    },
    {
      "inputs": [
        {
          "internalType": "uint256",
          "name": "id",
          "type": "uint256"
        },
        {
          "internalType": "address",
          "name": "verifier",
          "type": "address"
        },
        {
          "internalType": "uint256",
          "name": "proofDeadlineTs",
          "type": "uint256"
        }
      ],
      "name": "setVerificationConfig",
      "outputs": [],
      "stateMutability": "nonpayable",
      "type": "function"
    },
    {
      "inputs": [
        {
          "internalType": "uint256",
          "name": "id",
          "type": "uint256"
        },
        {
          "internalType": "bytes",
          "name": "proof",
          "type": "bytes"
        }
      ],
      "name": "submitMyProof",
      "outputs": [],
      "stateMutability": "nonpayable",
      "type": "function"
    },
    {
      "inputs": [
        {
          "internalType": "uint256",
          "name": "id",
          "type": "uint256"
        },
        {
          "internalType": "bytes",
          "name": "proof",
          "type": "bytes"
        }
      ],
      "name": "submitMyProofMeta",
      "outputs": [],
      "stateMutability": "nonpayable",
      "type": "function"
    },
    {
      "inputs": [
        {
          "internalType": "uint256",
          "name": "id",
          "type": "uint256"
        },
        {
          "internalType": "address",
          "name": "participant",
          "type": "address"
        },
        {
          "internalType": "bytes",
          "name": "proof",
          "type": "bytes"
        }
      ],
      "name": "submitProofFor",
      "outputs": [],
      "stateMutability": "nonpayable",
      "type": "function"
    },
    {
      "inputs": [
        {
          "internalType": "uint256",
          "name": "id",
          "type": "uint256"
        },
        {
          "internalType": "address[]",
          "name": "participants",
          "type": "address[]"
        },
        {
          "internalType": "bytes[]",
          "name": "proofs",
          "type": "bytes[]"
        }
      ],
      "name": "submitProofForBatch",
      "outputs": [],
      "stateMutability": "nonpayable",
      "type": "function"
    },
    {
      "inputs": [
        {
          "internalType": "address",
          "name": "newPendingAdmin",
          "type": "address"
        }
      ],
      "name": "transferAdmin",
      "outputs": [],
      "stateMutability": "nonpayable",
      "type": "function"
    },
    {
      "inputs": [],
      "name": "treasury",
      "outputs": [
        {
          "internalType": "address",
          "name": "",
          "type": "address"
        }
      ],
      "stateMutability": "view",
      "type": "function"
    },
    {
      "inputs": [],
      "name": "trustedForwarder",
      "outputs": [
        {
          "internalType": "address",
          "name": "",
          "type": "address"
        }
      ],
      "stateMutability": "view",
      "type": "function"
    },
    {
      "inputs": [],
      "name": "useCreatorAllowlist",
      "outputs": [
        {
          "internalType": "bool",
          "name": "",
          "type": "bool"
        }
      ],
      "stateMutability": "view",
      "type": "function"
    },
    {
      "inputs": [],
      "name": "useTokenAllowlist",
      "outputs": [
        {
          "internalType": "bool",
          "name": "",
          "type": "bool"
        }
      ],
      "stateMutability": "view",
      "type": "function"
    }
  ],
  "transactionHash": "0x6aacbc3d95d3201b156649c0ca503eb69c0e04c9099166aed2ec29d2be9c7ee4",
  "args": [
    "0xe84c197614d4fAAE1CdA8d6067fFe43befD9e961",
    "0x95A4CE3c93dBcDb9b3CdFb4CCAE6EFBDb4cCA217"
  ],
  "numDeployments": 2,
  "solcInputHash": "0b3b0e0636e41630939433b0e3fc5c5b",
  "bytecode": "0x60c0346200012b57601f6200330938819003918201601f19168301916001600160401b03831184841017620001305780849260409485528339810103126200012b576200005a6020620000528362000146565b920162000146565b6001600055906001600160a01b03808216159081156200011f575b506200010d5760805260a052600180546001600160a01b03191633179055603c6006556301e1338060075560026010556040516131ad90816200015c82396080518181816108ff015281816109dd01528181610a4a01528181610ef8015281816115120152818161172c01528181611ab001528181612c980152612d13015260a05181818161102a0152818161280e015261285a0152f35b60405163d92e233d60e01b8152600490fd5b90508216153862000075565b600080fd5b634e487b7160e01b600052604160045260246000fd5b51906001600160a01b03821682036200012b5756fe6080604052600436101561001257600080fd5b6000803560e01c806305261aea146124cf578063057b09c6146124ac57806306b281411461236a5780630e18b681146122ee57806315f690121461226a5780631bdd4b7414611f275780631e5eb1d014611eda5780632298974714611da057806325f39b4214611d355780632678224714611d0c5780632c5f299214611ca95780633548f27914611bb257806335581fe214611a3057806339139efc146119f15780633cadc94a146119c7578063428509ab146118ba578063442968621461184f578063547679af14611825578063572b6c05146117f7578063581fa02e146116b55780635ab9f413146116925780635b7baf64146115855780635e5727021461156757806361a552dc1461154157806361d027b3146114fc57806364be886414611459578063670c56f4146113ee5780636e484a0d14611383578063756742f81461134457806375829def146112d257806376f10ad014611197578063775a89e3146111665780637cac41a6146110f15780637d8022c0146110a55780637da0a8771461107c5780637e864798146110595780638ce744261461101457806398879cf214610e5c5780639b10380614610dd85780639f3a3a6714610dba578063a41483e314610ca6578063b1be188f14610c77578063b380132b14610c48578063bdd415af14610bfa578063be96ecaa14610590578063c3887ad714610422578063ca1befd3146102ad578063d74879de146103a0578063da7422281461031e578063df3b1a51146102d4578063f42efdb8146102ad578063f851a440146102845763fc67aa501461026457600080fd5b346102815780600319360112610281576020601054604051908152f35b80fd5b50346102815780600319360112610281576001546040516001600160a01b039091168152602090f35b5034610281576102cd6102bf36612a32565b916102c8612c23565b612c00565b6001815580f35b503461028157604036600319011261028157600f60406102f2612989565b926004358152601160205220019060018060a01b03166000526020526020604060002054604051908152f35b503461028157602036600319011261028157610338612973565b6001546001600160a01b0391908216330361038e5716806bffffffffffffffffffffffff60a01b60035416176003557fd91237492a9e30cd2faf361fc103998a382ff0ec2b1b07dc1cbebb76ae2f1ea28280a280f35b604051637bfa4b9f60e01b8152600490fd5b5034610281576040366003190112610281576004356103bd61299f565b6001546001600160a01b0316330361038e5760207f4c1b01967accb6c54a1cfd9474e902600feebb01f9b039c1481f0bc793ec6a58918385526011825261041681600e60408820019060ff801983541691151516179055565b6040519015158152a280f35b50346102815760208060031936011261058c57600435610440612c23565b60ff60025460a01c1661057a57610455612c46565b9181845260128152604084209060ff825416156105685782855260118152604085209160018060a01b0390818616958660005260118501845260ff60406000205416156105685786600052600f850184526040600020549485156105685760098301958860005286865260ff60406000205416610568577fb0173ebd95794ed5522fe7662b11854f3af313ced7aaa9a4050de681ea600dcb968960005286526040600020600160ff198254161790556007819401548061053e575b5050826105309394600260ff600185015460b81c16930154169288612c75565b604051908152a36001815580f35b610530945090670de0b6b3a764000061055a6105619383612aa9565b0490612a86565b9238610510565b604051637c75aa6f60e11b8152600490fd5b60405163f10a0ea560e01b8152600490fd5b5080fd5b50610160366003190112610281576105a6612c23565b60ff60025460a01c1661057a576105bb612c46565b60ff600a541680610bda575b610568574260a4351115610bc85760c43515610b83576105e94260a435612bd4565b6006548110610bac576007548015159182610bbe575b5050610bac5760843580610ba7575060a4355b60a4358111610b955742811115610b83576001600160a01b03610633612b84565b1615610b49576101243515610b715761065060c43560a435612a86565b6101243510610b5f5760026024351015610b5b57600160243514610ae8575b61014435610aa0575b6010549161068583612be1565b601055828452601160205260408420918383556106a0612bf0565b600184810180546001600160c01b03191660ff90931692909217601885901b6301000000600160b81b03161760243560b881901b60ff60b81b169190911790925503610a99576106ee612b9b565b905b6002840180546001600160a01b03199081166001600160a01b03948516179091556064356003860155600485019190915560a435600585015560c435600685015560e435600785015590610742612b84565b16600a84019182541617905561012435600b830155600c54600e83019064ffff00000082549160181b168064ffff00000019831617835566ffff0000000000600c5460181b16808266ffffffff0000001985161717845568ffff00000000000000600c5460181b1691828168ffffffffffff0000001986161783171785556affff000000000000000000600c5460181b16936affffffffffffffff000000191617171717905560243515600014610995576064353403610983576064356108fd575b92600191837fd4ff274a9f4de44eb9cb7369f829f06bb94b3cf69d2b422b1fa81d28eef9523560a06020975b6064356108b7575b61014435610892575b610849612bf0565b9460058880851b036002830154169101549060ff6040519716875260ff602435168b880152604087015260608601526101443560808601528680831b031693a355604051908152f35b838652600e8952610144356040872055610144358652600f8952836040872055610841565b600885016108c86064358254612a86565b90558680831b038116600052600f8501895260406000206108ec6064358254612a86565b90556108f88186613138565b610838565b7f00000000000000000000000000000000000000000000000000000000000000006001600160a01b031684813b1561028157602491604051928380926329ac7ded60e11b8252886004830152606435905af1801561097857610960575b50610804565b61096a8591612b0f565b610974573861095a565b8380fd5b6040513d87823e3d90fd5b604051633bf87c3160e11b8152600490fd5b34610983576064356109d2575b92600191837fd4ff274a9f4de44eb9cb7369f829f06bb94b3cf69d2b422b1fa81d28eef9523560a0602097610830565b6109da612b9b565b847f00000000000000000000000000000000000000000000000000000000000000006001600160a01b03163b15610281576040516339b99a0960e01b8152600481018690526001600160a01b039283166024820152918316604483015260648035908301528180608481010381837f00000000000000000000000000000000000000000000000000000000000000006001600160a01b03165af1801561097857610a85575b506109a2565b610a8f8591612b0f565b6109745738610a7f565b84906106f0565b610144358352600d60205260ff604084205416610ad657610144358352600d60205260408320805460ff19166001179055610678565b60405163fe0414d160e01b8152600490fd5b6001600160a01b03610af8612b9b565b1615610b495760ff6005541680610b22575b1561066f575b60405163514e24c360e11b8152600490fd5b506001600160a01b03610b33612b9b565b168352600460205260ff60408420541615610b0a565b60405163d92e233d60e01b8152600490fd5b8280fd5b60405163f8f9e09960e01b8152600490fd5b6040516330073f3f60e21b8152600490fd5b60405163a883435760e01b8152600490fd5b604051637725eee760e11b8152600490fd5b610612565b6040516309beb56760e31b8152600490fd5b11905038806105ff565b604051636cd0ca0760e11b8152600490fd5b506001600160a01b03811682526009602052604082205460ff16156105c7565b50346102815760403660031901126102815760116040610c18612989565b9260043581528260205220019060018060a01b0316600052602052602060ff604060002054166040519015158152f35b50346102815760203660031901126102815760ff60406020926004358152600d84522054166040519015158152f35b50346102815760203660031901126102815760ff60406020926004358152601384522054166040519015158152f35b503461028157602036600319011261028157600435610cc3612c23565b60ff60025460a01c1661057a57610cd8612c46565b818352601160205260408320600e81019182549160ff8360081c16610da8576001019283549160018060a01b03809116818460181c168114159182610d99575b5050610d875760ff8260081c16610d2e81612a66565b610d75576101006102009361ff00191617905562ffff0019161790557f829a8683c544ad289ce92d3ce06e9ebad69b18a6916e60ec766c2c217461d8e98280a26001815580f35b604051634065aaf160e11b8152600490fd5b60405163440e733360e01b8152600490fd5b60015416141590503880610d18565b604051632583715b60e11b8152600490fd5b50346102815780600319360112610281576020600754604051908152f35b503461028157604036600319011261028157610df2612973565b610dfa61299f565b60015490916001600160a01b03918216330361038e5716908115610b495760207f8080779c631fe2a2cef3d85f043bab8b7a0ac8609d12fa2d97e81b7512d21867918385526009825261041681604087209060ff801983541691151516179055565b50346102815760c036600319011261028157600435602435906064359160ff831680930361097457610e8c612c23565b60ff60025460a01c1661057a57610ea1612c46565b81156110025782855260116020526040852090610ebd82612d9c565b60ff600183015460b81c166002811015610fee57600103610b105780610ee4879284612e09565b60028301546001600160a01b0391908216907f00000000000000000000000000000000000000000000000000000000000000008316803b15610fdf578492836101049260405196879586946310da46f360e31b86528d60048701526024860152169b8c60448501528a6064850152604435608485015260a484015260843560c484015260a43560e48401525af18015610fe357610fcb575b505060008051602061318183398151915291600f82600860209401610fa2848254612a86565b9055866000520182526040600020610fbb828254612a86565b9055604051908152a36001815580f35b610fd490612b0f565b610fdf578438610f7c565b8480fd5b6040513d84823e3d90fd5b634e487b7160e01b87526021600452602487fd5b6040516365e52d5160e11b8152600490fd5b50346102815780600319360112610281576040517f00000000000000000000000000000000000000000000000000000000000000006001600160a01b03168152602090f35b5034610281578060031936011261028157602060ff600854166040519015158152f35b50346102815780600319360112610281576003546040516001600160a01b039091168152602090f35b50346102815760403660031901126102815760406110c1612989565b9160043581526014602052209060018060a01b0316600052602052602060ff604060002054166040519015158152f35b50346102815760203660031901126102815761110b6129ae565b6001546001600160a01b0316330361038e5760207f39faec09bfc6835902c79c4757f9177e0cf8ab328b2bb690494e800dfe8c9c9491151560025460ff60a01b8260a01b169060ff60a01b191617600255604051908152a180f35b5034610281578060031936011261028157600b546040805161ffff808416825260109390931c909216602083015290f35b5034610281576020366003190112610281576040816101409261012083516111be81612b23565b82815282602082015282858201528260608201528260808201528260a08201528260c08201528260e082015282610100820152015260043581526012602052208054906001810154906002810154600382015460048301546005840154916006850154936008600787015496015496602060405161123b81612b23565b60ff8b161515815260ff8b60081c1615158282015260408101928352606081019384526080810194855260a0810195865260c0810196875260e0810197885261010081019889526101208101998a5260ff6040519b1615158b520151151560208a01525160408901525160608801525160808701525160a08601525160c08501525160e08401525161010083015251610120820152f35b5034610281576020366003190112610281576112ec612973565b6001546001600160a01b03908116913383900361038e5716908115610b4957600280546001600160a01b031916831790557fe5cd1c804f1c9cc6d7009e4c0fb532f0e2d8863524c3323a6b3790c3f80bf25c8380a380f35b50346102815760203660031901126102815760209060ff906040906001600160a01b0361136f612973565b168152600484522054166040519015158152f35b50346102815760603660031901126102815761139d612989565b60443567ffffffffffffffff8111610b5b576113bd903690600401612a04565b906113c6612c23565b60ff60025460a01c1661057a576001600160a01b03831615610b49576102cd92600435612e6c565b5034610281576020366003190112610281576114086129ae565b6001546001600160a01b0316330361038e5760207fedab75c448cb39137a363f4f09437929860c3b6ddfaab3445f06e68f6f79202291151560ff196005541660ff821617600555604051908152a180f35b5034610281576040366003190112610281576001546001600160a01b0316330361038e5761ffff611488612b40565b16600b549063ffff000061149a612b51565b60101b169163ffffffff19161717600b557f5c4bda0735930512d684b03b8612ddeb65cfb1e4c2d2f9dff13667bf38b8b6156114d4612b40565b6114dc612b51565b6040805161ffff9384168152929091166020830152819081015b0390a180f35b50346102815780600319360112610281576040517f00000000000000000000000000000000000000000000000000000000000000006001600160a01b03168152602090f35b5034610281578060031936011261028157602060ff60025460a01c166040519015158152f35b50346102815780600319360112610281576020600654604051908152f35b50346102815760208060031936011261058c576004356115a3612c23565b60ff60025460a01c1661057a576115b8612c46565b918184526011815260408420906001820191600260ff845460081c166115dd81612a66565b03611680576001600160a01b038581166000818152600f84018552604090205490969092831561056857868952601485526040892088600052855260ff60406000205416610568578361053093600260ff7ff3f402280ef0a7905e124aa621b65eaeb2725c343e8b36d398ed78c29daf285c9960408e8d815260148c52208d6000528a526040600020600183198254161790555460b81c16930154169288612c75565b60405163161ae9df60e11b8152600490fd5b5034610281578060031936011261028157602060ff600554166040519015158152f35b506020366003190112610281576004356116cd612c23565b60ff60025460a01c1661057a576116e2612c46565b90341561100257808352601160205260408320916116ff83612d9c565b60ff600184015460b81c1660028110156117e357610b10576117218184612e09565b6001600160a01b03847f00000000000000000000000000000000000000000000000000000000000000008216803b1561058c5781602491604051928380926329ac7ded60e11b825289600483015234905af18015610fe3576117cf575b5050600f9160088501611792348254612a86565b90551692836000520160205260406000206117ae348254612a86565b90556000805160206131818339815191526020604051348152a36001815580f35b6117d890612b0f565b610fdf57843861177e565b634e487b7160e01b85526021600452602485fd5b503461028157602036600319011261028157602061181b611816612973565b612bb1565b6040519015158152f35b50346102815760203660031901126102815760406020916004358152600e83522054604051908152f35b5034610281576020366003190112610281576118696129ae565b6001546001600160a01b0316330361038e5760207fbd28967d6f02595d7cc7a5b7a571f1e2ced0a9bb165b4f9461849e6955b0203291151560ff196008541660ff821617600855604051908152a180f35b50346102815760603660031901126102815767ffffffffffffffff60043560248035838111610fdf576118f19036906004016129d3565b9290916044358581116119c35761190c9036906004016129d3565b939091611917612c23565b60ff60025460a01c1661057a57848603610b8357875b86811061193c57886001815580f35b600581901b8381013591906001600160a01b0383168084036119be5715610b4957878210156119ab57850135601e19863603018112156119a7578501918235928a84116119a3576020019280360384136119a35760019361199d9289612e6c565b0161192d565b8b80fd5b8a80fd5b634e487b7160e01b8b526032600452838bfd5b600080fd5b8680fd5b50346102815760203660031901126102815760406020916004358152600f83522054604051908152f35b50346102815760203660031901126102815760209060ff906040906001600160a01b03611a1c612973565b168152600984522054166040519015158152f35b503461028157611a3f366129bd565b90611a48612c23565b60ff60025460a01c1661057a57611a5d612c46565b9180156110025781845260116020526040842092611a7a84612d9c565b60ff600185015460b81c166002811015611b9e57600103610b1057611a9f8185612e09565b60028401546001600160a01b0391907f000000000000000000000000000000000000000000000000000000000000000083169087908416823b1561058c576040516339b99a0960e01b8152600481018890526001600160a01b039182166024820152908416604482015260648101869052918290608490829084905af18015611b9357611b68575b5091600f6020926000805160206131818339815191529460088801611b4d858254612a86565b90551695866000520182526040600020610fbb828254612a86565b602092600080516020613181833981519152949297611b88600f93612b0f565b979294509250611b27565b6040513d89823e3d90fd5b634e487b7160e01b86526021600452602486fd5b5034610281576080366003190112610281576001546001600160a01b0316330361038e5761ffff611be1612b40565b16600c549063ffff0000611bf3612b51565b60101b1665ffff00000000611c06612b62565b60201b169167ffff000000000000611c1c612b73565b60301b169367ffffffffffffffff191617171717600c557fca991ff30b5da7bb056f71ef5b9bf7f453ee43d9c41628c85532e8b3b7a79c5a611c5c612b40565b611c64612b51565b906114f6611c70612b62565b611c78612b73565b906040519485948592949360609291608085019661ffff809481809416885216602087015216604085015216910152565b503461028157611cb8366129bd565b6001546001600160a01b0316330361038e57808211610b8357816040917f54a7bcb4dcd8397e4d1346ea83ef05f58714b3d8c45c7c47845383063fc2e82b936006558060075582519182526020820152a180f35b50346102815780600319360112610281576002546040516001600160a01b039091168152602090f35b503461028157602036600319011261028157611d4f6129ae565b6001546001600160a01b0316330361038e5760207f95fb4e8f5ff01bb36d61252d90cc1f29b520ea9d7c5dd6c933d15e89ca50d9c491151560ff19600a541660ff821617600a55604051908152a180f35b503461028157606036600319011261028157600435611dbd612989565b6001546001600160a01b0390604435908216330361038e578385526011602052604085209260ff600185015460081c16611df681612a66565b610d7557821680611ebf575b5080611e48575b5081600b604092600a7f20309ea0845f13ad24c6912ae9b099e736e9e79df13bc10e88e6a7a79c1707549501541691015482519182526020820152a280f35b9160ff6008541680611eb2575b611ea057611e6c6005820154600683015490612a86565b8310610b5f57600b8101929092557f20309ea0845f13ad24c6912ae9b099e736e9e79df13bc10e88e6a7a79c170754611e09565b604051634a9696e560e11b8152600490fd5b50600b8101548311611e55565b600a840180546001600160a01b031916909117905538611e02565b5034610281578060031936011261028157600c546040805161ffff8084168252601084901c811660208084019190915284901c81169282019290925260309290921c166060820152608090f35b50346102815760203660031901126102815780610280604051611f4981612adc565b8281528260208201528260408201528260608201528260808201528260a08201528260c08201528260e08201528261010082015282610120820152826101408201528261016082015282610180820152826101a0820152826101c0820152826101e0820152826102008201528261022082015282610240820152826102608201520152600435815260116020526040812090815491600181015491611ff360ff8460081c16612a66565b61200260ff8460101c16612a66565b600260ff8460b81c16101561225657508290600160a01b6001900360028201541660038201546004830154600584015460068501546007860154600887015491600988015493600160a01b60019003600a8a01541695600b8a015497600c8b015463ffffffff1699600d8c01549b600e01549c6040519e8f9161208483612adc565b825260ff811660208301528060081c60ff1660408301528060101c60ff166060830152600160a01b600190038160181c16608083015260b81c60ff1660a082015260c0015260e08d01526101008c01526101208b01526101408a01526101608901526101808801526101a08701526101c08601526101e085015261020084015261022083015260ff811615156102408301528060081c60ff16151561026083015260101c60ff161515610280820152604051918252602081015160ff166020830152604081015160ff166040830152606081015160ff166060830152600160a01b60019003608082015116608083015260a081015160ff1660a0830152600160a01b6001900360c08201511660c083015260e081015160e08301526101008101516101008301526101208101516101208301526101408101516101408301526101608101516101608301526101808101516101808301526101a08101516101a0830152600160a01b600190036101c0820151166101c08301526101e08101516101e083015261020081015163ffffffff1661020083015261022081015161022083015261024081015115156102408301526102608101511515610260830152610280015115156102808201526102a090f35b634e487b7160e01b81526021600452602490fd5b503461028157604036600319011261028157612284612973565b61228c61299f565b60015490916001600160a01b03918216330361038e5716908115610b495760207f9a8e30a8658b96ab3f034ce4bac6806278b4aee5880ccdd1ac35e4ed5bb31d23918385526004825261041681604087209060ff801983541691151516179055565b50346102815780600319360112610281576002546001600160a01b039081811633036123585760015491339083167f0a5e51d1a708a68919d9ab9afd976c6e463eddc9bc7ee4fdbb05bf9946e85a338580a36001600160a01b031991821633176001551660025580f35b60405163058d9a1b60e01b8152600490fd5b50346102815760208060031936011261058c57600435612388612c23565b60ff60025460a01c1661057a5761239d612c46565b9181845260128152604084209060ff8254161580156124a0575b61056857828552601181526040852060018060a01b038086169586885260118301845260ff60408920541661056857868852600f83018452604088205494851561056857600a810190888a5281865260ff60408b20541661056857888a5290855260408920805460ff19166001179055600801547f8dbdec192d4a8c1672d2c8b9d20ae3a4e16f5b7396d34589fccff7b1535f529495670de0b6b3a76400009161246091612aa9565b0492838061247b575b50505050604051908152a36001815580f35b61249793600260ff600185015460b81c16930154169288612c75565b38808083612469565b506008820154156123b7565b5034610281578060031936011261028157602060ff600a54166040519015158152f35b5034610281576020366003190112610281576124e9612c23565b60ff60025460a01c1661057a57600435815260116020526040812090600e82019182549260ff8460101c166129615760018201549360ff8560081c1661252e81612a66565b610d75576125456005840154600685015490612a86565b421061294f57600b830154421061294f576201000090610100600d850196875415156000146129445762ff000060015b61257e81612a66565b60101b169062ffff0019161717600185015562ff000019161781558154835260126020526040832090815490600160ff1983161783558460088501805497548098818111600014612939576001916125d591612bd4565b945b898288015585600288015561ff008a151560081b169061ffff19161717855555549061271061260d61ffff8460481c1683612aa9565b04926126198483612bd4565b9061271061262e61ffff8660181c1684612aa9565b049261267d61267661271061265b61ffff8261264f828c60281c168a612aa9565b049960381c1687612aa9565b049661267061266a8983612a86565b88612bd4565b90612a86565b9484612bd4565b92866003840155600483015583600583015584600683015588151589612930575b612902575b801515806128f9575b156128a157670de0b6b3a764000080870290878204148715171561288d576020946001999a947fd12dad5b90def88d868dcc57ef045dbf2ecc574d91f027ca7c85fd3727a4a06b979460086127247f8bd1ae865a0c9eee5de0f106a72005a318a9d008d87cc0eaf3c3bd5d691dd9bd96606096612abc565b915b015580151580612885575b612838575b50806127ee575b836127bc575b8854978894604051928352878301526040820152a26040519015158152a2015460ff808260081c169161277583612a66565b60101c1661278281612a66565b60405191825260208201527f8450c98b6c7639389239ba935fb62b1edd38265d734ce1d4b6ced548f32bc45e604060043592a26001815580f35b6127e960028a54868d8d0154918d8f8060a01b039485910154169360ff8460b81c169360181c1690612c75565b612743565b612833895460ff8c8c015460b81c16838c60028f8060a01b0391015416927f000000000000000000000000000000000000000000000000000000000000000090612c75565b61273d565b61287f908a549060ff8d8d015460b81c16908c60028f8060a01b0391015416927f000000000000000000000000000000000000000000000000000000000000000090612c75565b38612736565b508515612731565b634e487b7160e01b89526011600452602489fd5b50927f8bd1ae865a0c9eee5de0f106a72005a318a9d008d87cc0eaf3c3bd5d691dd9bd6060602094899a947fd12dad5b90def88d868dcc57ef045dbf2ecc574d91f027ca7c85fd3727a4a06b97600860019c91612726565b508515156126ac565b670de0b6b3a7640000838181020481148415171561288d5789612926918502612abc565b60078301556126a3565b5082151561269e565b5050600182946125d7565b62ff00006002612575565b604051631bf5519360e01b8152600490fd5b60405163475a253560e01b8152600490fd5b600435906001600160a01b03821682036119be57565b602435906001600160a01b03821682036119be57565b6024359081151582036119be57565b6004359081151582036119be57565b60409060031901126119be576004359060243590565b9181601f840112156119be5782359167ffffffffffffffff83116119be576020808501948460051b0101116119be57565b9181601f840112156119be5782359167ffffffffffffffff83116119be57602083818601950101116119be57565b9060406003198301126119be57600435916024359067ffffffffffffffff82116119be57612a6291600401612a04565b9091565b60031115612a7057565b634e487b7160e01b600052602160045260246000fd5b91908201809211612a9357565b634e487b7160e01b600052601160045260246000fd5b81810292918115918404141715612a9357565b8115612ac6570490565b634e487b7160e01b600052601260045260246000fd5b6102a0810190811067ffffffffffffffff821117612af957604052565b634e487b7160e01b600052604160045260246000fd5b67ffffffffffffffff8111612af957604052565b610140810190811067ffffffffffffffff821117612af957604052565b60043561ffff811681036119be5790565b60243561ffff811681036119be5790565b60443561ffff811681036119be5790565b60643561ffff811681036119be5790565b610104356001600160a01b03811681036119be5790565b6044356001600160a01b03811681036119be5790565b6001600160a01b039081168015159182612bca57505090565b6003541614919050565b91908203918211612a9357565b6000198114612a935760010190565b60043560ff811681036119be5790565b919060ff60025460a01c1661057a57612c2192612c1b612c46565b90612e6c565b565b600260005414612c34576002600055565b604051633ee5aeb560e01b8152600490fd5b612c4f33612bb1565b80612c6a575b15612c665736601319013560601c90565b3390565b506014361015612c55565b939091928315612d95576002811015612a7057612d0e57506001600160a01b03927f0000000000000000000000000000000000000000000000000000000000000000841690813b156119be576000606492819560405197889687956301cd6cbb60e21b8752600487015216602485015260448401525af18015612d0257612cf95750565b612c2190612b0f565b6040513d6000823e3d90fd5b9192917f00000000000000000000000000000000000000000000000000000000000000006001600160a01b031690813b156119be57604051630bd005ed60e31b815260048101949094526001600160a01b0390811660248501529190911660448301526064820192909252906000908290608490829084905af18015612d0257612cf95750565b5050505050565b600e81015460ff8116908115612dfb575b50612de95760ff600182015460081c16612dc681612a66565b610d755760040154421015612dd757565b60405163d673d30960e01b8152600490fd5b6040516301b84f6b60e01b8152600490fd5b60ff915060081c1638612dad565b9060018060a01b0381166000526010820160205260ff60406000205416612e685760078201548015159081612e59575b50612e4757612c2191613138565b604051636c8c8d2160e01b8152600490fd5b90506009830154101538612e39565b5050565b91906000908382526020906011825260409182842091600e83015460ff8116801561312b575b61311a5760ff600185015460081c16612eaa81612a66565b6131095760101c60ff166130f857600583015442106130e757600b83015442116130d6576001600160a01b03908116808652600f84018352848620549098909687156130c55790601f848a9493888d8b6084600a8c0199888a8c54169551998a978896879463b7b9f7d560e01b8652600486015260248501526060604485015281606485015284840137838382840101528819988991011681010301925af1918291899361305d575b5050613057575085915b541688887f61d4565729ef18ae3c6557c0ca7250c197790c3bfc92c7d5ec000c7a07d2a3ea85885195159586158152a461304e576011820187855280825260ff848620541661303d578785528152828420600160ff19825416179055600c600d830192612fcb878554612a86565b8094550180549463ffffffff906001828816019082821161302957501663ffffffff19959095168517905582519485528401528201527f124fed6cbf6373f8cf4a56a3b00d10a865480c56cca58d35cfb37ac6100b8f9290606090a3565b634e487b7160e01b81526011600452602490fd5b83516354dcda0f60e11b8152600490fd5b50505050505050565b91612f5d565b9091925085903d87116130bd575b601f820116820182811067ffffffffffffffff8211176130a957869183918a52810103126130a5575180151581036130a557903880612f53565b8780fd5b634e487b7160e01b8a52604160045260248afd5b3d915061306b565b8551637c75aa6f60e11b8152600490fd5b835163ee19d85560e01b8152600490fd5b83516309442c5b60e01b8152600490fd5b835163475a253560e01b8152600490fd5b8451634065aaf160e11b8152600490fd5b84516301b84f6b60e01b8152600490fd5b5060ff8160081c16612e92565b6001600160a01b03909116600090815260108201602052604090208054919060ff83161561316557505050565b600160099360ff19161790550161317c8154612be1565b905556fed5b030fc17ee555aeea484ceb134047c9d82176003282c85150c3b2552c6ef66a164736f6c6343000818000a"
}