{
  "address": "0x4c523C1eBdcD8FAAA27808f01F3Ec00B98Fb0f2D",
  "abi": [
    {
      "inputs": [
        {
          "internalType": "address",
          "name": "_challengePay",
          "type": "address"
        },
        {
          "internalType": "address",
          "name": "_metadataRegistry",
          "type": "address"
        }
      ],
      "stateMutability": "nonpayable",
      "type": "constructor"
    },
    {
      "inputs": [],
      "name": "AlreadyFinalized",
      "type": "error"
    },
    {
      "inputs": [],
      "name": "BadIndex",
      "type": "error"
    },
    {
      "inputs": [],
      "name": "EventExists",
      "type": "error"
    },
    {
      "inputs": [],
      "name": "EventMissing",
      "type": "error"
    },
    {
      "inputs": [],
      "name": "NotOwner",
      "type": "error"
    },
    {
      "inputs": [],
      "name": "ZeroAddress",
      "type": "error"
    },
    {
      "anonymous": false,
      "inputs": [
        {
          "indexed": true,
          "internalType": "bytes32",
          "name": "eventId",
          "type": "bytes32"
        },
        {
          "indexed": false,
          "internalType": "uint8",
          "name": "winnerIndex",
          "type": "uint8"
        }
      ],
      "name": "EventFinalized",
      "type": "event"
    },
    {
      "anonymous": false,
      "inputs": [
        {
          "indexed": true,
          "internalType": "bytes32",
          "name": "eventId",
          "type": "bytes32"
        },
        {
          "indexed": false,
          "internalType": "string",
          "name": "title",
          "type": "string"
        }
      ],
      "name": "EventRegistered",
      "type": "event"
    },
    {
      "anonymous": false,
      "inputs": [
        {
          "indexed": true,
          "internalType": "bytes32",
          "name": "eventId",
          "type": "bytes32"
        },
        {
          "indexed": false,
          "internalType": "string",
          "name": "uri",
          "type": "string"
        }
      ],
      "name": "EventURISet",
      "type": "event"
    },
    {
      "anonymous": false,
      "inputs": [
        {
          "indexed": true,
          "internalType": "bytes32",
          "name": "eventId",
          "type": "bytes32"
        },
        {
          "indexed": false,
          "internalType": "uint8",
          "name": "index",
          "type": "uint8"
        },
        {
          "indexed": false,
          "internalType": "string",
          "name": "name",
          "type": "string"
        },
        {
          "indexed": false,
          "internalType": "uint256",
          "name": "challengeId",
          "type": "uint256"
        },
        {
          "indexed": false,
          "internalType": "address",
          "name": "subject",
          "type": "address"
        }
      ],
      "name": "OutcomeAdded",
      "type": "event"
    },
    {
      "anonymous": false,
      "inputs": [
        {
          "indexed": true,
          "internalType": "address",
          "name": "prev",
          "type": "address"
        },
        {
          "indexed": true,
          "internalType": "address",
          "name": "next",
          "type": "address"
        }
      ],
      "name": "OwnerChanged",
      "type": "event"
    },
    {
      "inputs": [
        {
          "internalType": "bytes32",
          "name": "eventId",
          "type": "bytes32"
        },
        {
          "internalType": "string",
          "name": "name",
          "type": "string"
        },
        {
          "internalType": "uint256",
          "name": "challengeId",
          "type": "uint256"
        },
        {
          "internalType": "address",
          "name": "subject",
          "type": "address"
        }
      ],
      "name": "addOutcome",
      "outputs": [],
      "stateMutability": "nonpayable",
      "type": "function"
    },
    {
      "inputs": [],
      "name": "challengePay",
      "outputs": [
        {
          "internalType": "contract IChallengePay",
          "name": "",
          "type": "address"
        }
      ],
      "stateMutability": "view",
      "type": "function"
    },
    {
      "inputs": [
        {
          "internalType": "bytes32",
          "name": "eventId",
          "type": "bytes32"
        },
        {
          "internalType": "uint8",
          "name": "winnerIndex",
          "type": "uint8"
        },
        {
          "internalType": "bytes",
          "name": "proof",
          "type": "bytes"
        }
      ],
      "name": "finalizeEvent",
      "outputs": [],
      "stateMutability": "nonpayable",
      "type": "function"
    },
    {
      "inputs": [
        {
          "internalType": "bytes32",
          "name": "eventId",
          "type": "bytes32"
        }
      ],
      "name": "getEvent",
      "outputs": [
        {
          "internalType": "string",
          "name": "title",
          "type": "string"
        },
        {
          "internalType": "string",
          "name": "metaURI",
          "type": "string"
        },
        {
          "internalType": "bool",
          "name": "finalized",
          "type": "bool"
        },
        {
          "internalType": "uint8",
          "name": "winnerIndex",
          "type": "uint8"
        },
        {
          "components": [
            {
              "internalType": "string",
              "name": "name",
              "type": "string"
            },
            {
              "internalType": "uint256",
              "name": "challengeId",
              "type": "uint256"
            },
            {
              "internalType": "address",
              "name": "subject",
              "type": "address"
            }
          ],
          "internalType": "struct EventChallengeRouter.Outcome[]",
          "name": "outcomes",
          "type": "tuple[]"
        }
      ],
      "stateMutability": "view",
      "type": "function"
    },
    {
      "inputs": [
        {
          "internalType": "bytes32",
          "name": "eventId",
          "type": "bytes32"
        }
      ],
      "name": "outcomesCount",
      "outputs": [
        {
          "internalType": "uint256",
          "name": "",
          "type": "uint256"
        }
      ],
      "stateMutability": "view",
      "type": "function"
    },
    {
      "inputs": [],
      "name": "owner",
      "outputs": [
        {
          "internalType": "address",
          "name": "",
          "type": "address"
        }
      ],
      "stateMutability": "view",
      "type": "function"
    },
    {
      "inputs": [
        {
          "internalType": "bytes32",
          "name": "eventId",
          "type": "bytes32"
        },
        {
          "internalType": "string",
          "name": "title",
          "type": "string"
        }
      ],
      "name": "registerEvent",
      "outputs": [],
      "stateMutability": "nonpayable",
      "type": "function"
    },
    {
      "inputs": [],
      "name": "registry",
      "outputs": [
        {
          "internalType": "contract IMetadataRegistry",
          "name": "",
          "type": "address"
        }
      ],
      "stateMutability": "view",
      "type": "function"
    },
    {
      "inputs": [
        {
          "internalType": "bytes32",
          "name": "eventId",
          "type": "bytes32"
        },
        {
          "internalType": "string",
          "name": "uri",
          "type": "string"
        }
      ],
      "name": "setEventURI",
      "outputs": [],
      "stateMutability": "nonpayable",
      "type": "function"
    },
    {
      "inputs": [
        {
          "internalType": "bytes4",
          "name": "interfaceId",
          "type": "bytes4"
        }
      ],
      "name": "supportsInterface",
      "outputs": [
        {
          "internalType": "bool",
          "name": "",
          "type": "bool"
        }
      ],
      "stateMutability": "pure",
      "type": "function"
    },
    {
      "inputs": [
        {
          "internalType": "address",
          "name": "n",
          "type": "address"
        }
      ],
      "name": "transferOwnership",
      "outputs": [],
      "stateMutability": "nonpayable",
      "type": "function"
    }
  ],
  "transactionHash": "0x47a6ba7157a1b45ed9536ba79a0340bcf529e6142a53b4f021a0220a82ef9c05",
  "args": [
    "0xBeA3b508a5Ce2E6C8462108f42c732Da7454c5cb",
    "0xe9bAA8c04cd77d06A736fc987cC13348DfF0bfAb"
  ],
  "numDeployments": 1,
  "solcInputHash": "7e4fe1dcbedb91bf7d09236344f1e1c5",
  "bytecode": "0x60c0346100f457601f61103c38819003918201601f19168301916001600160401b038311848410176100f95780849260409485528339810103126100f457610052602061004b8361010f565b920161010f565b6001600160a01b03918216801580156100ea575b6100d8573360018060a01b031960005416176000556080521660a0526040513360007fb532073b38c83145e3e5135377a08bf9aab55bc0fd7c1179cd4fb995d2a5159c8180a3610f18908161012482396080518181816106a1015261076f015260a05181818161062f01526109690152f35b60405163d92e233d60e01b8152600490fd5b5082821615610066565b600080fd5b634e487b7160e01b600052604160045260246000fd5b51906001600160a01b03821682036100f45756fe608080604052600436101561001357600080fd5b600090813560e01c90816301ffc9a714610c415750806306e9d8a814610ac957806308f548ae146108c6578063135e0536146106d0578063485021b21461068b578063799a9b921461065e5780637b103999146106195780638c172fa2146104585780638da5cb5b14610431578063cd285a33146101355763f2fde38b1461009a57600080fd5b34610132576020366003190112610132576004356001600160a01b038181169182900361012d57825490811680330361011b5782156101095782907fb532073b38c83145e3e5135377a08bf9aab55bc0fd7c1179cd4fb995d2a5159c8580a36001600160a01b03191617815580f35b60405163d92e233d60e01b8152600490fd5b6040516330cd747160e01b8152600490fd5b600080fd5b80fd5b50346101325760803660031901126101325767ffffffffffffffff60243581811161042d57610168903690600401610c79565b606435929091906001600160a01b038416840361012d5784546001600160a01b0316330361011b57600435855260018060205260408620916101aa8354610d1b565b1561041b57604051916101bc83610df6565b81861161040757601f19916040516101dc602085601f8b01160182610e12565b8781523688880111610403578787602083013789602089830101528452604435602085015260018060a01b03881660408501526003850154680100000000000000008110156103ef57808361023a9201600388015560038701610e34565b9390936103db57845180519283116103c7576102608361025a8754610d1b565b87610d55565b8a602092601f851160011461035f575092806002959361029b9360039a99989692610354575b50508160011b916000199060031b1c19161790565b82555b6020840151908201550190604060018060a01b03910151166bffffffffffffffffffffffff60a01b8254161790550154916000198301928311610340577fed211b5f022ed6ecf7e09b632771774351f85235200143c152be230494543133929161031c9160ff60405194168452608060208501526080840191610dab565b60443560408301526001600160a01b0390931660608201526004359281900390a280f35b634e487b7160e01b85526011600452602485fd5b015190503880610286565b868d5260208d209392915084168c5b8181106103b1575092859392859260039a9998966002989510610399575b505050811b01825561029e565b0151600019838b1b60f8161c1916905538808061038c565b828401518555938601936020938401930161036e565b634e487b7160e01b8b52604160045260248bfd5b634e487b7160e01b8a5260048a905260248afd5b634e487b7160e01b8a52604160045260248afd5b8980fd5b634e487b7160e01b88526041600452602488fd5b60405163255aba8360e11b8152600490fd5b8280fd5b5034610132578060031936011261013257546040516001600160a01b039091168152602090f35b50346101325760208060031936011261061557600435825260019160018252604081209160029060028401549160039360038601946104a2600161049b89610e66565b9801610e66565b9086549067ffffffffffffffff821161060157604051979997939695946104cf600584901b870186610e12565b82855285850190819b89528689209089925b8584106105ad57505050505050610514906105076040519860a08a5260a08a0190610cdb565b90888203858a0152610cdb565b9060ff84161515604088015260ff60609460081c1660608801528682036080880152519283825282820190838560051b8401019895925b85841061055857888a0389f35b909192939495968580829b601f198582030187528a51906040610582835189845289840190610cdb565b8484015183860152928101516001600160a01b03169101529b9901979695919091019301919061054b565b9a8489829f9d60409d9a9b9c9d516105c481610df6565b6105cd87610e66565b81528685015483820152858701546001600160a01b0316604082015281529d9f9d999c9b9a999590920194930192016104e1565b634e487b7160e01b84526041600452602484fd5b5080fd5b50346101325780600319360112610132576040517f00000000000000000000000000000000000000000000000000000000000000006001600160a01b03168152602090f35b50346101325760203660031901126101325760036040602092600435815260018452200154604051908152f35b50346101325780600319360112610132576040517f00000000000000000000000000000000000000000000000000000000000000006001600160a01b03168152602090f35b50346101325760603660031901126101325760043560243560ff81168082036108c25760443567ffffffffffffffff811161087757610713903690600401610c79565b85546001600160a01b039492908516330361011b578587526001602052604087209461073f8654610d1b565b1561041b57600286019560ff8754166108b05760030192835486101561089e5761076a858a95610e34565b5090827f0000000000000000000000000000000000000000000000000000000000000000169360018301936002855494015416853b1561089a5786936107d885936040519586948594636e484a0d60e01b865260048601526024850152606060448501526064840191610dab565b038183885af1610886575b505054813b1561042d5782916024839260405194859384926302930d7560e11b845260048401525af1801561087b5761085f575b50509082600160209361ff007f67f0f83c848088b39d90925894f5c2c32dc3b0cc976c0dddb576920e79c1c8e896549160081b169061ffff191617179055604051908152a280f35b61086b90939293610dcc565b61087757908438610817565b8480fd5b6040513d84823e3d90fd5b61088f90610dcc565b61042d5782386107e3565b8680fd5b60405163779ffa5760e11b8152600490fd5b60405163475a253560e01b8152600490fd5b8380fd5b5034610132576108d536610ca7565b8354919392916001600160a01b03908116330361011b5782845260019060209160018352604086206109078154610d1b565b1561041b576001019067ffffffffffffffff8511610ab55784906109358261092f8554610d1b565b85610d55565b8790601f8311600114610a4f57509080610964928991610a44575b508160011b916000199060031b1c19161790565b90555b7f000000000000000000000000000000000000000000000000000000000000000016803b15610877578460405180926311676ea960e31b8252306004830152866024830152606060448301528183816109c58c8a6064840191610dab565b03925af1610a0d575b50610a077f3100a2f512c72362c64d90465c7105bfab0c880a966349b7be017e5e10963805939495604051938385948552840191610dab565b0390a280f35b7f3100a2f512c72362c64d90465c7105bfab0c880a966349b7be017e5e109638059394610a3c610a0792610dcc565b9493506109ce565b905089013538610950565b91601f198116848a52868a20938a905b888d848410610a9b575050505010610a81575b5050600184811b019055610967565b880135600019600387901b60f8161c191690553880610a72565b860135875595810195948501948a94509190910190610a5f565b634e487b7160e01b87526041600452602487fd5b503461013257610ad836610ca7565b8354919392916001600160a01b0316330361011b578183526001936020906001825260408520958654610b0a81610d1b565b610c305767ffffffffffffffff8511610ab55784610b2a610b3092610d1b565b89610d55565b8590601f8511600114610ba55750908596610b868580610a07957fdb838df1fbb32d807bb1ec43afc8f81fb0c76964708c79e129a864b4417c84e3999a91610b9a57508160011b916000199060031b1c19161790565b90555b604051938385948552840191610dab565b905084013538610950565b90601f1985168888528488209288905b828210610c19575050917fdb838df1fbb32d807bb1ec43afc8f81fb0c76964708c79e129a864b4417c84e39697989186610a07959410610bff575b5050600185811b019055610b89565b830135600019600388901b60f8161c191690553880610bf0565b858401358555938401939286019290860190610bb5565b60405162ceef7560e11b8152600490fd5b9050346106155760203660031901126106155760043563ffffffff60e01b811680910361042d576301ffc9a760e01b14815260209150f35b9181601f8401121561012d5782359167ffffffffffffffff831161012d576020838186019501011161012d57565b90604060031983011261012d57600435916024359067ffffffffffffffff821161012d57610cd791600401610c79565b9091565b919082519283825260005b848110610d07575050826000602080949584010152601f8019910116010190565b602081830181015184830182015201610ce6565b90600182811c92168015610d4b575b6020831014610d3557565b634e487b7160e01b600052602260045260246000fd5b91607f1691610d2a565b90601f8111610d6357505050565b6000916000526020600020906020601f850160051c83019410610da1575b601f0160051c01915b828110610d9657505050565b818155600101610d8a565b9092508290610d81565b908060209392818452848401376000828201840152601f01601f1916010190565b67ffffffffffffffff8111610de057604052565b634e487b7160e01b600052604160045260246000fd5b6060810190811067ffffffffffffffff821117610de057604052565b90601f8019910116810190811067ffffffffffffffff821117610de057604052565b8054821015610e50576000526003602060002091020190600090565b634e487b7160e01b600052603260045260246000fd5b90604051918260008254610e7981610d1b565b90818452602094600191600181169081600014610ee95750600114610eaa575b505050610ea892500383610e12565b565b600090815285812095935091905b818310610ed1575050610ea89350820101388080610e99565b85548884018501529485019487945091830191610eb8565b92505050610ea894925060ff191682840152151560051b820101388080610e9956fea164736f6c6343000818000a",
  "devdoc": {
    "kind": "dev",
    "methods": {
      "finalizeEvent(bytes32,uint8,bytes)": {
        "params": {
          "eventId": "The event identifier.",
          "proof": "Proof payload passed to ChallengePay.submitProofFor for the winning subject. Step 1: Submit proof for the winning outcome's subject via submitProofFor.         This is try/catch because the challenge may already have a proof,         the proof window may have closed, or the verifier may reject. Step 2: Finalize the challenge. This will revert if the challenge is not         yet ready to finalize (e.g., proof deadline hasn't passed).",
          "winnerIndex": "Index into the outcomes array for the winner."
        }
      },
      "supportsInterface(bytes4)": {
        "details": "Returns true if this contract implements the interface defined by `interfaceId`. See the corresponding https://eips.ethereum.org/EIPS/eip-165#how-interfaces-are-identified[ERC section] to learn more about how these ids are created. This function call must use less than 30 000 gas."
      }
    },
    "version": 1
  },
  "userdoc": {
    "kind": "user",
    "methods": {
      "finalizeEvent(bytes32,uint8,bytes)": {
        "notice": "Finalize an event by declaring the winning outcome."
      }
    },
    "version": 1
  },
  "storageLayout": {
    "storage": [
      {
        "astId": 11218,
        "contract": "contracts/router/EventChallengeRouter.sol:EventChallengeRouter",
        "label": "owner",
        "offset": 0,
        "slot": "0",
        "type": "t_address"
      },
      {
        "astId": 11249,
        "contract": "contracts/router/EventChallengeRouter.sol:EventChallengeRouter",
        "label": "events",
        "offset": 0,
        "slot": "1",
        "type": "t_mapping(t_bytes32,t_struct(EventInfo)11244_storage)"
      }
    ],
    "types": {
      "t_address": {
        "encoding": "inplace",
        "label": "address",
        "numberOfBytes": "20"
      },
      "t_array(t_struct(Outcome)11231_storage)dyn_storage": {
        "base": "t_struct(Outcome)11231_storage",
        "encoding": "dynamic_array",
        "label": "struct EventChallengeRouter.Outcome[]",
        "numberOfBytes": "32"
      },
      "t_bool": {
        "encoding": "inplace",
        "label": "bool",
        "numberOfBytes": "1"
      },
      "t_bytes32": {
        "encoding": "inplace",
        "label": "bytes32",
        "numberOfBytes": "32"
      },
      "t_mapping(t_bytes32,t_struct(EventInfo)11244_storage)": {
        "encoding": "mapping",
        "key": "t_bytes32",
        "label": "mapping(bytes32 => struct EventChallengeRouter.EventInfo)",
        "numberOfBytes": "32",
        "value": "t_struct(EventInfo)11244_storage"
      },
      "t_string_storage": {
        "encoding": "bytes",
        "label": "string",
        "numberOfBytes": "32"
      },
      "t_struct(EventInfo)11244_storage": {
        "encoding": "inplace",
        "label": "struct EventChallengeRouter.EventInfo",
        "members": [
          {
            "astId": 11233,
            "contract": "contracts/router/EventChallengeRouter.sol:EventChallengeRouter",
            "label": "title",
            "offset": 0,
            "slot": "0",
            "type": "t_string_storage"
          },
          {
            "astId": 11235,
            "contract": "contracts/router/EventChallengeRouter.sol:EventChallengeRouter",
            "label": "metaURI",
            "offset": 0,
            "slot": "1",
            "type": "t_string_storage"
          },
          {
            "astId": 11237,
            "contract": "contracts/router/EventChallengeRouter.sol:EventChallengeRouter",
            "label": "finalized",
            "offset": 0,
            "slot": "2",
            "type": "t_bool"
          },
          {
            "astId": 11239,
            "contract": "contracts/router/EventChallengeRouter.sol:EventChallengeRouter",
            "label": "winnerIndex",
            "offset": 1,
            "slot": "2",
            "type": "t_uint8"
          },
          {
            "astId": 11243,
            "contract": "contracts/router/EventChallengeRouter.sol:EventChallengeRouter",
            "label": "outcomes",
            "offset": 0,
            "slot": "3",
            "type": "t_array(t_struct(Outcome)11231_storage)dyn_storage"
          }
        ],
        "numberOfBytes": "128"
      },
      "t_struct(Outcome)11231_storage": {
        "encoding": "inplace",
        "label": "struct EventChallengeRouter.Outcome",
        "members": [
          {
            "astId": 11226,
            "contract": "contracts/router/EventChallengeRouter.sol:EventChallengeRouter",
            "label": "name",
            "offset": 0,
            "slot": "0",
            "type": "t_string_storage"
          },
          {
            "astId": 11228,
            "contract": "contracts/router/EventChallengeRouter.sol:EventChallengeRouter",
            "label": "challengeId",
            "offset": 0,
            "slot": "1",
            "type": "t_uint256"
          },
          {
            "astId": 11230,
            "contract": "contracts/router/EventChallengeRouter.sol:EventChallengeRouter",
            "label": "subject",
            "offset": 0,
            "slot": "2",
            "type": "t_address"
          }
        ],
        "numberOfBytes": "96"
      },
      "t_uint256": {
        "encoding": "inplace",
        "label": "uint256",
        "numberOfBytes": "32"
      },
      "t_uint8": {
        "encoding": "inplace",
        "label": "uint8",
        "numberOfBytes": "1"
      }
    }
  }
}