{
  "address": "0x64d0Fd4FF0d95eAcCDD2E338c2541c03C85548eF",
  "abi": [
    {
      "inputs": [
        {
          "internalType": "address",
          "name": "plonkVerifier",
          "type": "address"
        }
      ],
      "stateMutability": "nonpayable",
      "type": "constructor"
    },
    {
      "inputs": [],
      "name": "plonk",
      "outputs": [
        {
          "internalType": "contract IPlonkVerifier",
          "name": "",
          "type": "address"
        }
      ],
      "stateMutability": "view",
      "type": "function"
    },
    {
      "inputs": [
        {
          "internalType": "bytes4",
          "name": "interfaceId",
          "type": "bytes4"
        }
      ],
      "name": "supportsInterface",
      "outputs": [
        {
          "internalType": "bool",
          "name": "",
          "type": "bool"
        }
      ],
      "stateMutability": "pure",
      "type": "function"
    },
    {
      "inputs": [
        {
          "internalType": "uint256",
          "name": "",
          "type": "uint256"
        },
        {
          "internalType": "address",
          "name": "",
          "type": "address"
        },
        {
          "internalType": "bytes",
          "name": "proof",
          "type": "bytes"
        }
      ],
      "name": "verify",
      "outputs": [
        {
          "internalType": "bool",
          "name": "ok",
          "type": "bool"
        }
      ],
      "stateMutability": "nonpayable",
      "type": "function"
    }
  ],
  "transactionHash": "0xb28ae7c5a506436b729bdf435c2dc2270a07d541fe7e114984d3c4d910d2edad",
  "args": [
    "0xd434BE737148ec5B3EBd48B568CF8cDfaa4e482f"
  ],
  "numDeployments": 1,
  "solcInputHash": "e2df1da9d10690299fbbf088748853f5",
  "bytecode": "0x60a060405234801561001057600080fd5b506040516104e43803806104e483398101604081905261002f91610087565b6001600160a01b0381166100765760405162461bcd60e51b815260206004820152600a602482015269076657269666965723d360b41b604482015260640160405180910390fd5b6001600160a01b03166080526100b7565b60006020828403121561009957600080fd5b81516001600160a01b03811681146100b057600080fd5b9392505050565b60805161040c6100d86000396000818160730152610123015261040c6000f3fe608060405234801561001057600080fd5b50600436106100415760003560e01c806301ffc9a7146100465780636e241a3b1461006e578063b7b9f7d5146100ad575b600080fd5b6100596100543660046101a6565b6100c0565b60405190151581526020015b60405180910390f35b6100957f000000000000000000000000000000000000000000000000000000000000000081565b6040516001600160a01b039091168152602001610065565b6100596100bb3660046101d7565b6100f7565b60006001600160e01b0319821663b7b9f7d560e01b14806100f157506301ffc9a760e01b6001600160e01b03198316145b92915050565b60008080610107848601866102e1565b60405163303a760760e21b815291935091506001600160a01b037f0000000000000000000000000000000000000000000000000000000000000000169063c0e9d81c9061015a908590859060040161037f565b602060405180830381865afa158015610177573d6000803e3d6000fd5b505050506040513d601f19601f8201168201806040525081019061019b91906103dd565b979650505050505050565b6000602082840312156101b857600080fd5b81356001600160e01b0319811681146101d057600080fd5b9392505050565b600080600080606085870312156101ed57600080fd5b8435935060208501356001600160a01b038116811461020b57600080fd5b925060408501356001600160401b038082111561022757600080fd5b818701915087601f83011261023b57600080fd5b81358181111561024a57600080fd5b88602082850101111561025c57600080fd5b95989497505060200194505050565b634e487b7160e01b600052604160045260246000fd5b6040805160009181016001600160401b03811182821017156102a5576102a561026b565b806040525080915060408301848111156102be57600080fd5b835b818110156102d85780358352602092830192016102c0565b50505092915050565b60008061034083850312156102f557600080fd5b83601f84011261030457600080fd5b6040516103008082016001600160401b03811183821017156103285761032861026b565b6040528401818682111561033b57600080fd5b855b8281101561035557803582526020918201910161033d565b50508193508561031f86011261036a57600080fd5b6103748682610281565b925050509250929050565b6103408101818460005b60188110156103a8578151835260209283019290910190600101610389565b50505061030082018360005b60028110156103d35781518352602092830192909101906001016103b4565b5050509392505050565b6000602082840312156103ef57600080fd5b815180151581146101d057600080fdfea164736f6c6343000818000a",
  "devdoc": {
    "details": "Expects proof encoding = abi.encode(uint256[24] proof, uint256[2] pubSignals)",
    "kind": "dev",
    "methods": {
      "supportsInterface(bytes4)": {
        "details": "Returns true if this contract implements the interface defined by `interfaceId`. See the corresponding https://eips.ethereum.org/EIPS/eip-165#how-interfaces-are-identified[ERC section] to learn more about how these ids are created. This function call must use less than 30 000 gas."
      },
      "verify(uint256,address,bytes)": {
        "params": {
          "challengeId": "Challenge identifier.",
          "proof": "ABI-encoded verifier-specific payload (opaque to callers).",
          "subject": "The user/account the proof is about."
        },
        "returns": {
          "ok": "        True if the proof is valid."
        }
      }
    },
    "title": "PlonkProofVerifierAdapter",
    "version": 1
  },
  "userdoc": {
    "kind": "user",
    "methods": {
      "verify(uint256,address,bytes)": {
        "notice": "Verify an off-chain proof bound to (challengeId, subject)."
      }
    },
    "notice": "MIT-licensed adapter that bridges ChallengePay's IProofVerifier to a snarkJS PlonkVerifier (GPL).",
    "version": 1
  },
  "storageLayout": {
    "storage": [],
    "types": null
  }
}