{
  "address": "0xd434BE737148ec5B3EBd48B568CF8cDfaa4e482f",
  "abi": [
    {
      "inputs": [
        {
          "internalType": "uint256[24]",
          "name": "",
          "type": "uint256[24]"
        },
        {
          "internalType": "uint256[2]",
          "name": "_pubSignals",
          "type": "uint256[2]"
        }
      ],
      "name": "verifyProof",
      "outputs": [
        {
          "internalType": "bool",
          "name": "",
          "type": "bool"
        }
      ],
      "stateMutability": "view",
      "type": "function"
    }
  ],
  "transactionHash": "0x52e2ef211274d1a02e67291a9e99a2f3abe6be495910d00b6d797be9a512d713",
  "args": [],
  "numDeployments": 1,
  "solcInputHash": "69b73057c308b5548a3a954df9aad408",
  "bytecode": "0x608060405234801561001057600080fd5b506115b3806100206000396000f3fe608060405234801561001057600080fd5b506004361061002b5760003560e01c8063c0e9d81c14610030575b600080fd5b610052600480360361034081101561004757600080fd5b506103008101610066565b604080519115158252519081900360200190f35b60006114f5565b600080600184846000805b821561009a575092938183058581029091039350909181830290039081610078565b50505060018111156100ab57600080fd5b505060008112156100b95783015b9392505050565b60405181602084028301815160208301925060005b82841015610106578185526000805160206115878339815191528451830991506020850194506020840193506100d5565b61011e6000805160206115878339815191528361006d565b91506020850394506020840393508592505b828411156101755760008051602061158783398151915285518309905060008051602061158783398151915284518309818552601f1995860195909401939150610130565b5090915250505050565b600080516020611587833981519152811061019e576000805260206000f35b50565b6101ad6102443561017f565b6101b96102643561017f565b6101c56102843561017f565b6101d16102a43561017f565b6101dd6102c43561017f565b6101e96102e43561017f565b565b604080517f012423cb58d7a65896ea07f2b34ad83a3355baba17170d85fdb909b026269b4e81527f2be5c4e76fb79233754e9865bddbd5ce817757c72b9dcce224647d94b7a29a3460208083019182527f1378775b525d0d56e62d7e77d61924b91e519de05cdf26d81f549e715c84e6118385019081527f2e55c67e5dccf084d80ca655364abf3098285eba4f36d8d33855d454698ae044606085019081527f1ace4913a5e5362431f3620ba63c37242070f09696a6422d9cb3bf9e84acd1ee6080808701919091527f18c2bac93b88e699466f3b6d48eb7539183662fabba4f0be96fbef8f3837b93960a08701527f2717de33e7d9a0d7c9c05579567d9f686b1cef4036cbd324a5fcc7cbec63cc2260c08701527f0487e6c5d5011fd5ac6320334feeb08cd3ed6c404b90492abe68d939c159eff760e08701527e5b9f81511852960d7f1642f7dc4c21474c3697c0a4358cca4ff56d7ea0f8ee6101008701527f049d7b4ebc715dc07c24988f778008ae8567f41d5d3c8c6f0b9fb0f788d73fd96101208701527f2690f556fb8f4d3ee871147f617043f15bd92e1c5b4280cc59b20938d79ab5f06101408701527f1bccfe6ed38d9ab44e8beebf38ccf1f95c229d364e26d27bf9c4c8d17a29420d6101608701527f2c04bf0e2a86264cc2accd284f16b9d389bb6113f3a99d25b42c8372b9b21cd96101808701527f2f3e84c6e63d8acdcdb3fbf47910f742ecb649d8fd7084b75428fdc537d83ef66101a08701527f018135c17f39375014cf53fd74f88b7a7b6c01332b36ce2eba6ba430af6b636c6101c08701527f01680edee98119b1254829deeb51891845e4dce2095b2078d12bbf87d83075756101e08701528835610200870152888401356102208701526004356102408701526024356102608701526044356102808701526064356102a08701526084356102c087015260a4356102e087015261030086206000805160206115878339815191529081900689860181815295909520819006978901978852848752965190945260c43590915260e435905290822083900680855290929091908280096102c08501528181526101043560208201526020610104013560408201526101443560608201526020610144013560808201526101843560a08201526020610184013560c082015260008051602061158783398151915260e082200691508160608501528181526102443560208201526102643560408201526102843560608201526102a43560808201526102c43560a08201526102e43560c082015260008051602061158783398151915260e08220068060c086015260008051602061158783398151915283850960a086015260008051602061158783398151915283840992506000805160206115878339815191528384099250600080516020611587833981519152838409925060008051602061158783398151915283840992506000805160206115878339815191528384099250600080516020611587833981519152838409925060008051602061158783398151915283840992506000805160206115878339815191528384099250600080516020611587833981519152838409925060008051602061158783398151915283840992506000805160206115878339815191528384099250600080516020611587833981519152838409925060008051602061158783398151915283840992506000805160206115878339815191528384099250826080860152600080516020611587833981519152806001850301069250826102e08601528261030086015260008051602061158783398151915281820992508260e0860152600080516020611587833981519152818409925082610100860152600080516020611587833981519152818409925082610120860152600080516020611587833981519152818409610140860152506101c43581526101e435602082015261020435604082015261022435606082015260809020600080516020611587833981519152900661016090930192909252505050565b600160008051602061158783398151915280600080516020611587833981519152836060860151030106614000096103208301526000805160206115878339815191527f2d965651cdd9e4811f4e51b80ddca8a8b4a93ee17420aae6adaa01c2617c6e8582099050600080516020611587833981519152806000805160206115878339815191528360608601510301066140000961034083015261085d600361030084016100c0565b6102e08201516001915060008051602061158783398151915281610320850151096103208401526000805160206115878339815191527f2d965651cdd9e4811f4e51b80ddca8a8b4a93ee17420aae6adaa01c2617c6e85830991506000805160206115878339815191528082610340860151098309610340840152505050565b6000600080516020611587833981519152806000805160206115878339815191526000860135610320860151098303010690506000805160206115878339815191528060008051602061158783398151915260208601356103408601510983030106905080610180830152505050565b6101808101516000805160206115878339815191526102c083015161032084015109600080516020611587833981519152806102a4356020860151096102443508600080516020611587833981519152604085015182089050600080516020611587833981519152806102c4356020870151096102643508600080516020611587833981519152604086015182089050600080516020611587833981519152604086015161028435086000805160206115878339815191528160008051602061158783398151915284860909925050506000805160206115878339815191526102e43582099050600080516020611587833981519152600085015182099050600080516020611587833981519152808360008051602061158783398151915203068408925060008051602061158783398151915280826000805160206115878339815191520306840892505050806101a08301525050565b81518152602091820151910152565b90815260200152565b81358152602091820135910152565b6040518151815260208201516020820152825160408201526020830151606082015260408260808360066107d05a03fa905080610b0d576000805260206000f35b505050565b50505050565b600060405183815284602082015285604082015260408160608360076107d05a03fa915081610b4b576000805260206000f35b825160408201526020830151606082015260408360808360066107d05a03fa91505080610b7c576000805260206000f35b5050505050565b600060405183815284602082015285604082015260408360608360076107d05a03fa91505080610b7c576000805260206000f35b610b0d836020840151845184610b83565b6101c0810160408201516040516101008101604052610c277f049d7b4ebc715dc07c24988f778008ae8567f41d5d3c8c6f0b9fb0f788d73fd97e5b9f81511852960d7f1642f7dc4c21474c3697c0a4358cca4ff56d7ea0f8ee85610ab4565b610c8a6000805160206115878339815191526102643561024435097f2be5c4e76fb79233754e9865bddbd5ce817757c72b9dcce224647d94b7a29a347f012423cb58d7a65896ea07f2b34ad83a3355baba17170d85fdb909b026269b4e86610b18565b610cd9610244357f2e55c67e5dccf084d80ca655364abf3098285eba4f36d8d33855d454698ae0447f1378775b525d0d56e62d7e77d61924b91e519de05cdf26d81f549e715c84e61186610b18565b610d28610264357f18c2bac93b88e699466f3b6d48eb7539183662fabba4f0be96fbef8f3837b9397f1ace4913a5e5362431f3620ba63c37242070f09696a6422d9cb3bf9e84acd1ee86610b18565b610d77610284357f0487e6c5d5011fd5ac6320334feeb08cd3ed6c404b90492abe68d939c159eff77f2717de33e7d9a0d7c9c05579567d9f686b1cef4036cbd324a5fcc7cbec63cc2286610b18565b60a08401516000805160206115878339815191528360008051602061158783398151915283610244350808600080516020611587833981519152846000805160206115878339815191528060028609610264350808600080516020611587833981519152856000805160206115878339815191528060038709610284350808925060008051602061158783398151915260008801516000805160206115878339815191528560008051602061158783398151915285870909096000805160206115878339815191526102c08901516103208a015109610e5a60c460c08801610abd565b610e8f6000805160206115878339815191526101608b01516000805160206115878339815191528486080860c0880188610bb7565b505060008051602061158783398151915285600080516020611587833981519152806102a43560208c015109610244350808915060008051602061158783398151915285600080516020611587833981519152806102c43560208c01510961026435080890506000805160206115878339815191526102e43560008051602061158783398151915260208a015160008b015109099250610f9660008051602061158783398151915284600080516020611587833981519152848609097f01680edee98119b1254829deeb51891845e4dce2095b2078d12bbf87d83075757f018135c17f39375014cf53fd74f88b7a7b6c01332b36ce2eba6ba430af6b636c60408801610b83565b505050610fa861010460808301610abd565b610fc46080850151602061014401356101443560808501610b18565b60808401516000805160206115878339815191529080099150610ff2826101a4356101843560808501610b18565b61100e6102e085015160a0830151608084015160808501610b83565b60008051602061156783398151915260206040830101516000805160206115678339815191520306602060408301015260008051602061156783398151915260a0820151600080516020611567833981519152030660a08201526110728184610acc565b61107f6040820184610acc565b610b126080820184610acc565b610200810161109f6101c0830182610aa5565b60c08201516110b49060243560043584610b18565b60e08201516110c99060643560443584610b18565b6101008201516110df9060a43560843584610b18565b6111306101208301517f1bccfe6ed38d9ab44e8beebf38ccf1f95c229d364e26d27bf9c4c8d17a29420d7f2690f556fb8f4d3ee871147f617043f15bd92e1c5b4280cc59b20938d79ab5f084610b18565b6111816101408301517f2f3e84c6e63d8acdcdb3fbf47910f742ecb649d8fd7084b75428fdc537d83ef67f2c04bf0e2a86264cc2accd284f16b9d389bb6113f3a99d25b42c8372b9b21cd984610b18565b5050565b6000805160206115878339815191526101a082015160008051602061158783398151915203066000805160206115878339815191528060c08401516102443509820890506000805160206115878339815191528060e084015161026435098208905060008051602061158783398151915280610100840151610284350982089050600080516020611587833981519152806101208401516102a4350982089050600080516020611587833981519152806101408401516102c4350982089050600080516020611587833981519152806101608401516102e435098208905061118181600260016102408601610b83565b6000604051610240810160405261018081016101c08201610200830161129d6101c484610abd565b6112a961020483610abd565b6112b96101608701518386610bb7565b6112c38385610acc565b6000805160206115678339815191526020850151600080516020611567833981519152030660208501527f177e5c7323ddf333531ff3774cfd98c4171eb55b52818fbd01c10c0ced103d6a60408501527f016f3107a08cbd9e9406eddf2fc1ee38c73e668052c5097c27a8d0371398e22e60608501527f07597f73a5dcc7a658e9c7982349cdae262dbcc59a92f8bd8b1354817fd84d2c60808501527f2bcff661449653f59496a133381d418935852e9ee3fd582508a8cacc721ef4be60a085015261139760608701518460c08701610bb7565b60008051602061158783398151915260608701516101608801510992506000805160206115878339815191527f2d965651cdd9e4811f4e51b80ddca8a8b4a93ee17420aae6adaa01c2617c6e85840992506113f3838383610bb7565b6114008160c08601610acc565b505050611414610200840160c08301610acc565b61026083018051600080516020611567833981519152908103069052611441610240840160c08301610acc565b7f198e9393920d483a7260bfb731fb5d25f1aa493335a9e71297e485b7aef312c26101008201527f1800deef121f1e76426a00665e5c4479674322d4f75edadd46debd5cd992f6ed6101208201527f090689d0585ff075ec9e99ad690c3395bc4b313370b38ef355acdadcd122975b6101408201527f12c85ea5db8c6deb4aab71808dcb408fe3d1e7690c43d37b4ce6cc0166fa7daa6101608201526020816101808360086107d05a03fa90511692915050565b60405161036081016040526115086101a1565b61151283826101eb565b61151b816107b4565b61152583826108dd565b61152e8161094d565b61153781610bc8565b6115408161108c565b61154981611185565b61155281611275565b610360820360405280600052505060206000f3fe30644e72e131a029b85045b68181585d97816a916871ca8d3c208c16d87cfd4730644e72e131a029b85045b68181585d2833e84879b9709143e1f593f0000001a164736f6c6343000706000a"
}