{
  "address": "0xe84c197614d4fAAE1CdA8d6067fFe43befD9e961",
  "abi": [
    {
      "inputs": [
        {
          "internalType": "address",
          "name": "admin",
          "type": "address"
        },
        {
          "internalType": "address",
          "name": "initialOperator",
          "type": "address"
        }
      ],
      "stateMutability": "nonpayable",
      "type": "constructor"
    },
    {
      "inputs": [],
      "name": "AccessControlBadConfirmation",
      "type": "error"
    },
    {
      "inputs": [
        {
          "internalType": "address",
          "name": "account",
          "type": "address"
        },
        {
          "internalType": "bytes32",
          "name": "neededRole",
          "type": "bytes32"
        }
      ],
      "name": "AccessControlUnauthorizedAccount",
      "type": "error"
    },
    {
      "inputs": [],
      "name": "AllowanceTooLow",
      "type": "error"
    },
    {
      "inputs": [],
      "name": "AmountZero",
      "type": "error"
    },
    {
      "inputs": [],
      "name": "BadParams",
      "type": "error"
    },
    {
      "inputs": [],
      "name": "InsufficientBucketBalance",
      "type": "error"
    },
    {
      "inputs": [],
      "name": "InsufficientTreasuryBalance",
      "type": "error"
    },
    {
      "inputs": [],
      "name": "ReentrancyGuardReentrantCall",
      "type": "error"
    },
    {
      "inputs": [
        {
          "internalType": "address",
          "name": "token",
          "type": "address"
        }
      ],
      "name": "SafeERC20FailedOperation",
      "type": "error"
    },
    {
      "inputs": [],
      "name": "SweepWouldBreakReserves",
      "type": "error"
    },
    {
      "inputs": [],
      "name": "TaxedERC20Detected",
      "type": "error"
    },
    {
      "anonymous": false,
      "inputs": [
        {
          "indexed": true,
          "internalType": "uint256",
          "name": "bucketId",
          "type": "uint256"
        },
        {
          "indexed": true,
          "internalType": "address",
          "name": "token",
          "type": "address"
        },
        {
          "indexed": true,
          "internalType": "address",
          "name": "from",
          "type": "address"
        },
        {
          "indexed": false,
          "internalType": "uint256",
          "name": "amount",
          "type": "uint256"
        }
      ],
      "name": "BucketCreditedERC20",
      "type": "event"
    },
    {
      "anonymous": false,
      "inputs": [
        {
          "indexed": true,
          "internalType": "uint256",
          "name": "bucketId",
          "type": "uint256"
        },
        {
          "indexed": true,
          "internalType": "address",
          "name": "from",
          "type": "address"
        },
        {
          "indexed": false,
          "internalType": "uint256",
          "name": "amount",
          "type": "uint256"
        }
      ],
      "name": "BucketCreditedETH",
      "type": "event"
    },
    {
      "anonymous": false,
      "inputs": [
        {
          "indexed": true,
          "internalType": "uint256",
          "name": "bucketId",
          "type": "uint256"
        },
        {
          "indexed": true,
          "internalType": "address",
          "name": "token",
          "type": "address"
        },
        {
          "indexed": true,
          "internalType": "address",
          "name": "to",
          "type": "address"
        },
        {
          "indexed": false,
          "internalType": "uint256",
          "name": "amount",
          "type": "uint256"
        }
      ],
      "name": "ClaimedERC20",
      "type": "event"
    },
    {
      "anonymous": false,
      "inputs": [
        {
          "indexed": true,
          "internalType": "uint256",
          "name": "bucketId",
          "type": "uint256"
        },
        {
          "indexed": true,
          "internalType": "address",
          "name": "to",
          "type": "address"
        },
        {
          "indexed": false,
          "internalType": "uint256",
          "name": "amount",
          "type": "uint256"
        }
      ],
      "name": "ClaimedETH",
      "type": "event"
    },
    {
      "anonymous": false,
      "inputs": [
        {
          "indexed": true,
          "internalType": "uint256",
          "name": "bucketId",
          "type": "uint256"
        },
        {
          "indexed": true,
          "internalType": "address",
          "name": "token",
          "type": "address"
        },
        {
          "indexed": true,
          "internalType": "address",
          "name": "to",
          "type": "address"
        },
        {
          "indexed": false,
          "internalType": "uint256",
          "name": "amount",
          "type": "uint256"
        },
        {
          "indexed": false,
          "internalType": "address",
          "name": "operator",
          "type": "address"
        }
      ],
      "name": "GrantERC20",
      "type": "event"
    },
    {
      "anonymous": false,
      "inputs": [
        {
          "indexed": true,
          "internalType": "uint256",
          "name": "bucketId",
          "type": "uint256"
        },
        {
          "indexed": true,
          "internalType": "address",
          "name": "to",
          "type": "address"
        },
        {
          "indexed": false,
          "internalType": "uint256",
          "name": "amount",
          "type": "uint256"
        },
        {
          "indexed": false,
          "internalType": "address",
          "name": "operator",
          "type": "address"
        }
      ],
      "name": "GrantETH",
      "type": "event"
    },
    {
      "anonymous": false,
      "inputs": [
        {
          "indexed": true,
          "internalType": "address",
          "name": "from",
          "type": "address"
        },
        {
          "indexed": false,
          "internalType": "uint256",
          "name": "amount",
          "type": "uint256"
        }
      ],
      "name": "Received",
      "type": "event"
    },
    {
      "anonymous": false,
      "inputs": [
        {
          "indexed": true,
          "internalType": "address",
          "name": "token",
          "type": "address"
        },
        {
          "indexed": true,
          "internalType": "address",
          "name": "from",
          "type": "address"
        },
        {
          "indexed": false,
          "internalType": "uint256",
          "name": "amount",
          "type": "uint256"
        }
      ],
      "name": "ReceivedERC20",
      "type": "event"
    },
    {
      "anonymous": false,
      "inputs": [
        {
          "indexed": true,
          "internalType": "uint256",
          "name": "bucketId",
          "type": "uint256"
        },
        {
          "indexed": true,
          "internalType": "address",
          "name": "token",
          "type": "address"
        },
        {
          "indexed": true,
          "internalType": "address",
          "name": "to",
          "type": "address"
        },
        {
          "indexed": false,
          "internalType": "uint256",
          "name": "amount",
          "type": "uint256"
        },
        {
          "indexed": false,
          "internalType": "address",
          "name": "operator",
          "type": "address"
        }
      ],
      "name": "ReduceERC20",
      "type": "event"
    },
    {
      "anonymous": false,
      "inputs": [
        {
          "indexed": true,
          "internalType": "uint256",
          "name": "bucketId",
          "type": "uint256"
        },
        {
          "indexed": true,
          "internalType": "address",
          "name": "to",
          "type": "address"
        },
        {
          "indexed": false,
          "internalType": "uint256",
          "name": "amount",
          "type": "uint256"
        },
        {
          "indexed": false,
          "internalType": "address",
          "name": "operator",
          "type": "address"
        }
      ],
      "name": "ReduceETH",
      "type": "event"
    },
    {
      "anonymous": false,
      "inputs": [
        {
          "indexed": true,
          "internalType": "bytes32",
          "name": "role",
          "type": "bytes32"
        },
        {
          "indexed": true,
          "internalType": "bytes32",
          "name": "previousAdminRole",
          "type": "bytes32"
        },
        {
          "indexed": true,
          "internalType": "bytes32",
          "name": "newAdminRole",
          "type": "bytes32"
        }
      ],
      "name": "RoleAdminChanged",
      "type": "event"
    },
    {
      "anonymous": false,
      "inputs": [
        {
          "indexed": true,
          "internalType": "bytes32",
          "name": "role",
          "type": "bytes32"
        },
        {
          "indexed": true,
          "internalType": "address",
          "name": "account",
          "type": "address"
        },
        {
          "indexed": true,
          "internalType": "address",
          "name": "sender",
          "type": "address"
        }
      ],
      "name": "RoleGranted",
      "type": "event"
    },
    {
      "anonymous": false,
      "inputs": [
        {
          "indexed": true,
          "internalType": "bytes32",
          "name": "role",
          "type": "bytes32"
        },
        {
          "indexed": true,
          "internalType": "address",
          "name": "account",
          "type": "address"
        },
        {
          "indexed": true,
          "internalType": "address",
          "name": "sender",
          "type": "address"
        }
      ],
      "name": "RoleRevoked",
      "type": "event"
    },
    {
      "anonymous": false,
      "inputs": [
        {
          "indexed": true,
          "internalType": "address",
          "name": "token",
          "type": "address"
        },
        {
          "indexed": true,
          "internalType": "address",
          "name": "to",
          "type": "address"
        },
        {
          "indexed": false,
          "internalType": "uint256",
          "name": "amount",
          "type": "uint256"
        }
      ],
      "name": "Swept",
      "type": "event"
    },
    {
      "stateMutability": "payable",
      "type": "fallback"
    },
    {
      "inputs": [],
      "name": "DEFAULT_ADMIN_ROLE",
      "outputs": [
        {
          "internalType": "bytes32",
          "name": "",
          "type": "bytes32"
        }
      ],
      "stateMutability": "view",
      "type": "function"
    },
    {
      "inputs": [],
      "name": "OPERATOR_ROLE",
      "outputs": [
        {
          "internalType": "bytes32",
          "name": "",
          "type": "bytes32"
        }
      ],
      "stateMutability": "view",
      "type": "function"
    },
    {
      "inputs": [],
      "name": "SWEEPER_ROLE",
      "outputs": [
        {
          "internalType": "bytes32",
          "name": "",
          "type": "bytes32"
        }
      ],
      "stateMutability": "view",
      "type": "function"
    },
    {
      "inputs": [
        {
          "internalType": "address",
          "name": "",
          "type": "address"
        },
        {
          "internalType": "uint256",
          "name": "",
          "type": "uint256"
        },
        {
          "internalType": "address",
          "name": "",
          "type": "address"
        }
      ],
      "name": "allowanceOf",
      "outputs": [
        {
          "internalType": "uint256",
          "name": "",
          "type": "uint256"
        }
      ],
      "stateMutability": "view",
      "type": "function"
    },
    {
      "inputs": [
        {
          "internalType": "address",
          "name": "",
          "type": "address"
        },
        {
          "internalType": "uint256",
          "name": "",
          "type": "uint256"
        }
      ],
      "name": "bucketErc20Balance",
      "outputs": [
        {
          "internalType": "uint256",
          "name": "",
          "type": "uint256"
        }
      ],
      "stateMutability": "view",
      "type": "function"
    },
    {
      "inputs": [
        {
          "internalType": "uint256",
          "name": "",
          "type": "uint256"
        }
      ],
      "name": "bucketEthBalance",
      "outputs": [
        {
          "internalType": "uint256",
          "name": "",
          "type": "uint256"
        }
      ],
      "stateMutability": "view",
      "type": "function"
    },
    {
      "inputs": [
        {
          "internalType": "uint256",
          "name": "bucketId",
          "type": "uint256"
        },
        {
          "internalType": "address",
          "name": "token",
          "type": "address"
        },
        {
          "internalType": "uint256",
          "name": "amount",
          "type": "uint256"
        }
      ],
      "name": "claimERC20",
      "outputs": [],
      "stateMutability": "nonpayable",
      "type": "function"
    },
    {
      "inputs": [
        {
          "internalType": "uint256",
          "name": "bucketId",
          "type": "uint256"
        },
        {
          "internalType": "address",
          "name": "token",
          "type": "address"
        },
        {
          "internalType": "address",
          "name": "to",
          "type": "address"
        },
        {
          "internalType": "uint256",
          "name": "amount",
          "type": "uint256"
        }
      ],
      "name": "claimERC20To",
      "outputs": [],
      "stateMutability": "nonpayable",
      "type": "function"
    },
    {
      "inputs": [
        {
          "internalType": "uint256",
          "name": "bucketId",
          "type": "uint256"
        },
        {
          "internalType": "uint256",
          "name": "amount",
          "type": "uint256"
        }
      ],
      "name": "claimETH",
      "outputs": [],
      "stateMutability": "nonpayable",
      "type": "function"
    },
    {
      "inputs": [
        {
          "internalType": "uint256",
          "name": "bucketId",
          "type": "uint256"
        },
        {
          "internalType": "address",
          "name": "to",
          "type": "address"
        },
        {
          "internalType": "uint256",
          "name": "amount",
          "type": "uint256"
        }
      ],
      "name": "claimETHTo",
      "outputs": [],
      "stateMutability": "nonpayable",
      "type": "function"
    },
    {
      "inputs": [
        {
          "internalType": "uint256",
          "name": "bucketId",
          "type": "uint256"
        },
        {
          "internalType": "address",
          "name": "token",
          "type": "address"
        },
        {
          "internalType": "address",
          "name": "from",
          "type": "address"
        },
        {
          "internalType": "uint256",
          "name": "amount",
          "type": "uint256"
        }
      ],
      "name": "depositERC20From",
      "outputs": [],
      "stateMutability": "nonpayable",
      "type": "function"
    },
    {
      "inputs": [
        {
          "internalType": "uint256",
          "name": "bucketId",
          "type": "uint256"
        },
        {
          "internalType": "address",
          "name": "token",
          "type": "address"
        },
        {
          "internalType": "address",
          "name": "owner",
          "type": "address"
        },
        {
          "internalType": "uint256",
          "name": "amount",
          "type": "uint256"
        },
        {
          "internalType": "uint256",
          "name": "deadline",
          "type": "uint256"
        },
        {
          "internalType": "uint8",
          "name": "v",
          "type": "uint8"
        },
        {
          "internalType": "bytes32",
          "name": "r",
          "type": "bytes32"
        },
        {
          "internalType": "bytes32",
          "name": "s",
          "type": "bytes32"
        }
      ],
      "name": "depositERC20Permit",
      "outputs": [],
      "stateMutability": "nonpayable",
      "type": "function"
    },
    {
      "inputs": [
        {
          "internalType": "uint256",
          "name": "bucketId",
          "type": "uint256"
        }
      ],
      "name": "depositETH",
      "outputs": [],
      "stateMutability": "payable",
      "type": "function"
    },
    {
      "inputs": [
        {
          "internalType": "uint256",
          "name": "",
          "type": "uint256"
        },
        {
          "internalType": "address",
          "name": "",
          "type": "address"
        }
      ],
      "name": "ethAllowanceOf",
      "outputs": [
        {
          "internalType": "uint256",
          "name": "",
          "type": "uint256"
        }
      ],
      "stateMutability": "view",
      "type": "function"
    },
    {
      "inputs": [
        {
          "internalType": "bytes32",
          "name": "role",
          "type": "bytes32"
        }
      ],
      "name": "getRoleAdmin",
      "outputs": [
        {
          "internalType": "bytes32",
          "name": "",
          "type": "bytes32"
        }
      ],
      "stateMutability": "view",
      "type": "function"
    },
    {
      "inputs": [
        {
          "internalType": "uint256",
          "name": "bucketId",
          "type": "uint256"
        },
        {
          "internalType": "address",
          "name": "token",
          "type": "address"
        },
        {
          "internalType": "address",
          "name": "to",
          "type": "address"
        },
        {
          "internalType": "uint256",
          "name": "amount",
          "type": "uint256"
        }
      ],
      "name": "grantERC20",
      "outputs": [],
      "stateMutability": "nonpayable",
      "type": "function"
    },
    {
      "inputs": [
        {
          "internalType": "uint256",
          "name": "bucketId",
          "type": "uint256"
        },
        {
          "internalType": "address",
          "name": "to",
          "type": "address"
        },
        {
          "internalType": "uint256",
          "name": "amount",
          "type": "uint256"
        }
      ],
      "name": "grantETH",
      "outputs": [],
      "stateMutability": "nonpayable",
      "type": "function"
    },
    {
      "inputs": [
        {
          "internalType": "bytes32",
          "name": "role",
          "type": "bytes32"
        },
        {
          "internalType": "address",
          "name": "account",
          "type": "address"
        }
      ],
      "name": "grantRole",
      "outputs": [],
      "stateMutability": "nonpayable",
      "type": "function"
    },
    {
      "inputs": [
        {
          "internalType": "bytes32",
          "name": "role",
          "type": "bytes32"
        },
        {
          "internalType": "address",
          "name": "account",
          "type": "address"
        }
      ],
      "name": "hasRole",
      "outputs": [
        {
          "internalType": "bool",
          "name": "",
          "type": "bool"
        }
      ],
      "stateMutability": "view",
      "type": "function"
    },
    {
      "inputs": [
        {
          "internalType": "address",
          "name": "",
          "type": "address"
        }
      ],
      "name": "outstandingERC20",
      "outputs": [
        {
          "internalType": "uint256",
          "name": "",
          "type": "uint256"
        }
      ],
      "stateMutability": "view",
      "type": "function"
    },
    {
      "inputs": [],
      "name": "outstandingETH",
      "outputs": [
        {
          "internalType": "uint256",
          "name": "",
          "type": "uint256"
        }
      ],
      "stateMutability": "view",
      "type": "function"
    },
    {
      "inputs": [
        {
          "internalType": "uint256",
          "name": "bucketId",
          "type": "uint256"
        },
        {
          "internalType": "address",
          "name": "token",
          "type": "address"
        },
        {
          "internalType": "address",
          "name": "to",
          "type": "address"
        },
        {
          "internalType": "uint256",
          "name": "amount",
          "type": "uint256"
        }
      ],
      "name": "reduceERC20Allowance",
      "outputs": [],
      "stateMutability": "nonpayable",
      "type": "function"
    },
    {
      "inputs": [
        {
          "internalType": "uint256",
          "name": "bucketId",
          "type": "uint256"
        },
        {
          "internalType": "address",
          "name": "to",
          "type": "address"
        },
        {
          "internalType": "uint256",
          "name": "amount",
          "type": "uint256"
        }
      ],
      "name": "reduceETHAllowance",
      "outputs": [],
      "stateMutability": "nonpayable",
      "type": "function"
    },
    {
      "inputs": [
        {
          "internalType": "bytes32",
          "name": "role",
          "type": "bytes32"
        },
        {
          "internalType": "address",
          "name": "callerConfirmation",
          "type": "address"
        }
      ],
      "name": "renounceRole",
      "outputs": [],
      "stateMutability": "nonpayable",
      "type": "function"
    },
    {
      "inputs": [
        {
          "internalType": "bytes32",
          "name": "role",
          "type": "bytes32"
        },
        {
          "internalType": "address",
          "name": "account",
          "type": "address"
        }
      ],
      "name": "revokeRole",
      "outputs": [],
      "stateMutability": "nonpayable",
      "type": "function"
    },
    {
      "inputs": [
        {
          "internalType": "bytes4",
          "name": "interfaceId",
          "type": "bytes4"
        }
      ],
      "name": "supportsInterface",
      "outputs": [
        {
          "internalType": "bool",
          "name": "",
          "type": "bool"
        }
      ],
      "stateMutability": "view",
      "type": "function"
    },
    {
      "inputs": [
        {
          "internalType": "address",
          "name": "token",
          "type": "address"
        },
        {
          "internalType": "address",
          "name": "to",
          "type": "address"
        },
        {
          "internalType": "uint256",
          "name": "amount",
          "type": "uint256"
        }
      ],
      "name": "sweep",
      "outputs": [],
      "stateMutability": "nonpayable",
      "type": "function"
    },
    {
      "inputs": [
        {
          "internalType": "address",
          "name": "",
          "type": "address"
        }
      ],
      "name": "totalBucketErc20Balance",
      "outputs": [
        {
          "internalType": "uint256",
          "name": "",
          "type": "uint256"
        }
      ],
      "stateMutability": "view",
      "type": "function"
    },
    {
      "inputs": [],
      "name": "totalBucketEthBalance",
      "outputs": [
        {
          "internalType": "uint256",
          "name": "",
          "type": "uint256"
        }
      ],
      "stateMutability": "view",
      "type": "function"
    },
    {
      "stateMutability": "payable",
      "type": "receive"
    }
  ],
  "transactionHash": "0xca1a9fe66442c4ab5993fe6621a4096c4ff88b27e23d7e9014a24bf989fec7d6",
  "args": [
    "0x8176735dE44c6a6e64C9153F2448B15F2F53cB31",
    "0x95A4CE3c93dBcDb9b3CdFb4CCAE6EFBDb4cCA217"
  ],
  "numDeployments": 1,
  "solcInputHash": "e2df1da9d10690299fbbf088748853f5",
  "bytecode": "0x60806040523480156200001157600080fd5b50604051620021d6380380620021d68339810160408190526200003491620001ad565b600180556001600160a01b038216620000605760405163019af63760e01b815260040160405180910390fd5b6200006d600083620000e1565b506200009a7f8aef0597c0be1e090afba1f387ee99f604b5d975ccbed6215cdf146ffd5c49fc83620000e1565b506001600160a01b03811615620000d957620000d77f97667070c54ef182b0f5858b034beac1b6f3089aa2d3188bb1e8929f4fa9b92982620000e1565b505b5050620001e5565b6000828152602081815260408083206001600160a01b038516845290915281205460ff1662000186576000838152602081815260408083206001600160a01b03861684529091529020805460ff191660011790556200013d3390565b6001600160a01b0316826001600160a01b0316847f2f8788117e7eff1d82e926ec794901d17c78024a50270940304540a733656f0d60405160405180910390a45060016200018a565b5060005b92915050565b80516001600160a01b0381168114620001a857600080fd5b919050565b60008060408385031215620001c157600080fd5b620001cc8362000190565b9150620001dc6020840162000190565b90509250929050565b611fe180620001f56000396000f3fe6080604052600436106101565760003560e01c806301ffc9a7146101a95780630735b2ec146101de5780630c7a0952146101fe57806313db4d8f1461021e578063153eac94146102425780631af7f41414610262578063212fa262146102a0578063248a9ca3146102b6578063298a7b2e146102d65780632f2ff15d146102f657806336568abe1461031657806339b99a09146103365780633b6277a7146103565780633de6147a146103765780634153cc5b146103ae5780635358fbda146103e65780635e802f68146103f95780635f82abb91461041957806362c067671461043b57806375bc2b7a1461045b5780637fe7b9a01461048857806386d23798146104a857806391d14854146104c8578063a217fddf146104e8578063af01b525146104fd578063d547741f1461051d578063e68b3b6e1461053d578063f4964d6e1461056a578063f5b541a61461059757610181565b36610181576040513481523390600080516020611f55833981519152906020015b60405180910390a2005b34156101a7576040513481523390600080516020611f5583398151915290602001610177565b005b3480156101b557600080fd5b506101c96101c4366004611c45565b6105b9565b60405190151581526020015b60405180910390f35b3480156101ea57600080fd5b506101a76101f9366004611c92565b6105f0565b34801561020a57600080fd5b506101a7610219366004611cc7565b61075b565b34801561022a57600080fd5b5061023460045481565b6040519081526020016101d5565b34801561024e57600080fd5b506101a761025d366004611c92565b610940565b34801561026e57600080fd5b5061023461027d366004611d0b565b600760209081526000938452604080852082529284528284209052825290205481565b3480156102ac57600080fd5b5061023460085481565b3480156102c257600080fd5b506102346102d1366004611d47565b610ab0565b3480156102e257600080fd5b506101a76102f1366004611d60565b610ac5565b34801561030257600080fd5b506101a7610311366004611d82565b610ae5565b34801561032257600080fd5b506101a7610331366004611d82565b610b07565b34801561034257600080fd5b506101a7610351366004611cc7565b610b3f565b34801561036257600080fd5b506101a7610371366004611c92565b610db2565b34801561038257600080fd5b50610234610391366004611d82565b600660209081526000928352604080842090915290825290205481565b3480156103ba57600080fd5b506102346103c9366004611dae565b600360209081526000928352604080842090915290825290205481565b6101a76103f4366004611d47565b610df5565b34801561040557600080fd5b506101a7610414366004611cc7565b610ead565b34801561042557600080fd5b50610234600080516020611f7583398151915281565b34801561044757600080fd5b506101a7610456366004611dd8565b611079565b34801561046757600080fd5b50610234610476366004611e04565b60096020526000908152604090205481565b34801561049457600080fd5b506101a76104a3366004611cc7565b61134f565b3480156104b457600080fd5b506101a76104c3366004611e1f565b611393565b3480156104d457600080fd5b506101c96104e3366004611d82565b611690565b3480156104f457600080fd5b50610234600081565b34801561050957600080fd5b506101a7610518366004611c92565b6116b9565b34801561052957600080fd5b506101a7610538366004611d82565b6116cd565b34801561054957600080fd5b50610234610558366004611d47565b60026020526000908152604090205481565b34801561057657600080fd5b50610234610585366004611e04565b60056020526000908152604090205481565b3480156105a357600080fd5b50610234600080516020611f9583398151915281565b60006001600160e01b03198216637965db0b60e01b14806105ea57506301ffc9a760e01b6001600160e01b03198316145b92915050565b600080516020611f95833981519152610608816116e9565b83158061061c57506001600160a01b038316155b1561063a5760405163019af63760e01b815260040160405180910390fd5b8160000361065b576040516365e52d5160e11b815260040160405180910390fd5b6000848152600260205260409020548281101561068b57604051636d3d937760e01b815260040160405180910390fd5b6106958382611eb1565b600086815260026020526040812091909155600480548592906106b9908490611eb1565b909155505060008581526006602090815260408083206001600160a01b0388168452909152812080548592906106f0908490611ec4565b9250508190555082600860008282546107099190611ec4565b92505081905550836001600160a01b0316857f9886f3e323e39b62237812b5b53a880af8c74ee63e4a6b7c36513a18f6061a13853360405161074c929190611ed7565b60405180910390a35050505050565b600080516020611f95833981519152610773816116e9565b84158061078757506001600160a01b038416155b8061079957506001600160a01b038316155b156107b75760405163019af63760e01b815260040160405180910390fd5b816000036107d8576040516365e52d5160e11b815260040160405180910390fd5b6001600160a01b038085166000908152600760209081526040808320898452825280832093871683529290522054828110156108275760405163175936bd60e31b815260040160405180910390fd5b6108318382611eb1565b6001600160a01b0380871660008181526007602090815260408083208c84528252808320948a1683529381528382209490945590815260099092528120805485929061087e908490611eb1565b90915550506001600160a01b0385166000908152600360209081526040808320898452909152812080548592906108b6908490611ec4565b90915550506001600160a01b038516600090815260056020526040812080548592906108e3908490611ec4565b92505081905550836001600160a01b0316856001600160a01b0316877f7c570503f4109b920cc89fdba11e39aa540dec68650cd945144c63371542b5518633604051610930929190611ed7565b60405180910390a4505050505050565b600080516020611f95833981519152610958816116e9565b83158061096c57506001600160a01b038316155b1561098a5760405163019af63760e01b815260040160405180910390fd5b816000036109ab576040516365e52d5160e11b815260040160405180910390fd5b60008481526006602090815260408083206001600160a01b0387168452909152902054828110156109ef5760405163175936bd60e31b815260040160405180910390fd5b6109f98382611eb1565b60008681526006602090815260408083206001600160a01b038916845290915281209190915560088054859290610a31908490611eb1565b909155505060008581526002602052604081208054859290610a54908490611ec4565b925050819055508260046000828254610a6d9190611ec4565b92505081905550836001600160a01b0316857f0c8f8c601d759ff225c1dd5500e800b7b897c8b6ff49ffd11bdede17aaae419c853360405161074c929190611ed7565b60009081526020819052604090206001015490565b610acd6116f6565b610ad8823383611720565b610ae160018055565b5050565b610aee82610ab0565b610af7816116e9565b610b0183836118c0565b50505050565b6001600160a01b0381163314610b305760405163334bd91960e11b815260040160405180910390fd5b610b3a8282611952565b505050565b831580610b5357506001600160a01b038316155b80610b6557506001600160a01b038216155b15610b835760405163019af63760e01b815260040160405180910390fd5b80600003610ba4576040516365e52d5160e11b815260040160405180910390fd5b6040516370a0823160e01b81526000906001600160a01b038516906370a0823190610bd3903090600401611eee565b602060405180830381865afa158015610bf0573d6000803e3d6000fd5b505050506040513d601f19601f82011682018060405250810190610c149190611f02565b9050610c2b6001600160a01b0385168430856119bd565b6040516370a0823160e01b81526000906001600160a01b038616906370a0823190610c5a903090600401611eee565b602060405180830381865afa158015610c77573d6000803e3d6000fd5b505050506040513d601f19601f82011682018060405250810190610c9b9190611f02565b90506000610ca98383611eb1565b9050838114610ccb576040516312d3830960e11b815260040160405180910390fd5b6001600160a01b03861660009081526003602090815260408083208a845290915281208054869290610cfe908490611ec4565b90915550506001600160a01b03861660009081526005602052604081208054869290610d2b908490611ec4565b92505081905550846001600160a01b0316866001600160a01b031688600080516020611f3583398151915287604051610d6691815260200190565b60405180910390a4846001600160a01b0316866001600160a01b0316600080516020611fb583398151915286604051610da191815260200190565b60405180910390a350505050505050565b610dba6116f6565b6001600160a01b038216610de15760405163019af63760e01b815260040160405180910390fd5b610dec838383611720565b610b3a60018055565b80600003610e165760405163019af63760e01b815260040160405180910390fd5b34600003610e37576040516365e52d5160e11b815260040160405180910390fd5b60008181526002602052604081208054349290610e55908490611ec4565b925050819055503460046000828254610e6e9190611ec4565b9091555050604051348152339082907fb4c2d1bdcf228131a501ef4daf49a58116320b32bef17b33b3f512adfb4d37e79060200160405180910390a350565b600080516020611f95833981519152610ec5816116e9565b841580610ed957506001600160a01b038416155b80610eeb57506001600160a01b038316155b15610f095760405163019af63760e01b815260040160405180910390fd5b81600003610f2a576040516365e52d5160e11b815260040160405180910390fd5b6001600160a01b038416600090815260036020908152604080832088845290915290205482811015610f6f57604051636d3d937760e01b815260040160405180910390fd5b610f798382611eb1565b6001600160a01b03861660008181526003602090815260408083208b845282528083209490945591815260059091529081208054859290610fbb908490611eb1565b90915550506001600160a01b0380861660009081526007602090815260408083208a8452825280832093881683529290529081208054859290610fff908490611ec4565b90915550506001600160a01b0385166000908152600960205260408120805485929061102c908490611ec4565b92505081905550836001600160a01b0316856001600160a01b0316877f778c71f5fcbc4af900f23eb97390ef18976725045368003524ab9e6360dda70e8633604051610930929190611ed7565b600080516020611f75833981519152611091816116e9565b6110996116f6565b6001600160a01b0383166110c05760405163019af63760e01b815260040160405180910390fd5b816000036110e1576040516365e52d5160e11b815260040160405180910390fd5b6001600160a01b0384166111f457478281101561111157604051631c7b597b60e11b815260040160405180910390fd5b6000600454600854836111249190611eb1565b61112e9190611eb1565b9050808411156111515760405163033dcf8360e11b815260040160405180910390fd5b6000856001600160a01b03168560405160006040518083038185875af1925050503d806000811461119e576040519150601f19603f3d011682016040523d82523d6000602084013e6111a3565b606091505b50509050806111ec5760405162461bcd60e51b815260206004820152601060248201526f11551217d4d5d1515417d1905253115160821b60448201526064015b60405180910390fd5b5050506112f9565b6040516370a0823160e01b81526000906001600160a01b038616906370a0823190611223903090600401611eee565b602060405180830381865afa158015611240573d6000803e3d6000fd5b505050506040513d601f19601f820116820180604052508101906112649190611f02565b90508281101561128757604051631c7b597b60e11b815260040160405180910390fd5b6001600160a01b03851660009081526005602090815260408083205460099092528220546112b59084611eb1565b6112bf9190611eb1565b9050808411156112e25760405163033dcf8360e11b815260040160405180910390fd5b6112f66001600160a01b0387168686611a24565b50505b826001600160a01b0316846001600160a01b03167f7b09c29f9106defeccc9ac3b823f3aad0b470d120e5df7aed033b5c43a4bf7188460405161133e91815260200190565b60405180910390a3610b0160018055565b6113576116f6565b6001600160a01b03821661137e5760405163019af63760e01b815260040160405180910390fd5b61138a84848484611a4a565b610b0160018055565b8715806113a757506001600160a01b038716155b806113b957506001600160a01b038616155b156113d75760405163019af63760e01b815260040160405180910390fd5b846000036113f8576040516365e52d5160e11b815260040160405180910390fd5b60405163d505accf60e01b81526001600160a01b038781166004830152306024830152604482018790526064820186905260ff8516608483015260a4820184905260c4820183905288169063d505accf9060e401600060405180830381600087803b15801561146657600080fd5b505af115801561147a573d6000803e3d6000fd5b50506040516370a0823160e01b8152600092506001600160a01b038a1691506370a08231906114ad903090600401611eee565b602060405180830381865afa1580156114ca573d6000803e3d6000fd5b505050506040513d601f19601f820116820180604052508101906114ee9190611f02565b90506115056001600160a01b0389168830896119bd565b6040516370a0823160e01b81526000906001600160a01b038a16906370a0823190611534903090600401611eee565b602060405180830381865afa158015611551573d6000803e3d6000fd5b505050506040513d601f19601f820116820180604052508101906115759190611f02565b905060006115838383611eb1565b90508781146115a5576040516312d3830960e11b815260040160405180910390fd5b6001600160a01b038a1660009081526003602090815260408083208e8452909152812080548a92906115d8908490611ec4565b90915550506001600160a01b038a16600090815260056020526040812080548a9290611605908490611ec4565b92505081905550886001600160a01b03168a6001600160a01b03168c600080516020611f358339815191528b60405161164091815260200190565b60405180910390a4886001600160a01b03168a6001600160a01b0316600080516020611fb58339815191528a60405161167b91815260200190565b60405180910390a35050505050505050505050565b6000918252602082815260408084206001600160a01b0393909316845291905290205460ff1690565b6116c16116f6565b610dec83833384611a4a565b6116d682610ab0565b6116df816116e9565b610b018383611952565b6116f38133611bb2565b50565b60026001540361171957604051633ee5aeb560e01b815260040160405180910390fd5b6002600155565b826000036117415760405163019af63760e01b815260040160405180910390fd5b80600003611762576040516365e52d5160e11b815260040160405180910390fd5b60008381526006602090815260408083206001600160a01b0386168452909152902054818110156117a65760405163175936bd60e31b815260040160405180910390fd5b6117b08282611eb1565b60008581526006602090815260408083206001600160a01b0388168452909152812091909155600880548492906117e8908490611eb1565b90915550506040516000906001600160a01b0385169084908381818185875af1925050503d8060008114611838576040519150601f19603f3d011682016040523d82523d6000602084013e61183d565b606091505b50509050806118845760405162461bcd60e51b815260206004820152601360248201527211551217d514905394d1915497d19052531151606a1b60448201526064016111e3565b836001600160a01b0316857fa3ce95edc64f70cc47461aa9f878425ba3693eb0512adc56911c3c7759b168d78560405161074c91815260200190565b60006118cc8383611690565b61194a576000838152602081815260408083206001600160a01b03861684529091529020805460ff191660011790556119023390565b6001600160a01b0316826001600160a01b0316847f2f8788117e7eff1d82e926ec794901d17c78024a50270940304540a733656f0d60405160405180910390a45060016105ea565b5060006105ea565b600061195e8383611690565b1561194a576000838152602081815260408083206001600160a01b0386168085529252808320805460ff1916905551339286917ff6391f5c32d9c69d2a47ea670b442974b53935d1edc7fd64eb21e047a839171b9190a45060016105ea565b6040516001600160a01b038481166024830152838116604483015260648201839052610b019186918216906323b872dd906084015b604051602081830303815290604052915060e01b6020820180516001600160e01b038381831617835250505050611bdd565b610b3a83846001600160a01b031663a9059cbb85856040516024016119f2929190611f1b565b831580611a5e57506001600160a01b038316155b15611a7c5760405163019af63760e01b815260040160405180910390fd5b80600003611a9d576040516365e52d5160e11b815260040160405180910390fd5b6001600160a01b03808416600090815260076020908152604080832088845282528083209386168352929052205481811015611aec5760405163175936bd60e31b815260040160405180910390fd5b611af68282611eb1565b6001600160a01b0380861660008181526007602090815260408083208b84528252808320948916835293815283822094909455908152600990925281208054849290611b43908490611eb1565b90915550611b5d90506001600160a01b0385168484611a24565b826001600160a01b0316846001600160a01b0316867fcbf230a64716fe41a8264c5d2e2d4a6828b095c132ef052d929ed8e92760aea585604051611ba391815260200190565b60405180910390a45050505050565b611bbc8282611690565b610ae157808260405163e2517d3f60e01b81526004016111e3929190611f1b565b600080602060008451602086016000885af180611c00576040513d6000823e3d81fd5b50506000513d91508115611c18578060011415611c25565b6001600160a01b0384163b155b15610b015783604051635274afe760e01b81526004016111e39190611eee565b600060208284031215611c5757600080fd5b81356001600160e01b031981168114611c6f57600080fd5b9392505050565b80356001600160a01b0381168114611c8d57600080fd5b919050565b600080600060608486031215611ca757600080fd5b83359250611cb760208501611c76565b9150604084013590509250925092565b60008060008060808587031215611cdd57600080fd5b84359350611ced60208601611c76565b9250611cfb60408601611c76565b9396929550929360600135925050565b600080600060608486031215611d2057600080fd5b611d2984611c76565b925060208401359150611d3e60408501611c76565b90509250925092565b600060208284031215611d5957600080fd5b5035919050565b60008060408385031215611d7357600080fd5b50508035926020909101359150565b60008060408385031215611d9557600080fd5b82359150611da560208401611c76565b90509250929050565b60008060408385031215611dc157600080fd5b611dca83611c76565b946020939093013593505050565b600080600060608486031215611ded57600080fd5b611df684611c76565b9250611cb760208501611c76565b600060208284031215611e1657600080fd5b611c6f82611c76565b600080600080600080600080610100898b031215611e3c57600080fd5b88359750611e4c60208a01611c76565b9650611e5a60408a01611c76565b9550606089013594506080890135935060a089013560ff81168114611e7e57600080fd5b979a969950949793969295929450505060c08201359160e0013590565b634e487b7160e01b600052601160045260246000fd5b818103818111156105ea576105ea611e9b565b808201808211156105ea576105ea611e9b565b9182526001600160a01b0316602082015260400190565b6001600160a01b0391909116815260200190565b600060208284031215611f1457600080fd5b5051919050565b6001600160a01b0392909216825260208201526040019056fedbc8ed52e9656b9a0d7d8e0c2efa7f17ba77f6f82bca69f1648e4a8192053cd788a5966d370b9919b20f3e2c13ff65706f196a4e32cc2c12bf57088f885258748aef0597c0be1e090afba1f387ee99f604b5d975ccbed6215cdf146ffd5c49fc97667070c54ef182b0f5858b034beac1b6f3089aa2d3188bb1e8929f4fa9b92960828417f1419799e99989c2523b4e489c9d34a62225df92844b238712164f69a164736f6c6343000818000a",
  "devdoc": {
    "errors": {
      "AccessControlBadConfirmation()": [
        {
          "details": "The caller of a function is not the expected one. NOTE: Don't confuse with {AccessControlUnauthorizedAccount}."
        }
      ],
      "AccessControlUnauthorizedAccount(address,bytes32)": [
        {
          "details": "The `account` is missing a role."
        }
      ],
      "ReentrancyGuardReentrantCall()": [
        {
          "details": "Unauthorized reentrant call."
        }
      ],
      "SafeERC20FailedOperation(address)": [
        {
          "details": "An operation with an ERC-20 token failed."
        }
      ]
    },
    "events": {
      "RoleAdminChanged(bytes32,bytes32,bytes32)": {
        "details": "Emitted when `newAdminRole` is set as ``role``'s admin role, replacing `previousAdminRole` `DEFAULT_ADMIN_ROLE` is the starting admin for all roles, despite {RoleAdminChanged} not being emitted to signal this."
      },
      "RoleGranted(bytes32,address,address)": {
        "details": "Emitted when `account` is granted `role`. `sender` is the account that originated the contract call. This account bears the admin role (for the granted role). Expected in cases where the role was granted using the internal {AccessControl-_grantRole}."
      },
      "RoleRevoked(bytes32,address,address)": {
        "details": "Emitted when `account` is revoked `role`. `sender` is the account that originated the contract call:   - if using `revokeRole`, it is the admin role bearer   - if using `renounceRole`, it is the role bearer (i.e. `account`)"
      }
    },
    "kind": "dev",
    "methods": {
      "getRoleAdmin(bytes32)": {
        "details": "Returns the admin role that controls `role`. See {grantRole} and {revokeRole}. To change a role's admin, use {_setRoleAdmin}."
      },
      "grantRole(bytes32,address)": {
        "details": "Grants `role` to `account`. If `account` had not been already granted `role`, emits a {RoleGranted} event. Requirements: - the caller must have ``role``'s admin role. May emit a {RoleGranted} event."
      },
      "hasRole(bytes32,address)": {
        "details": "Returns `true` if `account` has been granted `role`."
      },
      "renounceRole(bytes32,address)": {
        "details": "Revokes `role` from the calling account. Roles are often managed via {grantRole} and {revokeRole}: this function's purpose is to provide a mechanism for accounts to lose their privileges if they are compromised (such as when a trusted device is misplaced). If the calling account had been revoked `role`, emits a {RoleRevoked} event. Requirements: - the caller must be `callerConfirmation`. May emit a {RoleRevoked} event."
      },
      "revokeRole(bytes32,address)": {
        "details": "Revokes `role` from `account`. If `account` had been granted `role`, emits a {RoleRevoked} event. Requirements: - the caller must have ``role``'s admin role. May emit a {RoleRevoked} event."
      },
      "supportsInterface(bytes4)": {
        "details": "Returns true if this contract implements the interface defined by `interfaceId`. See the corresponding https://eips.ethereum.org/EIPS/eip-165#how-interfaces-are-identified[ERC section] to learn more about how these ids are created. This function call must use less than 30 000 gas."
      }
    },
    "version": 1
  },
  "userdoc": {
    "kind": "user",
    "methods": {},
    "notice": "Treasury — bucketed, claim-based custody  Properties: - Funds partitioned into BUCKETS (bucketId => balances). - Operator can ONLY grant payouts from a bucket's available balance. - Recipients claim via pull pattern (unstoppable), optional claim-to. - Sweeper can only sweep truly free funds:     free = onchainBalance - outstandingAllowances - totalBucketBalances Intended usage: - ChallengePay holds ZERO funds. - All deposits go into Treasury buckets (bucketId = challengeId). - Validator stake deposits go into bucketId = VALIDATOR_BUCKET in ChallengePay (e.g., 1). - ChallengePay is granted OPERATOR_ROLE to call grantETH/grantERC20.",
    "version": 1
  },
  "storageLayout": {
    "storage": [
      {
        "astId": 27,
        "contract": "contracts/Treasury.sol:Treasury",
        "label": "_roles",
        "offset": 0,
        "slot": "0",
        "type": "t_mapping(t_bytes32,t_struct(RoleData)22_storage)"
      },
      {
        "astId": 1399,
        "contract": "contracts/Treasury.sol:Treasury",
        "label": "_status",
        "offset": 0,
        "slot": "1",
        "type": "t_uint256"
      },
      {
        "astId": 8182,
        "contract": "contracts/Treasury.sol:Treasury",
        "label": "bucketEthBalance",
        "offset": 0,
        "slot": "2",
        "type": "t_mapping(t_uint256,t_uint256)"
      },
      {
        "astId": 8188,
        "contract": "contracts/Treasury.sol:Treasury",
        "label": "bucketErc20Balance",
        "offset": 0,
        "slot": "3",
        "type": "t_mapping(t_address,t_mapping(t_uint256,t_uint256))"
      },
      {
        "astId": 8190,
        "contract": "contracts/Treasury.sol:Treasury",
        "label": "totalBucketEthBalance",
        "offset": 0,
        "slot": "4",
        "type": "t_uint256"
      },
      {
        "astId": 8194,
        "contract": "contracts/Treasury.sol:Treasury",
        "label": "totalBucketErc20Balance",
        "offset": 0,
        "slot": "5",
        "type": "t_mapping(t_address,t_uint256)"
      },
      {
        "astId": 8200,
        "contract": "contracts/Treasury.sol:Treasury",
        "label": "ethAllowanceOf",
        "offset": 0,
        "slot": "6",
        "type": "t_mapping(t_uint256,t_mapping(t_address,t_uint256))"
      },
      {
        "astId": 8208,
        "contract": "contracts/Treasury.sol:Treasury",
        "label": "allowanceOf",
        "offset": 0,
        "slot": "7",
        "type": "t_mapping(t_address,t_mapping(t_uint256,t_mapping(t_address,t_uint256)))"
      },
      {
        "astId": 8210,
        "contract": "contracts/Treasury.sol:Treasury",
        "label": "outstandingETH",
        "offset": 0,
        "slot": "8",
        "type": "t_uint256"
      },
      {
        "astId": 8214,
        "contract": "contracts/Treasury.sol:Treasury",
        "label": "outstandingERC20",
        "offset": 0,
        "slot": "9",
        "type": "t_mapping(t_address,t_uint256)"
      }
    ],
    "types": {
      "t_address": {
        "encoding": "inplace",
        "label": "address",
        "numberOfBytes": "20"
      },
      "t_bool": {
        "encoding": "inplace",
        "label": "bool",
        "numberOfBytes": "1"
      },
      "t_bytes32": {
        "encoding": "inplace",
        "label": "bytes32",
        "numberOfBytes": "32"
      },
      "t_mapping(t_address,t_bool)": {
        "encoding": "mapping",
        "key": "t_address",
        "label": "mapping(address => bool)",
        "numberOfBytes": "32",
        "value": "t_bool"
      },
      "t_mapping(t_address,t_mapping(t_uint256,t_mapping(t_address,t_uint256)))": {
        "encoding": "mapping",
        "key": "t_address",
        "label": "mapping(address => mapping(uint256 => mapping(address => uint256)))",
        "numberOfBytes": "32",
        "value": "t_mapping(t_uint256,t_mapping(t_address,t_uint256))"
      },
      "t_mapping(t_address,t_mapping(t_uint256,t_uint256))": {
        "encoding": "mapping",
        "key": "t_address",
        "label": "mapping(address => mapping(uint256 => uint256))",
        "numberOfBytes": "32",
        "value": "t_mapping(t_uint256,t_uint256)"
      },
      "t_mapping(t_address,t_uint256)": {
        "encoding": "mapping",
        "key": "t_address",
        "label": "mapping(address => uint256)",
        "numberOfBytes": "32",
        "value": "t_uint256"
      },
      "t_mapping(t_bytes32,t_struct(RoleData)22_storage)": {
        "encoding": "mapping",
        "key": "t_bytes32",
        "label": "mapping(bytes32 => struct AccessControl.RoleData)",
        "numberOfBytes": "32",
        "value": "t_struct(RoleData)22_storage"
      },
      "t_mapping(t_uint256,t_mapping(t_address,t_uint256))": {
        "encoding": "mapping",
        "key": "t_uint256",
        "label": "mapping(uint256 => mapping(address => uint256))",
        "numberOfBytes": "32",
        "value": "t_mapping(t_address,t_uint256)"
      },
      "t_mapping(t_uint256,t_uint256)": {
        "encoding": "mapping",
        "key": "t_uint256",
        "label": "mapping(uint256 => uint256)",
        "numberOfBytes": "32",
        "value": "t_uint256"
      },
      "t_struct(RoleData)22_storage": {
        "encoding": "inplace",
        "label": "struct AccessControl.RoleData",
        "members": [
          {
            "astId": 19,
            "contract": "contracts/Treasury.sol:Treasury",
            "label": "hasRole",
            "offset": 0,
            "slot": "0",
            "type": "t_mapping(t_address,t_bool)"
          },
          {
            "astId": 21,
            "contract": "contracts/Treasury.sol:Treasury",
            "label": "adminRole",
            "offset": 0,
            "slot": "1",
            "type": "t_bytes32"
          }
        ],
        "numberOfBytes": "64"
      },
      "t_uint256": {
        "encoding": "inplace",
        "label": "uint256",
        "numberOfBytes": "32"
      }
    }
  }
}